:1000000068200020250100002101000021010000DE
:1000100000000000000000000000000000000000E0
:1000200000000000000000000000000021010000AE
:10003000000000000000000021010000210100007C
:100040002101000021010000210100002101000028
:100050002101000021010000210100002101000018
:100060002101000021010000210100002101000008
:10007000210100002101000021010000A50800006D
:1000800021010000210100002101000021010000E8
:1000900021010000210100002101000021010000D8
:1000A00021010000210100002101000021010000C8
:1000B0000000000010B5064C2378002B07D1054B3B
:1000C000002B02D0044800E000BF0123237010BDC4
:1000D0002800002000000000440A0000084B10B572
:1000E000002B03D00749084800E000BF0748036819
:1000F000002B00D110BD064B002BFBD09847F9E731
:10010000000000002C000020440A0000440A000007
:100110000000000010B5014B984710BD35020000EB
:10012000FEE70000F8B5234A234B9A4209D0224B40
:10013000204A03E011681960043304321F498B42DE
:10014000F8D31F4B02E000221A6004331D4A934289
:10015000F9D31D4AFF211D4B8B439360FD3990233A
:100160005B001B4AD1501B4AD3780325AB430224C2
:100170002343D370D3780C27BB4308263343D37073
:10018000154B987B30229043202210439873997B23
:10019000B943314399739A7BAA4322439A730F4A16
:1001A000516880230B4353600D4B98470D4B984784
:1001B000FEE7C046440A000000000020280000209E
:1001C000280000206400002000ED00E00000000096
:1001D00000700041005000410048004100400041D3
:1001E000A509000001090000044A116A80235B0090
:1001F0000B431362024A034B5A80704700040040CD
:100200001A420000000C004010B5054B9847054B02
:100210009847020004490548054B984710BDC04661
:10022000E90100008508000000200042480000208D
:10023000F5030000F0B5D6464F464646C0B52E4BF6
:100240009847C022D20580231B02536193602B4B39
:100250002B499962C0273F069F624F24185D0121F8
:10026000884318558020C002506190608024E405C6
:100270009C62244898625225585D884358558020D6
:100280000003506190609C621F4898620135585D80
:10029000884358559420814654384D4650510C3D62
:1002A000AA4650516830194D1D501F50C625A8460A
:1002B0005D5D8D43AC46454666465E55463D4E46C1
:1002C000955156469551124D1D501F50C7255F5DE3
:1002D0008F435F554D46545194511C500D4A1A504E
:1002E00036301A5C8A431A540B4B98471CBC904614
:1002F0009946A246F0BDC046A90500000044004151
:1003000000800040040000C0080000C04000004021
:1003100080000040004000C009020000EFF310839D
:10032000036072B6BFF35F8F7047BFF35F8F0368E0
:1003300083F3108870470000F8B50668002E02D0DD
:10034000330000250CE0104B984718E09F68BC462E
:100350006444A41A01348F68BC420BD21D001B6890
:10036000002B07D05C689442F0D8A41A9F68BC4662
:100370006444F0E7B34203D02800044B9847F8BD2B
:10038000014B9847FBE7C04645050000710500009A
:10039000F8B50500446903695E1C0661037EDB074E
:1003A00002D4037E9B070AD52B7E02221343DBB2C5
:1003B0002B76F8BD6F69E368200098473C00002C5D
:1003C000F7D06368F31AA2689342F2D32F00143770
:1003D0003800064B9847237C012BEBD16660320036
:1003E00021003800024B9847E4E7C0467905000039
:1003F0003903000070B504000D00002812D0002958
:100400000ED001203B220849084B984729002000C4
:10041000074B984700232361064B2360002070BDE3
:100420000020EFE70020EDE7EC09000025050000C3
:10043000810700009103000010B50400431E98419D
:10044000C0B253220749084B98472000074B9847F2
:10045000002804D12000064B9847002010BD112031
:100460004042FBE7EC09000025050000730800008E
:100470006108000070B582B004000D00002826D08D
:10048000002922D001207A221F49204B9847237E41
:1004900001221343DBB223762600143629003000F4
:1004A0001B4B9847002814D123696B6022692900EF
:1004B0003000184B9847237E012293432376237EF6
:1004C0009B0712D4002002B070BD0020DBE70020A3
:1004D000D9E7237E0122934323767E320A49002006
:1004E0000A4B984712204042EDE701A80A4B984773
:1004F000237E0222934323762000084B984701A8CD
:10050000074B98470020DEE7EC09000025050000B6
:100510002D050000390300001D03000089080000BC
:100520002B030000002800D100BE70470368002B99
:1005300003D08B4203D01B68F9E7002070470120ED
:10054000FCE7000070B504000D00064B984701233E
:100550005840C0B239220449044B984723682B60A5
:10056000256070BD2D050000040A0000250500006F
:1005700003680B60016070470368002B03D01A68A2
:100580000260180070470020FCE7000043B2002B17
:1005900007DB1F2318401E3B834080225200014985
:1005A0008B50704700E100E010B5084A5368022103
:1005B0000B435360064B9847064B98470220064C66
:1005C000A047064B9847FD20A04710BD00400041C2
:1005D0003D0600005D060000E10500008906000000
:1005E000C30709D5114B802252009A60104A5A6005
:1005F0000E4B5B78DB09FBD1830709D50B4B02223D
:10060000FF329A600B4A5A60084B5B78DB09FBD1DA
:10061000430709D5054B812252009A60064A5A6069
:10062000024B5B78DB09FBD17047C046000C0040F1
:10063000000721000104210002082100064B1A7A5C
:10064000D2B21A725A7AD2B25A729A7AD2B29A72D2
:10065000DA7AD2B2DA72704700040040094A93692C
:100660001B0C1B04FE21C9030B4046210B43936165
:10067000137F27390B401377024BDB685B07FBD5F1
:100680007047C046000800400222204B9A841F4B4E
:10069000DB68DB06FBD51E4A1C4BDA621D4B1B6870
:1006A0009B0E3F2B2AD09B02802292001A43174BAD
:1006B0009A626A229A841849184A51804221442237
:1006C0009954174A9A642022DA649B8C5B0718D5E8
:1006D0000E4BDB68DB06FBD550230C4AD35C5B0773
:1006E00007D45023D35CDB0703D45023D35C9B0790
:1006F000F2D50A4B5B78DB09FBD17047FC22D201B3
:10070000D5E7024BDB68DB06FBD5E5E700080040D8
:10071000000001042460800001410000000C004042
:10072000700B0B00034B984200D07047024B1960CE
:10073000FBE7C046002000424400002010B5C3681B
:10074000DA6AD20700D410BD0122DA620368984742
:10075000F9E7000010B50023002B01D0002010BDE8
:100760009A00D218D100054A8A58824202D0013339
:10077000DBB2F1E701484018F1E7C0460000002075
:1007800070B506000C000800324B9847051E5BD080
:10079000F460A368DB0714D4A3689B07FCD123682B
:1007A0009B0709D52368022293432360A3689B0714
:1007B000FCD1A3689B07FCD401232360A3689B079B
:1007C000FCD1A368DB07FCD4AB682360A3689B075C
:1007D000FCD12B7B63716B7BA3772B6923626B6AE4
:1007E0002364A3681B06FCD40123A362310020000C
:1007F000194B98470423EB56002B0BDB1F221340A9
:100800001E3A9A401300802214498B50BFF34F8F39
:10081000BFF36F8F0423EB56002B08DB1F2213401E
:100820001E3A9A401300C02252000C498B500423F8
:10083000EB56002B0BDB1F2213401E3A9A4013008D
:10084000064A1360002070BD0A204042FBE70020EA
:10085000F9E7C046550700002507000000E100E069
:10086000C268136802210B43136093689B07FCD195
:100870007047C26893689B07FCD113685B0801202E
:10088000184070470020704710B5C068034B984768
:10089000002802D00079024B984710BD5507000090
:1008A0008D05000010B5024B1868024B984710BD2B
:1008B000440000203D0700008022D202C023DB0557
:1008C0009A6170478022D202C023DB055A617047CB
:1008D00080221203C023DB059A6170478022120335
:1008E000C023DB055A61704780221202C023DB055A
:1008F0009A61704780221202C023DB055A6170475B
:10090000F0B5CE4600B59EB01C4B984719A93222CF
:100910008A601B4BCB6001230B7414A8814616928E
:1009200018484C46E06023740FAC119216481290A0
:1009300023740AAF0C9215480D903B7405AE0792D4
:100940001348089033740292124A03926A46137451
:100950001148124DA84749460F48A84721000E48A4
:10096000A84739000C48A84731000B48A8476946FA
:100970000948A84708480A4B9847FEE715010000B8
:10098000B9080000C5080000D1080000DD0800001B
:10099000E9080000F5080000480000207504000088
:1009A0003904000070B500260C4D0D4C641BA410DA
:1009B000A64209D1002600F035F80A4D0A4C641B06
:1009C000A410A64205D170BDB300EB58984701367C
:1009D000EEE7B300EB5898470136F2E7300A000023
:1009E000300A0000300A0000340A00002E2E2F6862
:1009F000616C2F7372632F68616C5F74696D6572CF
:100A00002E6300002E2E2F68616C2F7574696C7335
:100A10002F7372632F7574696C735F6C6973742EB6
:100A200063000000F8B5C046F8BC08BC9E4670479D
:100A3000DD000000F8B5C046F8BC08BC9E46704713
:040A4000B5000000FD
:100A4400002000420F000000000000000000000031
:100A54000000000000000000000000000000000092
:080A640000000000600000002A
:00000001FF
