S0180000617473746172745F74696D6572735F322E7372656385
S113000078200020250100002101000021010000CA
S113001000000000000000000000000000000000DC
S113002000000000000000000000000021010000AA
S11300300000000000000000210100002101000078
S11300402101000021010000210100002101000024
S11300502101000021010000210100002101000014
S11300602101000021010000210100002101000004
S1130070210100000000000000000000450700000E
S113008021010000210100002101000021010000E4
S11300902101000000000000000000002101000018
S11300A021010000210100002101000021010000C4
S11300B00000000010B5064C2378002B07D1054B37
S11300C0002B02D0044800E000BF0123237010BDC0
S11300D0280000200000000040080000084B10B574
S11300E0002B03D00749084800E000BF0748036815
S11300F0002B00D110BD064B002BFBD09847F9E72D
S1130100000000002C00002040080000400800000F
S11301100000000010B5014B984710BD35020000E7
S1130120FEE70000F8B5234A234B9A4209D0224B3C
S1130130204A03E011681960043304321F498B42DA
S1130140F8D31F4B02E000221A6004331D4A934285
S1130150F9D31D4AFF211D4B8B439360FD39902336
S11301605B001B4AD1501B4AD3780325AB430224BE
S11301702343D370D3780C27BB4308263343D3706F
S1130180154B987B30229043202210439873997B1F
S1130190B943314399739A7BAA4322439A730F4A12
S11301A0516880230B4353600D4B98470D4B984780
S11301B0FEE7C046400800000000002028000020A0
S11301C0280000207800002000ED00E0000000007E
S11301D000700041005000410048004100400041CF
S11301E0A107000065070000044A116A80235B0030
S11301F00B431362024A034B5A80704700040040C9
S11302001A400000000C004010B5054B9847054B00
S11302109847020004490548054B984710BDC0465D
S1130220E9010000250700000020004248000020EA
S11302304D03000010B50B4B9847C023DB0580220B
S113024012035A619A60084B8022D2059A62074AC7
S11302509A6253215A5C012082435A54044B9847B2
S113026010BDC0460105000000440041080000C064
S113027009020000EFF31083036072B6BFF35F8FCF
S11302807047BFF35F8F036883F3108870470000E3
S1130290F8B50668002E02D0330000250CE0104BA0
S11302A0984718E09F68BC466444A41A01348F68D8
S11302B0BC420BD21D001B68002B07D05C68944223
S11302C0F0D8A41A9F68BC466444F0E7B34203D054
S11302D02800044B9847F8BD014B9847FBE7C046FC
S11302E09D040000C9040000F8B5050044690369D1
S11302F05E1C0661037EDB0702D4037E9B070AD5DE
S11303002B7E02221343DBB22B76F8BD6F69E368C0
S1130310200098473C00002CF7D06368F31AA268C9
S11303209342F2D32F0014373800064B9847237CAE
S1130330012BEBD16660320021003800024B984754
S1130340E4E7C046D10400009102000070B5040047
S11303500D00002812D000290ED001203B220849AC
S1130360084B984729002000074B98470023236136
S1130370064B2360002070BD0020EFE70020EDE76E
S1130380E80700007D04000021060000E9020000E7
S113039010B50400431E9841C0B253220749084BCC
S11303A098472000074B9847002804D12000064BAB
S11303B09847002010BD11204042FBE7E8070000E9
S11303C07D040000130700000107000070B582B02F
S11303D004000D00002826D0002922D001207A2212
S11303E01F49204B9847237E01221343DBB2237617
S11303F026001436290030001B4B9847002814D1DE
S113040023696B60226929003000184B9847237ECA
S1130410012293432376237E9B0712D4002002B04B
S113042070BD0020DBE70020D9E7237E012293433F
S113043023767E320A4900200A4B98471220404214
S1130440EDE701A80A4B9847237E022293432376C3
S11304502000084B984701A8074B98470020DEE787
S1130460E80700007D0400008504000091020000FC
S1130470750200002907000083020000002800D153
S113048000BE70470368002B03D08B4203D01B6867
S1130490F9E7002070470120FCE7000070B5040074
S11304A00D00064B984701235840C0B23922044935
S11304B0044B984723682B60256070BD85040000B9
S11304C0000800007D04000003680B6001607047B1
S11304D00368002B03D01A680260180070470020DC
S11304E0FCE7000043B2002B07DB1F2318401E3B30
S11304F083408022520001498B50704700E100E0A4
S113050010B5064B5A685A60054B9847054B9847F7
S1130510054B9847FF20054B984710BD004000410C
S11305205105000071050000B5050000310500000B
S1130530C3070AD5054B802252009A6083225202D7
S11305405A60024B5B78DB09FBD17047000C00401A
S1130550064B1A7AD2B21A725A7AD2B25A729A7A6A
S1130560D2B29A72DA7AD2B2DA72704700040040D8
S11305700E4A116A090C136A9B0F9B0709040C4865
S113058001400B4302210B43136293690B439361B4
S1130590137F1D310B401377044BDB681B07FBD51E
S11305A0024A136A80210B4313627047000800401B
S11305B00000FF0F024A936902218B439361704745
S11305C000080040034B984200D07047024B19606A
S11305D0FBE7C046002000424400002010B5C36879
S11305E0DA6AD20700D410BD0122DA6203689847A0
S11305F0F9E7000010B50023002B01D0002010BD46
S11306009A00D218D100054A8A58824202D0013396
S1130610DBB2F1E701484018F1E7C04600000020D2
S113062070B506000C000800324B9847051E5BD0DD
S1130630F460A368DB0714D4A3689B07FCD1236888
S11306409B0709D52368022293432360A3689B0771
S1130650FCD1A3689B07FCD401232360A3689B07F8
S1130660FCD1A368DB07FCD4AB682360A3689B07B9
S1130670FCD12B7B63716B7BA3772B6923626B6A41
S11306802364A3681B06FCD40123A3623100200069
S1130690194B98470423EB56002B0BDB1F22134006
S11306A01E3A9A401300802214498B50BFF34F8F97
S11306B0BFF36F8F0423EB56002B08DB1F2213407C
S11306C01E3A9A401300C02252000C498B50042356
S11306D0EB56002B0BDB1F2213401E3A9A401300EB
S11306E0064A1360002070BD0A204042FBE7002048
S11306F0F9E7C046F5050000C505000000E100E08B
S1130700C268136802210B43136093689B07FCD1F2
S11307107047C26893689B07FCD113685B0801208B
S1130720184070470020704710B5C068034B9847C5
S1130730002802D00079024B984710BDF50500004F
S1130740E504000010B5024B1868024B984710BD31
S113075044000020DD05000080221203C023DB05D5
S1130760DA61704710B5084B9847084901238B603C
S1130770074ACA600B74074C2000074B98472000B7
S1130780064B9847FEE7C0461501000064000020B0
S11307905907000048000020CD0300009103000029
S11307A070B500260C4D0D4C641BA410A64209D153
S11307B0002600F035F80A4D0A4C641BA410A6422A
S11307C005D170BDB300EB5898470136EEE7B3008E
S11307D0EB5898470136F2E72C0800002C0800007B
S11307E02C080000300800002E2E2F68616C2F7337
S11307F072632F68616C5F74696D65722E630000AB
S11308002E2E2F68616C2F7574696C732F7372634D
S11308102F7574696C735F6C6973742E63000000C8
S1130820F8B5C046F8BC08BC9E467047DD00000021
S1130830F8B5C046F8BC08BC9E467047B500000039
S1130840002000420F000000000000000000000033
S11308500000000000000000000000000000000094
S10B0860000000000800000084
S9030000FC
