:1000000068240020250100002101000021010000DA
:1000100000000000000000000000000000000000E0
:1000200000000000000000000000000021010000AE
:10003000000000000000000021010000210100007C
:100040002101000021010000210100002101000028
:10005000D10B0000210100002101000089200000D7
:100060002101000021010000210100002101000008
:1000700021010000210100002101000021010000F8
:1000800021010000210100002101000021010000E8
:10009000210100000000000000000000210100001C
:1000A00021010000210100002101000021010000C8
:1000B0000000000010B5064C2378002B07D1054B3B
:1000C000002B02D0044800E000BF0123237010BDC4
:1000D000680000200000000038320000084B10B516
:1000E000002B03D00749084800E000BF0748036819
:1000F000002B00D110BD064B002BFBD09847F9E731
:10010000000000006C00002038320000383200008F
:100110000000000010B5014B984710BDD903000046
:10012000FEE70000F8B5234A234B9A4209D0224B40
:10013000204A03E011681960043304321F498B42DE
:10014000F8D31F4B02E000221A6004331D4A934289
:10015000F9D31D4AFF211D4B8B439360FD3990233A
:100160005B001B4AD1501B4AD3780325AB430224C2
:100170002343D370D3780C27BB4308263343D37073
:10018000154B987B30229043202210439873997B23
:10019000B943314399739A7BAA4322439A730F4A16
:1001A000516880230B4353600D4B98470D4B984784
:1001B000FEE7C04638320000000000206800002042
:1001C000680000206804002000ED00E0000000004E
:1001D00000700041005000410048004100400041D3
:1001E000CD30000095200000F8B5DE4657464E465B
:1001F0004546E0B53A4A3B4B5A80C027FF05842369
:100200009A467C3B5246BB50374B24329046374A85
:1002100041465A50364E42465E50C325595DA43A77
:1002200091435955595D0124A14301200143C9B2AD
:100230005955B1218946595CB43DAB4629404D46DC
:100240005955402179602B4999629E624621894621
:10025000595C91434D465955595DA1430143C9B27B
:10026000595533218946595C5D46A9434D46595538
:1002700080218900554679511F49454659514146CB
:100280005E5121318846595C914345465955595D27
:10029000A1430143C9B25955B4218846595C5D4612
:1002A0002940454659558021C90079601349996212
:1002B0009E624A215E5C96435E545A5CA2430243AE
:1002C000D2B25A5415395A5C584682435A540C4B90
:1002D00098473CBC90469946A246AB46F8BDC046FE
:1002E00005400000000C00400044004108000240AE
:1002F000000002C040000240000202400004024030
:10030000A1040000F0B5C64600B5C024E405802273
:100310005204A2601C4B8027FF059F621B49996213
:1003200062615820195C0422904691431954195C6B
:100330000126B14301252943C9B219541C38195C5F
:100340000B3291430622944662461143C9B21954B6
:1003500080218904A1609F620D4F9F6261615921D4
:100360005C5C424694435C545A5CB2432A43D2B22A
:100370005A541A5C4A390A4060210A43D2B21A54CC
:1003800004BC9046F0BDC04600440041000100C0DE
:10039000000200C0064BDA6920210A43DA615A697B
:1003A00020310A435A61034A034B5A807047C046C2
:1003B0000004004006400000000C004010B5034B54
:1003C0009847034B9847034B984710BD950300008F
:1003D000210700000503000010B50C4B9847C0230F
:1003E000DB05802252025A619A60094B8022D205B5
:1003F0009A62084A9A6250215A5C012082435A54F8
:10040000054B9847054B984710BDC046010B0000AF
:1004100000440041010000C0E9010000BD030000EC
:10042000EFF31083036072B6BFF35F8F7047BFF3C3
:100430005F8F036883F310887047000010B5044B8A
:100440001C68044B984701002000034B984710BDDF
:1004500084000020DD0A0000F90A000070B50425C0
:10046000002407E00D4AB358002B00D0984770BD18
:10047000013AD5B2AC42FAD82B195B10DAB2032A92
:10048000F5D8FF210B40DE000449891949688142F3
:10049000E8D0EDD20132D4B2ECE7C04688000020AB
:1004A00010B5002309E0084AD9005018012464421D
:1004B00044600020885001339BB2032BF3D90348DA
:1004C000034B984710BDC046880000205D04000023
:1004D000350B000010B50100002001E0013040B2F2
:1004E00003280FDC4201094B9B185A788A420BD033
:1004F0004301064C1B5D002BF0D10F330B409342A0
:10050000ECD101E00120404210BDC046A80000200F
:100510000020704770B504000D00084B9847420159
:10052000074B9B189B78032B01D0002070BD044B18
:1005300098188369290020009847F7E7D504000040
:10054000A8000020F0B587B005000F0001924A4BCB
:10055000984704004601494A9619002F51D11300CB
:1005600042010020F070D35C002B0ED06201434B9F
:100570009B1801229A706401404B1C19E369E178D1
:10058000019A2800984707B0F0BDB3780C2434577F
:10059000032B08D032000C3270780021F3699847A1
:1005A0000223B370EFE7707832000C320121F36957
:1005B0009847002810D00523B370033BF370002C3C
:1005C00008DB7378802040421843C0B201212C4BD5
:1005D0009847D8E77078F9E70423B3707178002260
:1005E00003920492002C09DB843B0B43DAB203A88C
:1005F000027201234372234B9847C4E70F220A403B
:10060000F5E7012F0AD0022F1DD0032F2CD0420175
:100610001A4B9B1806229A70DA70ACE7174B42010E
:1006200099180220C870D35C002B05D06201134BCF
:100630009B1805229A709EE702228A7000212800EA
:100640000F4B984797E70D4B420199180420C8704B
:10065000D35C002B05D06201084B9B1801229A70D5
:1006600089E702238B708EE74201044B9B1800221E
:100670009A700532DA707EE7D5040000A8000020E9
:100680008D1C00005D1E0000F0B5C64600B50500DB
:100690001F4B98470600430108331E4CE4180434EE
:1006A000210028001C4B9847C0B208280CD001211B
:1006B00028001A4CA047802040422843C0B20121A4
:1006C000A04704BC9046F0BD00212800134B98467B
:1006D000984780277F422F43FFB200213800C04750
:1006E00072010C4B9B1801229A705B692100280053
:1006F00098470028E5D17601064B9E190523B37073
:1007000001212800054CA04701213800A047D8E767
:10071000D5040000A8000020E51D00008D1C00008D
:1007200010B5124B984700281EDB8022002110488C
:10073000104B984700220AE051010D4B5B18FF2136
:1007400059700D4959619961D9610132D2B2032AB8
:10075000F2D90A4900200A4CA0470A490120A047C3
:1007600009490220A047002010BDC04665160000C0
:10077000A8000020273100001105000089060000B4
:1007800059200000150500004505000010B5014B7B
:10079000984710BD3520000010B5014B984710BD9B
:1007A0000917000010B5014B984710BD59170000FC
:1007B00010B5014B984710BD69170000F8B505004A
:1007C0000E0017000F4B9847002814DAFF200D4B3E
:1007D0009847041E12DB3A00310028000A4B984764
:1007E000002807DB094A640113195D7003231E40CA
:1007F000A6540020F8BD14204042FBE715204042DB
:10080000F8E7C046D50400007D170000A8000020CE
:1008100010B582B200210020014B984710BDC046A0
:10082000BD07000070B50500064B9847041E07DBA6
:100830002800054B98476401044B1C19FF23637083
:1008400070BDC046D5040000C9180000A8000020F3
:1008500070B505000F4B9847041E17DB43010E4A85
:100860009B5C002B0AD1022162010B4B9B189970F3
:1008700028000A4B9847002802DB70BD0121F3E7EE
:100880006401054B1C190023A370F6E712204042B7
:10089000F3E7C046D5040000A80000208D19000031
:1008A000F0B5D6464F464646C0B586B00500067A36
:1008B00030003F4B98470700F6096B7A5A1E934168
:1008C000DCB26B68984600286BDB04A8394B98476C
:1008D0007A01394B9B189A7817236B441A701B784E
:1008E000012B0ED004A8354B984717236B441B7877
:1008F000DBB2052B2BD0062B56D0002B29D00120A4
:100900001FE02D4B99467B019A464B4653440322E8
:100910009A7004A8294B98474B465246D35C002B4B
:100920001AD0297A2B68019343460293002E35D0C2
:10093000802252420A43D2B201A802724472204B72
:10094000984706B01CBC90469946A246F0BD0220CE
:10095000F7E713204042F4E77B01174AD218937C53
:10096000D47C24021B199BB2002B06D10423937064
:100970000023984601240126D3E77F010E4AD719A8
:100980000C22BA56D60F984500D99846002A01DBAA
:100990000024C6E798459B415C42C2E70F220A400B
:1009A000CAE712204042CCE710204042C9E7C046C7
:1009B000D504000021040000A80000202F0400003E
:1009C0005D1E000070B50400002905D0012924D067
:1009D0000221134B984770BD124B9847051E19DB37
:1009E000022120000E4B98470028F4D0002120005F
:1009F0000B4B98470028EEDB6D010B4B5D19012373
:100A0000AB700233EB70EB690022032120009847A2
:100A10000020E0E712204042DDE7014B9847DAE78B
:100A20008D1C0000D5040000A800002070B50D004A
:100A300014000F4B98470300002C08D0002B05DB57
:100A4000012D0BD0002D04D0022D0CD070BD094C0F
:100A5000F4E74001084B18184461F7E74001064BE2
:100A600018188461F2E74001034B1818C461EDE7E0
:100A7000D504000011050000A8000020002800D1C6
:100A800000BE70470368002B03D08B4203D01B6865
:100A9000F9E7002070470120FCE7000070B5050071
:100AA0000E0004680A4B984701235840C0B24F22F9
:100AB0000849094B98472B68002B03D12E603360FF
:100AC00005E01C002368002BFBD12660336070BD5D
:100AD000850A0000443100007D0A000010B50301C2
:100AE0001B1A580102300321024B984764235843D4
:100AF00010BDC046612F00000139FDD870470000CD
:100B000010B5074A536802210B435360054B9847C1
:100B1000054B9847054B9847FF20054B984710BD5C
:100B200000400041CD0C0000ED0C0000190D00004C
:100B30008D0C0000224B5B78DB09FBD1204B5B78EE
:100B4000DB09FBD11E4B1B789B070AD500221C4BEF
:100B50001A701B4B5B78DB09FBD1194B5B78DB0907
:100B6000FBD10122164B1A70154B5B78DB09FBD1C8
:100B7000134B5B78DB09FBD1114B00229A705A6052
:100B80005A61104A9A6188229200DA611A78022129
:100B90000A43D2B21A700A4B5B78DB09FBD10A4BCD
:100BA000102280215A50BFF34F8FBFF36F8F013156
:100BB000FF315A501A60054B186000207047C0463C
:100BC000001800400020000200E100E028010020A1
:100BD000F0B583B0274B1A69D9680A400192019A8F
:100BE0001A61254B1868431E9841C0B2D22223498E
:100BF000234B984701256D4231E0DB00214AD31891
:100C00005D686B1C03D01C4B1B68280098470122B1
:100C1000A240019B9343019301981B4B98470138D5
:100C200044B2631C14D00426002001E00139CEB286
:100C3000B042E6D833185B10D9B2FF221340DF0070
:100C4000104ABA5CA242D8D0F0DA0131C8B2EFE75C
:100C5000084B1A69D9680A400192019A1A61019BEE
:100C6000002B05D00198084B9847013844B2D8E7CB
:100C700003B0F0BD001800402801002084310000BE
:100C80007D0A00006431000079300000C30709D5F7
:100C90000B4B802252009A600A4A5A60084B5B78DC
:100CA000DB09FBD1030709D5054B0422FF329A600B
:100CB000054A5A60024B5B78DB09FBD17047C0469E
:100CC000000C00400007210003042100064B1A7AA3
:100CD000D2B21A725A7AD2B25A729A7AD2B29A723C
:100CE000DA7AD2B2DA72704700040040094A936996
:100CF0001B0C1B04FE21C9030B4046210B439361CF
:100D0000137F27390B401377024BDB685B07FBD55A
:100D10007047C046000800400222154B9A84144BCD
:100D2000DB68DB06FBD5134A114BDA62124B1B68FA
:100D30009B0E3F2B14D09B028022920013430C4A3F
:100D40009362B1235B009384938C5B070BD5084BB4
:100D5000DB68DB06FBD5094B5B78DB09FBD1704711
:100D6000FC23DB01EBE7024BDB68DB06FBD5F2E79C
:100D7000000800400000010424608000000C0040D6
:100D800000207047124B1A68530B1F210B40900C28
:100D90000140D00D072202401F2B12D01F2912D074
:100DA000072A12D09B010B4312031343094A1385F0
:100DB000D37803210B43D370D3780C210B43D3702A
:100DC00070471A3BEAE70239EAE7023AEAE7C04627
:100DD000246080000050004170B5837C0F221340D6
:100DE000C17C083A0A40012A0DD01A00083252018B
:100DF00019498C4662441021D1715B01174A94460F
:100E00006344197070BD4A060CD5C27C40218A43E8
:100E1000C2741A00083252010F4CA4466244802466
:100E200014715171C27C08218A43C2740C495A0161
:100E30008C180025A572A57608335B01064CA446E4
:100E400063446F24DC71054B9C46624414708B6EC6
:100E5000807C9847D6E7C0460050004108510041C9
:100E60002C01002010B5827C0F23134020228A40E1
:100E7000D2B25B0105498C4663441A70044B1B6F68
:100E80008268807C0121984710BDC046085100410E
:100E90002C01002010B5837CFF2B02D0C27C5206AF
:100EA00000D410BDC27C4024A243C274024A146F15
:100EB00082681800A047F4E72C010020F0B583B049
:100EC000847C0F232340184D2E8801AD2E80FF2CEB
:100ED0001ED0C47C64061BD500291BD01C0008341E
:100EE0006401124DAC4664448025257101AD6E5CF1
:100EF0001C00083464010D4FBC466444E671695C13
:100F00005B010B4CA446634419701100094B9847D0
:100F100003B0F0BD1C0008346401044DAC466444C9
:100F200040256571E2E7C0469C3100000050004159
:100F300008510041950E0000F0B583B0837C0F226C
:100F400013403C4A948801AA14805A013A4CA418D0
:100F5000002933D01A0008325201384D525D12096F
:100F600007251540C27C072616400A01A218947A6C
:100F7000E4B2022D2AD0A40744D5947A0225AC43CA
:100F8000947201AC655C1A00083252012B4FBC46CA
:100F90006244D571625C5B01294CA44663441A70BB
:100FA000012E45D1C37C5B0642D5C37CDB09994247
:100FB0003ED000221900234B984739E01A0008322E
:100FC00052011E4D555D07221540CBE7E507D2D5EE
:100FD000947A0125AC43947201AC655C1A00083226
:100FE0005201164EB4466244D571625C5B01144CEA
:100FF000A44663441A704B1E9941C9B20422114B96
:10100000984715E05A00521812010B488218002028
:10101000907201A8445C1A0008325201074DAC4698
:101020006244D471425C5B0105498C4663441A708A
:1010300003B0F0BD9C3100002C01002000500041A5
:1010400008510041BD0E000070B5002518E0104C9D
:101050006034AE007319980010302018043003215A
:101060000C4B984772199300E3182633FF221A702D
:101070007619B300E4182734002323700135EDB24C
:10108000082DE4D9602200210148034B984770BD28
:101090002C010020950E000027310000F0B5C64657
:1010A00000B505000E00837C0F241C406201564BE6
:1010B0009B18002958D059698904890C2B8A534AF6
:1010C000934253D0013B1BB20B40EA7C07271740E9
:1010D000002E07D02200083252014D488446624457
:1010E0000220D071AA6894466144A9606A6891425E
:1010F0004ED292B28BB2D21A92B2EB7C9B0637D50B
:101100002B8A98469A4200D890462B689C466144A8
:101110004246E8683F4B9847E96862013A4B9B18A2
:1011200019616301384AD218516943469B049B0CEC
:10113000890B89030B4353615169374B0B40536152
:10114000002E07D1012F5DD04A22630133498C461E
:1011500063441A70083464012D4B9C466444802318
:10116000637104BC9046F0BD0021A7E71BB2ABE75A
:1011700080239B019A4207D890462B685918620138
:10118000214B9B181961CCE780239B019846F4E71B
:10119000EA7CD2060FD5EB7C10229343EB746201FC
:1011A000194B9B185A69920B9103596159691A4A54
:1011B0000A405A61C4E7012F0DD06401184A9446D1
:1011C00064444A2222702A8A93420BD000212800CC
:1011D000144B9847C5E76401114A944664444B2276
:1011E0002270F0E7EB7C40229343EB74064BDB6EFE
:1011F000A87CA96898470028B3D1EB7C4022134310
:10120000EB74E3E74E22A0E72C010020FF0300006F
:101210000050004115310000FF3F00F0095100412E
:1012200008510041950E0000F8B5DE4657464E467F
:101230004546E0B504000F00837C0F251D400029C2
:1012400059D06A01714B9B185B681B019B0C9A4635
:10125000002F53D06A016D4B9B185B689B049B0C5D
:101260009846268A6A4B9E4201D0013EB6B243465A
:1012700033409B46E37C07221A409146002F07D05B
:101280002B0008335B01634A944663440122DA7100
:10129000E37C9B0611D56268002A0ED092B22389A6
:1012A000D21A92B22368A1688C4663441800E168A0
:1012B000934500D25A46584B98476368002B20D17B
:1012C000E27CD2061DD5E37C1022934320221343F7
:1012D000E3744E496A01E3685350238A8A185168BF
:1012E0009B041B094D4801400B43536053689B0B03
:1012F0009903516047E000239A46A9E700239846E6
:10130000AFE7002F1DD0228A93451AD2E37C10222A
:101310009343E374A3684344A3604B46012B66D018
:101320006B013F4A9446634425221A70002D03D175
:101330006D01364BE268EA5000212000394B984796
:1013400033E0A2685244A2609342E6D99BB291B2C4
:101350005B1A9BB2E17C89062DD5218A8B4200D88D
:101360001900E0686B01294A98506B012748C018A2
:1013700042688B041B0929490A40134343604368B0
:101380009B0B9A034260002F08D14B46012B35D0AE
:1013900025226B0124498C4663441A7008356D017F
:1013A0001C4B9C46654440232B713CBC904699469F
:1013B000A246AB46F8BD218A8B420BD98021890118
:1013C0008B420FD8B343190023689A186B010F485A
:1013D0001A50CAE78B4208D2E17C20200143E17415
:1013E0001900F1E780218901EEE71900ECE76B01B4
:1013F0000B4A944663442D221A7097E76A01034B07
:101400009B1800229A762D32C3E7C0462C0100209B
:10141000FF0300000050004115310000FF3F00F0C5
:1014200008510041950E00000951004170B5824BF2
:101430001D8CADB2002D01D00024B1E0998B1B8B27
:101440000B405A070CD49A0514D41A0636D47022CD
:101450001A423DD11A0749D4DB075BD4002306E0CA
:101460000422754B9A83754B1B6E98470123002B02
:10147000E2D070BD704B724A9A839A82923AFF3AD8
:101480001A830023012B12D858016C4A12181289B2
:101490001207120F032A02D00133DBB2F2E7674BC7
:1014A0001B1819894904490D00221A8100E0002106
:1014B000624B5B6E032098470123D8E780225E4B86
:1014C0009A835E4B5B6E0021052098470123CEE78F
:1014D000594B9A839A825A4A1A835A4B9B8C574B80
:1014E0005B6E0021022098470123C0E7524B002188
:1014F000802252009954F83A9A8368329A82504A6C
:101500001A83514B98474D4B5B6E00210120984741
:101510000123ACE7484B4A4A9A839A82923AFF3AAF
:101520001A83464B5B6E00210420984701239EE7F7
:10153000DA0607D45A0608D49B062FD50021434B60
:1015400098472BE0424B984728E001213F4B9847B2
:1015500024E05A060FD41A0711D49A0713D4C17C79
:1015600007220A40012A19D15A0710D4DB0615D5E3
:10157000374B984712E00121344B98470EE0012188
:10158000344B98470AE00121334B984706E000218D
:10159000304B984702E000212C4B98470134E4B2CD
:1015A000082C00D965E7254B6033A200111988008B
:1015B00001001030181804305B1826331B78FF2BFD
:1015C000ECD0827C0F23134001229A402A42E5D0BE
:1015D0001A000832520118498C466244D2795B01E4
:1015E0001E498C4663441B781340D7D0C27C4721E8
:1015F000114001299CD052B2002AAADB9A06CAD413
:101600005A070DD4DA070FD4C17C07220A40012AF9
:10161000C4D11A070CD4DB06C0D50D4B9847BDE7E3
:1016200000210C4B9847B9E701210D4B9847B5E7CE
:101630000121084B9847B1E7005000412C010020E0
:10164000010200000008004049100000650E000083
:10165000D90D0000390F00009D1000000951004114
:101660002912000000B583B0002201AB5A70214B53
:101670009B78DB071BD41F4B9B789B07FBD11D4B33
:101680001B789B070CD51B4A137802218B431370E0
:10169000184B9B789B07FBD1164B9B789B07FBD481
:1016A0000122144B1A70134B9B789B07FBD1114BF3
:1016B0009B78DB07FBD4104B104A1A665A669A6671
:1016C000DA661A670E4B98470E4B98470422094B6F
:1016D0001A70084B9B789B07FBD1064A064B536256
:1016E00001AB5B7801210B43DBB21381002003B017
:1016F00000BDC046005000412C010020810D0000BB
:1017000049100000850D0000104B9B789B0719D1F4
:101710000E4B9B789B07FBD10C4B1B78DBB29A07D7
:1017200008D402221343DBB2084A1370074B9B789C
:101730009B07FBD18022064B1A60064A034B1A8393
:101740000020704711204042FBE7C0460050004196
:1017500000E100E08D020000024A138901218B4361
:10176000138170470050004180235B421843C0B290
:10177000014B98727047C04600500041F0B5C64614
:1017800000B50F23034044B2A446002B05D0002C23
:1017900001DB1C0002E09C1C00E01C00260003256D
:1017A00029401F00022B00D97AE0A5002D19AC00BA
:1017B000A046434C6034444426342478FF2C00D0A7
:1017C00071E0002918D1002B04D06446002C01DB05
:1017D0000233DBB29C00E3189D00394B60335B1988
:1017E00026331B78FF2B61D17B00DB199C00354B26
:1017F0001B199B68002B5CD06346002B37DB7B00FA
:10180000DB199C002F4B1B199B685C1EA341DBB2AC
:10181000002B0AD06346002B33DB7B00DB199C00D6
:10182000284B1B191B8A934246DB6346002B2FDB98
:101830007B00DF19BC00234B1B199B689C46204B87
:10184000B500AF19BC001C198034674627606033AF
:10185000AF19BC0027001C19A28401312734217064
:10186000DB1926331870002004BC9046F0BD7B00C5
:10187000DB199C00134B1B19DB685C1EA341DBB218
:10188000C6E77B00DB199C000E4B1B195B8ACAE77D
:101890007B00DF19BC000B4B1B19DB689C46CEE7B5
:1018A00012204042E0E714204042DDE7142040428D
:1018B000DAE713204042D7E713204042D4E7C0467E
:1018C0002C0100209C310000F8B504000F250540D4
:1018D00047B2FB0F9C46002D05D0002F01DB2A00EC
:1018E00002E0AA1C00E02A00160093009B18990051
:1018F00010312348603040180430022D30D8930056
:101900009A1891001E4B60335B1826331B78FF2B0F
:1019100026D0032261461B4B9847B20092199100D2
:10192000174B5B188033DA7907231340012B18D04B
:10193000002F1CDB144A08346401A35C07218B438D
:10194000A3540F4B6033B100881982009A182732D4
:10195000002010708E19B2009B182633FF221A70D7
:10196000F8BD083464010022074BE254E9E7064A57
:1019700008356D01AB5C70218B43AB54E1E7C04689
:101980002C010020BD0E000000500041F0B50F23D7
:10199000034040B2002B05D0002801DB1E0002E00E
:1019A0009E1C00E01E0034001A0008325201B249A9
:1019B000555CEDB2022B00D94FE1B10089198E00C0
:1019C000AE4A6032921926321278FF2A00D147E1DE
:1019D000AA4A5E019619A10009198F00D219803216
:1019E000D17907220A40012A37D0002800DACBE05B
:1019F0006A0700D03DE1A14AA0000719B9005118BB
:101A00008031C9794907490F0D431900083149014F
:101A1000994FCD5560320419A1005218908C820361
:101A200097490A4080218900884200D9F8E00139AD
:101A3000FF39884200D906E1802800D905E1402815
:101A400000D904E1202800D903E1102800D902E1DF
:101A5000F839814289414942E3E076322A4200D096
:101A600001E11A0008325201112083495054834A7F
:101A70006032D219928C910381480140802080000D
:101A8000824210D80138FF38824227D8802A27D8CE
:101A9000402A27D8202A27D8102A27D8F838904259
:101AA0008041404200E0072000070143716091043B
:101AB000890C8020800082421AD80138FF38824287
:101AC00058D8802A58D8402A58D8202A58D8102ABE
:101AD00058D8F8389042924152420AE00620E3E793
:101AE0000520E1E70420DFE70320DDE70220DBE754
:101AF000072212070A4372611A00083252015E4936
:101B00008C46624440205071802111715B4A5B0118
:101B1000D31800219972997616006036A1000D192C
:101B2000AB00F31826331B780F252B400F19BD008F
:101B3000551980352F685D01AF500C19A10076183A
:101B4000B18C52195468890409094E4E344021431E
:101B500051605168890B8C03546008335B01634406
:101B6000B0221A715871484B9C46654410232B7063
:101B7000002067E00622BCE70522BAE70422B8E7A6
:101B80000322B6E70222B4E770222A4200D06DE0B9
:101B90003A49A0000719BA008A188032D279520750
:101BA000520E15431A0008325201334FD555603199
:101BB0000419A2008918898C8A04920C8020800064
:101BC000814210D80138FF3881421FD880291FD8A0
:101BD00040291FD820291FD810291FD8F83888423B
:101BE0008941494200E0072109070A4372611A004E
:101BF0000832520120498C466244802111715A01F9
:101C00001E4B9B1800229A7600201BE00621EBE772
:101C10000521E9E70421E7E70321E5E70221E3E7FE
:101C2000072109070A4372601A000832520112495B
:101C30008C466244402151715B01104AD318002246
:101C40009A720020F0BD0621EBE70521E9E70421A7
:101C5000E7E70321E5E70221E3E712204042F1E74D
:101C600012204042EEE714204042EBE714204042AD
:101C7000E8E714204042E5E7005000412C01002035
:101C800000C0FF0FFF3F00F009510041F0B50F22E7
:101C9000024040B2C40F002A05D0002801DB130027
:101CA00002E0931C00E013001D009800C0188300A0
:101CB00010331800474B60331B180433022A00D935
:101CC00084E0012918D000293DD0AA0052199100C2
:101CD000404B60335B1826331A780F2313400833C8
:101CE0005B013D4A9446634498791023A340184011
:101CF000431E9841C0B2F0BD364803006033AA00CD
:101D00005619B1005B1826331B780F210B401026A3
:101D1000A640F6B21900083149012F4FBC46614474
:101D20004E712021A140CCB259012C4B9C466144FC
:101D30000C7052199300C3188033DA7908210A43D2
:101D4000DA710020D7E79A7C0F310A401100083180
:101D5000490121488446614488791021A140084204
:101D600024D0C9B210000830400160440171202124
:101D7000A140CEB255011A4FBC4665442E70C079C1
:101D800008420AD0110008314901134884466144D1
:101D9000CE710120A040C0B20871D87C072101405B
:101DA000012905D0DA7C08218A43DA740020A2E7F1
:101DB0000832520108498C4662449179302211421E
:101DC000F4D1020008218A43DA74EFE7122040427E
:101DD00091E7C0462C01002000500041095100410C
:101DE0000851004170B50E000F2404406201184BE9
:101DF0009B1819685D68AD04AD0C022C1FD8002E2D
:101E000020D0230008335B01124A9B5C112B1CD1AC
:101E1000230008335B0194466344DB79DB0601D47D
:101E2000002070BD082230000B4B98470834640135
:101E3000084B9C4664441023E3712800F1E712200C
:101E40004042EEE712204042EBE713204042E8E731
:101E50002C0100200050004115310000F0B5DE4695
:101E600057464E464546E0B585B08046057A0F2276
:101E70002A406DB2EB0F9946002A05D0002D01DBF8
:101E8000100002E0901C00E010000600614B60337F
:101E900081000F18BC0010341C190434B8001B1842
:101EA0009B8C5D498B4244D05F1EBFB2414649685E
:101EB0000F40022A00D9A3E04246126857488242E6
:101EC0000CD988180190564884460198604505D879
:101ED000920703D1002D2EDB99422FD2B200921926
:101EE00091004C4B5B1880331B68002B00D18AE0BB
:101EF00001230193002D0BDB002F09D0B2009219B2
:101F00009100444B5B1880331B68002B00D17DE0AF
:101F1000B200921991003F4B5B188033DB791B07AD
:101F20000FD5022005B03CBC90469946A246AB4670
:101F3000F0BD1F00BAE700230193DBE70023019304
:101F4000D8E703A8374B9847B20092199100314B5C
:101F50005B188033DB795B0630D4B3009B199A00A1
:101F60002C4B9B46934480235B449A46DB7940226A
:101F700013435246D37103A82B4B98475B46424606
:101F800012685A67424652689A6700235A46D367D6
:101F90004B46DB015246D2797F211140019A520112
:101FA0000B4320218B431A435346DA7143465B7A35
:101FB000002B08D0002F1BD0002205E003A81A4BED
:101FC00098470120AEE70022B3009E19B100114BE3
:101FD0005B1880331101DA79102082430A43DA71E9
:101FE000002D07DB00212000104B9847002099E7C7
:101FF0000122E9E7002120000D4B9847002091E7DE
:10200000122040428EE7132040428BE712204042CC
:1020100088E7C0462C010020FF030000FFFFFF1FE0
:10202000FF7F0020210400002F040000291200007F
:102030009D100000002906D0012806D0002801D1FB
:10204000034B196670470349F6E7014B5966F9E7F8
:102050002C010020810D0000002908D0002808D0A4
:10206000012809D0022806D1054B196703E005496C
:10207000F4E7034B99667047014BD966FBE7C0460E
:102080002C010020810D000010B5014B984710BDB8
:102090002D14000010B5084B9847084B9847084886
:1020A000084B984780225202C023DB05DA61FA20F0
:1020B0004000054B9847F2E715010000C12E0000D3
:1020C000C8310000452F00003D04000010B58B7999
:1020D000CC7924021C43012A0AD04B78212B09D148
:1020E000072C0AD1002322000549064CA04710BD49
:1020F0000020FCE70D204042F9E701204042F6E7CE
:102100001403002001270000F0B583B005000F0084
:1021100014008E79CB791B021E43234B98477B78A2
:10212000202B05D0222B26D00D20404203B0F0BD3D
:10213000072E31D1002C17D00722010068461B4B17
:1021400098471B4B9B68002B03D068469847002894
:1021500025D0174B009A1A606A4692889A806A4680
:1021600092799A710020E1E70023320001002800F3
:10217000104CA047DAE700230022002100200D4C7C
:10218000A0470B4BDB68002B0BD0BA78F878000225
:10219000104398470020C9E701204042C6E70020CD
:1021A000C4E70020C2E7C0468D2C000015310000B6
:1021B000140300200127000070B50C786509032383
:1021C0002B40012B14D10D794B791B022B430B4D66
:1021D0002D7CAB4203D0094D6D7CAB420BD164B278
:1021E000002C02DB064B984770BD064B9847FBE777
:1021F0000A204042F8E70A204042F5E71403002095
:1022000009210000CD200000F8B5CE46474680B534
:102210000E0087680868002398464346012B45D87E
:1022200000284BD083784279022A01D00A2A48D16B
:10223000C1464246BA5C934246D0FF2A47D1424645
:10224000BB5405227168254B984704000CE04B46AF
:10225000FB189D702800224B984734602078201886
:102260007168204B98470400002C13D0A578E178C2
:10227000227963791B02D21892B228001A4B984730
:10228000002827D16BB2002BE1DB3D712800144BF5
:102290009847E2E730680378C018042271680F4B52
:1022A000984743460133DBB29846B6E701220F4B0D
:1022B0005A7500200CBC90469946F8BD0A20404251
:1022C000F8E70A204042F5E712204042F2E71C20DE
:1022D0004042EFE714204042ECE7C046A92C000042
:1022E00051080000C72C0000BD07000014030020A7
:1022F00070B5856800291AD00B685B79022B18D05D
:102300000A2B24D1002401E00134E4B2012C12D8BC
:102310002B5DFF2BF8D0FF232B552B199878FF2826
:10232000F2D00C4B98472E19FF22B270ECE7002434
:10233000ECE70024EAE72879FF2803D0054B98470B
:10234000FF232B710022044B5A75002070BD0A2018
:102350004042FBE7250800001403002010B50129C6
:102360000AD0002904D002290AD11B20404210BD06
:102370001100054B9847FAE71100044B9847F6E720
:102380000D204042F3E7C04609220000F122000080
:1023900010B50B4B984701280ED80A480A4BC36169
:1023A0000300103303621830084B98470849012096
:1023B000084B9847002010BD11204042FBE7C04663
:1023C000992C0000140300205D230000312C000034
:1023D00000000020992B000010B5012810D0002823
:1023E00006D0022814D0032816D00D20404206E063
:1023F0000B4B187D0A0002210A4B9847002010BDA4
:10240000074BD87C0A000221064B98470020F6E7CC
:10241000034B99600020F2E7014BD9600020EEE702
:10242000140300202D0A0000014B587D7047C04660
:102430001403002070B504000D00074B98470028D6
:1024400007D0064B187D00232A002100044CA0472A
:1024500070BD11204042FBE7292400001403002036
:102460000127000070B504000D00074B98470028B5
:1024700007D0064BD87C01232A002100044CA0473A
:1024800070BD11204042FBE7292400001403002006
:102490000127000010B5064B1C6905E00022012150
:1024A0002000636898472468002CF7D110BDC0460F
:1024B0003803002010B5064B5C6800E02468002C4F
:1024C00004D06368002BF9D09847F7E710BDC046E9
:1024D0003803002070B506000D00074BDC6800E0F3
:1024E0002468002C06D06368002BF9D02900300046
:1024F0009847F5E770BDC04638030020F8B50700DF
:102500000E0015000B4B9C6800E02468002C0DD0D9
:102510006368002BF9D02A00310038009847002862
:1025200006D00A30F1D00120404200E00020F8BD82
:102530000120FCE73803002010B5014B984710BD7F
:10254000B524000010B5010001220020014B98477E
:10255000002010BDFD24000010B5014B984710BDB0
:10256000B107000010B504000378002B12D14378A6
:10257000052B12D0092B0DD18278104BDA76827898
:10258000C3781B02134306D103210C4B997601201B
:102590000B4B984710BD0421F7E78078094B98470B
:1025A000A278E3781B02134306D00321034B9976EC
:1025B0000120034B9847EDE70221F7E7380300209D
:1025C000D52400005925000010B5002903D00129A9
:1025D00006D0002003E01000034B9847002010BDF8
:1025E0001000024B9847FAE76525000045250000DA
:1025F00030B583B0021E14D01E4B1B681868596892
:102600001D4B9847002832D08178C3781B02C91827
:1026100089B2411801910422184B98470090FF2479
:102620000DE0174B984701201FE02C00009803781D
:10263000C018009004220199104B98470090009B0D
:10264000002B11D09D78AC42F0D00A4B1C69002CB5
:10265000EBD06A460021200063689847002801D02B
:102660002468F4E72C00E1E7012003B030BD00202E
:10267000FBE7C04638030020ED2C0000A92C000029
:102680009524000010B50D4B98470D4C0223A376FE
:102690000023E376637700200A4B9847207F0A4B9C
:1026A00098470A4A00210020094CA047094A022104
:1026B0000020A0470020084B984710BD952400003B
:1026C0003803002025080000110800004D2B0000F1
:1026D0002D0A0000C92500005108000010B500288F
:1026E00002D0012804D010BD0020034B9847FAE720
:1026F000024B9847F7E7C046D52400008526000026
:1027000010B584B001AC0191029220726372200076
:10271000014B984704B010BDA108000010B504009B
:102720000A781F231340022B12D18A79CB791B021E
:10273000134301D000200CE008790021054B984795
:102740000123002200212000034CA047012000E0CB
:10275000002010BDC50900000127000010B50400CD
:102760000A781F231340022B12D18A79CB791B02DE
:10277000134301D000200CE008790121054B984754
:102780000123002200212000034CA047012000E08B
:10279000002010BDC50900000127000070B582B0FF
:1027A00005000C002A4B1A6810685168DA7E294B24
:1027B0009847002845D000908178C3781B02C9183B
:1027C00089B2411801910422234B984700280BD16C
:1027D000002039E000980378C01800900422019985
:1027E0001D4B984700282ED08378A342F2D1C3789E
:1027F000AB42EFD10090164B1E69002E1FD06A46E7
:102800000121300073689847002801D03668F4E74A
:1028100073686A46002130009847002816D1002DC1
:1028200005D00122A2400A494B7F13434B77002376
:10283000002200210020094CA047012004E00020D4
:1028400002E0002000E0002002B070BD0020FBE7A5
:1028500038030020ED2C0000A92C00000127000007
:1028600010B504004B780B2B2DD89B00174AD3587A
:102870009F46012300220021154CA04743425841A6
:10288000C0B210BD8878134B98470028F9D00123B7
:102890000022002120000E4CA04743425841C0B204
:1028A000EFE70D4B9847ECE70C4B9847E9E70A79BF
:1028B0004B791B0213438A78C87800021043190031
:1028C000074B9847DDE70020DBE7C046D03100002A
:1028D00001270000F12500001D2700005D270000F2
:1028E0009D27000070B505008B79CC7924021C432C
:1028F000122C00D912240B4B1B681868596801224E
:10290000094B984700280BD0002322000100280023
:10291000064CA047002801D1012070BD0020FCE733
:102920000020FAE738030020A92C0000012700004E
:1029300070B505008B79CE7936021E438A78134B29
:102940001C7F013C344061424C41E4B21B68186872
:1029500059680132D2B20E4B9847002813D08278C2
:10296000C3781B02D21892B2964201D832000024DA
:10297000230001002800074CA047002801D10120B6
:1029800070BD0020FCE70020FAE7C04638030020B5
:10299000ED2C00000127000070B505008B79CE7981
:1029A00036021E438A78104B1C7F013C3440614242
:1029B0004C41E4B21B68186859680C4B98470028D2
:1029C0000FD00278964201D8320000242300010083
:1029D0002800074CA047002801D1012070BD00202D
:1029E000FCE70020FAE7C04638030020312D000044
:1029F0000127000010B5CB78022B08D0032B09D09B
:102A0000012B01D0002001E0044B984710BD044B7E
:102A10009847FBE7034B9847F8E7C046E5280000D6
:102A2000312900009929000030B583B004000A78EC
:102A30001F231340DAB2012A03D9022B12D000203F
:102A40000EE0002301930D4D022201A968690C4B91
:102A5000984769690023022220000A4CA047012000
:102A600003B030BD08790221074B9847002803DBEB
:102A7000012318400190E6E70020F1E73803002029
:102A80001531000001270000C509000070B50500E0
:102A9000164B1C695A7F017943791B020B431A417B
:102AA000D3070AD5002C1FD02A000221200063681A
:102AB000984700280DDA2468F4E70C4B0022596986
:102AC0000A705969002301320020094CA0470120F7
:102AD0000BE0064B5A69107059690023012200204F
:102AE000034CA047012000E0002070BD3803002007
:102AF0000127000010B54B78062B0DD007D9082B05
:102B00000DD00A2B16D108000B4B984706E0002B7E
:102B100010D10A4B984701E0094B984710BD094B6B
:102B2000DA7E59690A70596900230122064CA047D0
:102B30000120F3E70020F1E78D2A0000292A000098
:102B4000F5290000380300200127000070B50500BA
:102B50000C0000220D4B9847431C14D0012813D0C1
:102B600023781F22934304D0DBB2802B06D00020B1
:102B70000AE021002800064B984705E021002800C4
:102B8000044B984700E0002070BDC046FD240000C3
:102B900061280000F52A000010B5012809D000289E
:102BA00002D002280AD010BD07480430074B9847CE
:102BB000F9E705480830054B9847F4E702480C3020
:102BC000024B9847EFE7C046380300209D0A0000FB
:102BD00070B50400431E9841C0B20C4A0C490D4B1D
:102BE00098470D4B984700280EDB0C4D2022002102
:102BF00028000B4B98476C610A4900200A4CA047FB
:102C00000A490120A047002070BDC04655030000BE
:102C1000003200007D0A0000210700003803002078
:102C200027310000392500008D070000DD26000057
:102C300010B5010002481030024B984710BDC04645
:102C4000380300209D0A000010B50B4B9B7E002B23
:102C50000CD100280DD0084B18600268D2791A7781
:102C600001229A76054B9847002010BD042040426F
:102C7000FBE709204042F8E73803002099070000ED
:102C800010B5014B984710BDA5070000014B5869CE
:102C90007047C04638030020024B987EC30600D51B
:102CA000102070473803002010B5884207D20378FF
:102CB000012B06D94478944202D0C018F5E70020D1
:102CC00010BD0020FCE7884209D20378012B08D907
:102CD0004278042A07D0052A02D0C018F3E7002062
:102CE00070470020FCE70020FAE7000070B50C00F8
:102CF000150002220D4B9847002812D0A0420FD297
:102D00000378012B0ED94378022B0DD14379AB42C6
:102D100007D08378C27812029B189BB2C018EDE7E7
:102D2000002070BD0020FCE70020FAE7A92C00007D
:102D300070B50D0016000024A8420ED2032229000F
:102D4000084B9847002809D00378012B07D9B442D3
:102D500004D00134E4B2C018EEE7002070BD0020BA
:102D6000FCE7C046A92C00000022024B1A7000208C
:102D70007047C0465803002010B504480123437033
:102D800004304021024B984710BDC0465803002034
:102D90003524000010B582B0031C01AA1080DB07A7
:102DA00006D400214423094AD154002002B010BDAA
:102DB00007490020074CA04707490120A0470121EF
:102DC0004423024AD154054B9847EEE758030020AC
:102DD000E12D0000D9230000692D0000792D0000AD
:102DE00070B5140000291FD1002A22D0124B9A6C12
:102DF00040239B1A9C4201D9012416E00E4DAB6C76
:102E000028004C30C0182E1D220031000B4B984773
:102E1000AB6CE418AC6400236B70402200213000DE
:102E2000074B9847002400E00124064B98472000F8
:102E300070BD0024F9E7C04658030020153100009A
:102E400027310000792D0000F8B505000E000C00B8
:102E500006E04022002115480C30154B9847361BE0
:102E6000002C20D04423134AD35C002B1BD001221A
:102E7000104B1A703400402E00D940240B4F0C37F1
:102E80002200290038000C4B9847210038000B4BDA
:102E90009847084B1B78002BDBD04423054AD35CB2
:102EA000002BF6D1D5E70020F8BDC046D80300209E
:102EB0002731000058030020153100006524000070
:102EC00070B5144C20004C30134B9847134B984767
:102ED0001348144B9847144B9847144D281D402213
:102EE0000021134EB04728004C3040220021B0474B
:102EF00020000C3040220021B0470E4B984700289C
:102F0000FBD0FA2080000C4B98470C4903200C4B57
:102F1000984770BDD8030020D12B000091230000FA
:102F200008000020492C0000812C000058030020DC
:102F300027310000292400003D040000952D0000E9
:102F4000D923000010B50400034B9847010020006E
:102F5000024B984710BDC04637310000492E000093
:102F6000002243088B4274D303098B425FD3030AC8
:102F70008B4244D3030B8B4228D3030C8B420DD3DB
:102F8000FF22090212BA030C8B4202D31212090269
:102F900065D0030B8B4219D300E0090AC30B8B42A7
:102FA00001D3CB03C01A5241830B8B4201D38B0355
:102FB000C01A5241430B8B4201D34B03C01A5241FA
:102FC000030B8B4201D30B03C01A5241C30A8B423D
:102FD00001D3CB02C01A5241830A8B4201D38B0228
:102FE000C01A5241430A8B4201D34B02C01A5241CC
:102FF000030A8B4201D30B02C01A5241CDD2C3093E
:103000008B4201D3CB01C01A524183098B4201D3B9
:103010008B01C01A524143098B4201D34B01C01AA4
:10302000524103098B4201D30B01C01A5241C3081C
:103030008B4201D3CB00C01A524183088B4201D38B
:103040008B00C01A524143088B4201D34B00C01A77
:103050005241411A00D20146524110467047FFE7E3
:1030600001B5002000F006F802BDC0460029F7D0E7
:1030700076E770477047C04610B50023002802D09D
:1030800000F004F8431C180010BDC046414208403F
:103090001C2101231B04984201D3000C10391B0A88
:1030A000984201D3000A08391B09984201D300094C
:1030B000043902A2105C401A7047C0461B1C1D1D3B
:1030C0001E1E1E1E1F1F1F1F1F1F1F1F70B5002645
:1030D0000C4D0D4C641BA410A64209D1002600F033
:1030E0009BF80A4D0A4C641BA410A64205D170BD82
:1030F000B300EB5898470136EEE7B300EB5898471A
:103100000136F2E7243200002432000024320000AD
:1031100028320000002310B59A4200D110BDCC5CCB
:10312000C4540133F8E703008218934200D170477A
:1031300019700133F9E70023C25C0133002AFBD187
:10314000581E70472E2E2F68616C2F7574696C7332
:103150002F7372632F7574696C735F6C6973742E4F
:1031600063000000030000002300000006000000D0
:103170000600000009000000290000000A0000000D
:103180000A0000002E2E2F68706C2F6569632F686F
:10319000706C5F6569632E6300000000254A0000C3
:1031A00004080000D40200200000000040000000DD
:1031B00094020020000000004000000054020020A3
:1031C0000000000040000000544553540D0A000068
:1031D000C6280000A2280000C6280000A828000079
:1031E000C628000072280000C6280000C62800007B
:1031F000C628000084280000C6280000AE28000071
:103200002E2E2F7573622F6465766963652F757333
:103210006264632E63000000F8B5C046F8BC08BCC9
:103220009E467047DD000000F8B5C046F8BC08BCFB
:083230009E467047B500000046
:1032380000000000B92100001000002065000020F7
:103248001201000202000040EB0304240001000008
:103258000001090243000201008032090400000154
:1032680002020000052400011005240101000424C5
:10327800020205240600010705820340000A09042A
:103288000100020A000000070501024000000705CE
:0832980081024000000000006B
:00000001FF
