S019000053414D42415F424F4F544C4F41444552312E737265632C
S1130000E0100020193F0000153F0000153F0000DC
S113001000000000000000000000000000000000DC
S1130020000000000000000000000000153F000078
S11300300000000000000000153F0000153F000014
S1130040153F0000153F0000153F0000153F00005C
S11300501D120000153F0000153F0000253600006A
S1130060153F000065160000751600008516000097
S1130070951600000000000000000000153F00007D
S1130080153F0000153F0000153F0000153F00001C
S1130090153F00000000000000000000153F0000B4
S11300A0153F0000153F0000153F0000153F0000FC
S11300B00000000010B5064C2378002B07D1054B37
S11300C0002B02D0044800E000BF0123237010BDC0
S11300D01401002000000000844F0000084B10B5FC
S11300E0002B03D00749084800E000BF0748036815
S11300F0002B00D110BD064B002BFBD09847F9E72D
S11301000000000018010020844F0000844F00000C
S113011000000000024A1378013BDBB21370704701
S11301203B010020002070470020704710B50249B1
S11301300020024B984710BD34010020BD40000050
S113014010B50022124B1A700020124B1A80124B69
S1130150A1211970813959705A809A801E39D98029
S11301601A810E49E1235B020B6008714871082370
S11301708B7100200A4B984700200A4B98470028AF
S113018004D0034A13780133DBB2137010BDC046A8
S11301903B010020D0030020680600203401002029
S11301A0BD4000009D40000070B584B0484B1B78F2
S11301B0002B01D004B070BD464B9847002846D0B0
S11301C0454B1C88454B98478442F3D0EFF310838A
S11301D05A425341039372B6BFF35F8F0022404BE0
S11301E01A70039D3F4B1C78E4B262003E4BD35A15
S11301F0002B33D000223D4B1A803D4B1B78002B43
S11302004BD163426341DBB2364A13700122304B57
S11302101A70002D04D0324B1A70BFF35F8F62B690
S113022026006300304A9B5A1D00413DFF3D6A1E73
S11302309541EDB2A0225200934237D0254B984706
S113024000282ED0254B9847234B188031E0224BB1
S11302501C88284B98478442B8D1ABE7234A1388BB
S1130260013313801B4B9847002803D11F4B1B8875
S1130270632B08D9174B98470028BBD01E4B1B4A49
S113028012889A42B6D8002D00D193E70122144B6C
S11302901A70BFF35F8F62B68CE762425441E4B2D6
S11302A0B4E7144B98470C4B188002E000220A4B29
S11302B01A8076000C4BF35AA2001419A4010F4AB9
S11302C012190F490091290081200E4CA04771E7B3
S11302D0640600205D2900006006002071290000EA
S11302E0120100205C060020580600203001002086
S11302F0D4030020612900001F030000D80300205C
S113030009030000692C000010B5002800D010BDBE
S1130310074B1B785A4253415B000022054958524F
S1130320054B1A70054B1A70054B9847EFE7C0460A
S11303305C06002058060020D40300206406002038
S1130340A901000010B50020014B984710BDC0461C
S1130350A901000010B5064A1378013BDBB2137003
S11303601078C0B2034B98470022034B1A7010BD9B
S11303703C010020AD4000003201002010B5204BAC
S11303801A7853B2002B05DB602313400020202B86
S113039014D010BD602313400020202BF9D1184B3A
S11303A05B78212B29D1164BDB88072BF1D1144B19
S11303B0144A9A6007229A810130EAE7104B5B786D
S11303C0202B03D0222B0FD00020E2E70C4BDB883C
S11303D00020072BDDD10A4B0B4A1A61094A9A60A7
S11303E007229A810130D4E7054B5B88012119402B
S11303F00020064B98470120CBE70020C9E7C04600
S1130400DC090020340100202D010000B940000067
S113041082B0EFF310835A425341019372B6BFF393
S11304205F8F00220A4B1A70019A0A4B19880A4BF3
S11304301B785B000948185A401A002A05D001228B
S1130440034B1A70BFF35F8F62B602B07047C046A9
S113045012010020C8030020C4030020C0030020B0
S113046010B5034B9847431E9841C0B210BDC04617
S11304701104000010B584B0EFF310835A425341C5
S1130480039372B6BFF35F8F0022234B1A70039B52
S1130490224A1478E4B2224A1278002A07D1214A67
S11304A0128861002048095A92B28A420AD2002076
S11304B0002B05D00122184B1A70BFF35F8F62B670
S11304C004B010BD0021174A118062426241D2B2C9
S11304D012490A700121124A1170002B05D0012221
S11304E00D4B1A70BFF35F8F62B600200F4B984715
S11304F000280DD1A2001419A4010D4A12190D4BA4
S11305000093A0235B00012102200B4CA047D7E7F6
S113051000200A4B9847EDE712010020C403002095
S1130520CC030020C8030020C003002061040000A5
S113053040010020D1050000692C0000BB400000F0
S113054070B50024154B1C70154B1C70154B1C709A
S1130550154B1C70154B00251C805C80144B1C80B3
S11305600020144B9847144B1D70144B1D70144BF2
S11305701C805C80134B1C800020134B9847002880
S113058007D0064A13780133DBB213701378012BBA
S113059000D070BD01220D4B1A70FAE73C01002017
S11305A064060020D40300205C06002058060020C6
S11305B060060020A9010000CC030020C403002031
S11305C0C0030020C803002075040000320100208D
S11305D010B582B01400002810D1104B1A78534281
S11305E05A41D2B200290BD089B252000C4BD152DD
S11305F000220C4B1A7000200B4B984702B010BD20
S113060093009A189201094B9A18094B0093A0235E
S11306105B0001312000074CA047EFE7C403002032
S1130620C0030020CC03002075040000400100201A
S1130630D1050000692C000010B50020014B98473B
S113064010BDC04661040000F0B5D6464F4646468C
S1130650C0B582B0284B9B79093B5A425341DBB267
S1130660994600239C46254B98460027244E254C4A
S113067005E08B4229D3244B1B78002B1DD0EFF3CC
S113068010835A425341019372B6BFF35F8F4346BE
S11306901F70019833889BB22278D2B255001B494F
S11306A0695A89B20028E4D001208246134855468D
S11306B00570BFF35F8F62B6DBE70025280002B048
S11306C01CBC90469946A246F0BD91008A1892013E
S11306D00F498A18D25C6546154301339BB2084A18
S11306E0138000200B4B98474B46002BE6D02B027F
S11306F09C4600239946C2E73401002012010020E1
S1130700C8030020C403002032010020C0030020DD
S1130710400100207504000010B50020014B9847EB
S113072010BDC04649060000F0B5DE4657464E46A9
S1130730C0B582B015000E00274B9B4600239A4695
S1130740264B9946264F1DE05A002648125A521A43
S11307502C00954200D914009A00D3189B01591813
S1130760214B591822003000204B98471B4A13880C
S11307701B199BB2138036192D1B00201C4B984764
S1130780002D22D0EFF310835A425341019372B6E5
S1130790BFF35F8F5B4652461A7001984B46198827
S11307A089B23B78DBB25C000E4AA25A92B20028AE
S11307B005D0012408480470BFF35F8F62B69142EC
S11307C0C2D30C4B1B78002BDCD1280002B01CBC1C
S11307D091469A46A346F0BD12010020C8030020AA
S11307E0C4030020C003002040010020594E000033
S11307F0750400003201002070B582B00800294B56
S11308001B780024002B23D0EFF3108359424B4173
S1130810009372B6BFF35F8F0021234B1970009DC4
S1130820224B198889B2224B1B78DBB25E00214C23
S1130830345B641A002D05D001261B4D2E70BFF3C6
S11308405F8F62B62500944200D91500002D02D1B5
S1130850200002B070BD9A00D3189B015918164BA2
S113086059182A00154B9847EFF310835A42534105
S1130870019372B6BFF35F8F00220B4B1A7001997C
S11308800A4A13885D19ADB21580002905D00122EA
S1130890054B1A70BFF35F8F62B60020084B984770
S11308A0D6E7C0463201002012010020C803002010
S11308B0C4030020C003002040010020594E000062
S11308C07504000010B50A0001000020014B984790
S11308D010BDC046F907000010B50A000100002051
S11308E0014B984710BDC0462907000082B0EFF3C2
S11308F010835A425341019372B6BFF35F8F0022B3
S1130900154B1A700199154B1B78DBB25800144A29
S1130910825AA020400082420CD0A0204000801ABD
S1130920002905D001220C4B1A70BFF35F8F62B609
S113093002B070470B4800780028EED10A480078CE
S11309400028EAD10130084A10705A425341DBB200
S1130950024A13700022E0E7120100205C06002026
S11309605806002064060020D403002010B5034B71
S11309709847431E9841C0B210BDC046ED08000020
S1130980F0B5DE4657464E464546E0B583B00C000A
S1130990234B9D79093D6B425D41EDB2214E224BC3
S11309A09846224B9A4629E0EFF310835A4253416A
S11309B0019372B6BFF35F8F002342461370019B0D
S11309C09B4653461A78D2B2194B9C465700F85AA4
S11309D0431C61467B5293009B189B01154AD31814
S11309E01C545B46002B05D001220F4B1A70BFF339
S11309F05F8F62B6002D10D0241200250020B0476E
S1130A000028D1D10C4B1B78002BF7D103B03CBC90
S1130A1090469946A246AB46F0BD0120F6E7C04693
S1130A20340100206D090000120100205C06002042
S1130A3058060020D80300203201002010B5010020
S1130A400020014B984710BD81090000F0B5DE4637
S1130A5057464E464546E0B583B01700274B9B7971
S1130A60092B05D08846264B9946264B9B4635E0F4
S1130A705700F7E7EFF310835A425341019372B6DC
S1130A80BFF35F8F00235A461370019B9A461E4B97
S1130A901C78E4B262001D4BD55AA0235B005B1B9B
S1130AA03E009F4200D91E00A00000198001401999
S1130AB0174B181832004146164B98476400AD197D
S1130AC0124BE5525346002B05D001220D4B1A70F0
S1130AD0BFF35F8F62B6B044BF1B07D00020C84786
S1130AE00028C7D10C4B1B78002BF7D1380003B07A
S1130AF03CBC90469946A246AB46F0BD340100206A
S1130B006D090000120100205C0600205806002038
S1130B10D8030020594E00003201002010B50A000D
S1130B2001000020014B984710BDC0464D0A00004B
S1130B3010B5114B1B681A689478D3781B022343B1
S1130B40D2180378C018904210D24378042B0FD0E7
S1130B508B420AD00378C018904205D24378042B04
S1130B6008D08B42F6D100E0002010BD0020FCE745
S1130B700020FAE70020F8E78006002010B5034BB8
S1130B805B887F201840024B984710BDDC09002089
S1130B90412E000070B5194B1B780022002B29D080
S1130BA0174B1B681B681C79844223D9154A1360B0
S1130BB09A78DC78240214431C19A3421CD2002521
S1130BC0012607E00F4A13600FE01A789B183500DE
S1130BD0A3420CD25A78042AF7D19A788242F4D1EB
S1130BE0DA788A42F1D1002DECD1012202E0054AE3
S1130BF013600022100070BD0022FBE77C06002079
S1130C008006002084060020F0B5C64600B5040026
S1130C100021134B9847051E03D1280004BC9046BD
S1130C20F0BD104B1B685B68A200D3589846DB6884
S1130C309847010020000A4B9847051EEDD00A4B47
S1130C401C680A4E0A4F05212000B047041E02D03A
S1130C508078B847F7E743465B689847DDE7C046C6
S1130C60950B00008006002084060020310B000054
S1130C7081290000F8B505000F4B9847002819D0CA
S1130C800E4B1C680E4E0F4F05212000B047041E6A
S1130C9009D00379427912021A43C1788078B8479F
S1130CA00028F1D106E0084B1B685B68AD00EB58E7
S1130CB01B689847F8BDC046950B000084060020C9
S1130CC0310B0000D92900008006002010B5014B2B
S1130CD0984710BDF12E000070B50E4B1B78002B09
S1130CE011D00D4B1B681B681B79002B0BD0002403
S1130CF00A4E094D2000B0470134E4B22B681B684A
S1130D001B79A342F6D80022024B1A700132044B1D
S1130D101A8070BD7C06002080060020090C0000AB
S1130D207206002070B50E4B1B78002B17D00D4BAC
S1130D301B681A681279002A11D00024094D06E0B4
S1130D400134E4B22B681A681279A24207D95B68AD
S1130D50A200D3581B69002BF2D09847F0E770BD6E
S1130D607C06002080060020F8B5AB4B00229A8157
S1130D701A615A611B785AB2002A13DB60221A42A4
S1130D8000D1D7E0A44B1A781F231340012B00D1C4
S1130D9074E1A14B1A781F2313400020022B00D1C9
S1130DA0CAE1F8BD9C4AD2880020002AF9D060210B
S1130DB01942E7D11F210B4008D1974949780629E8
S1130DC023D0082900D184E0002917D0012B00D1B9
S1130DD087E0022BD6D1904B5B780020002B00D00B
S1130DE0A6E1022AD5D18C4B18798C4B98478C4BB1
S1130DF01880022118008B4B9847FCE0022AC8D1C6
S1130E0002318948874B9847F5E0834B5A88130A87
S1130E10022B23D0D9B202290FD9032B34D00F2BA4
S1130E2000D082E1814B98680028B2D08378C178E1
S1130E30090219437B4B984707E0012B00D074E16A
S1130E407A4B18680178774B9847734BDA889B89FB
S1130E50934200D8CFE0704B9A81CCE0D2B2734B6E
S1130E601B685B7C934200D893E7704B5B68D200AD
S1130E70D0588378C178090219436A4B9847664B66
S1130E809B6802225A70E0E7FF231A40012A1DD012
S1130E90002A16D0022A00D074E7654C1D20654A4A
S1130EA002320023E15C118001330232D9B2814263
S1130EB0F8D3410002315F48017089B2594B984719
S1130EC0C3E704215C48574B9847BEE75B4C0920B5
S1130ED0E5E7012A00D05CE701215948514B9847C6
S1130EE089E04D4949780A2900D072E7012A00D0E7
S1130EF0C4E0534B1B78002B00D1BFE0464B1C7958
S1130F00504B1D682B681B79A34200D8B6E0002122
S1130F1020004D4B9847002800D133E76B68A400AC
S1130F20E358DB689847494B1870012118003D4B82
S1130F30984760E01F2213405FD1374A5278032A52
S1130F4000D1F4E0D1B203293BD9052A4BD0092AB8
S1130F5053D1314BDB88002B00D01AE73C4B984728
S1130F60002800D10EE72C4B9A78304B1B685B7C31
S1130F709A4200DD06E7374B9847274B9B78304A67
S1130F801370002B37D0344A94466344DB00274A5D
S1130F905268D3182B4A13601B681B79002B2AD084
S1130FA000242E4D160000212000A847002800D15F
S1130FB0E8E60134E4B233681B681B79A342F2D833
S1130FC019E0012A19D1144BDB88002B00D0E0E68C
S1130FD0114B5B88012B00D0DBE6134A13880221F6
S1130FE08B43138007E00C4BDB88002B00D0D0E64A
S1130FF01B4A094B1A610120D3E6012B32D0022B84
S113100000D0BFE6044B5B78012B6DD0032B00D1DD
S113101079E000208CE0C046DC090020E12A0000D1
S113102074060020612E00007206002028000020B3
S1131030F4000020A8000020E4000020E8000020C4
S11310407C06002080060020950B00007806002016
S1131050512E0000D90C0000FFFFFF1F750C00008B
S11310607D0B0000484A52780B2AC8D1464BDB88D6
S1131070002B03D1454B1B78002B27D1434B1B7806
S11310800020002B00D18CE63F4B1C79404B1D689F
S11310902B681B79A34200D883E6002120003D4B36
S11310A09847002800D174E66B68A200D558EB6815
S11310B0984701002000374B9847002800D168E684
S11310C0AB689847002800D06BE662E62E4B1D798A
S11310D05C882800304B9847002800D152E6E1B2E2
S11310E028002E4B984723E0274BDB88002B00D0A9
S11310F04FE6254B5B88002B00D04AE6224B18793B
S1131100274B984714E0204BDB88002B00D040E6A7
S11311101D4B5B88002B00D03BE61B4C2079214BF8
S113112098472079204B984702E0002000E00020F7
S1131130002800D035E625E6144B1B78002B00D19F
S11311402FE6134B1B681A681279002A1AD000255F
S1131150104E0F4F5B68AA00D458E368984701000B
S11311602800B047002800D11BE6A3689847002850
S113117000D016E60135EDB23B681A681279AA422E
S1131180E8D80EE600200CE6DC0900207C060020EE
S113119080060020950B0000090C0000750C00006F
S11311A0252C000021290000F52A00000C4B1B68A7
S11311B0002B06D1EFF31083002B07D00022094B3C
S11311C01A70074A136801331360704772B6BFF38D
S11311D05F8F0022044B1A700132024B1A70F0E741
S11311E0880600208C06002012010020084B1A6893
S11311F0013A1A601B68002B09D1064B1B78002B9F
S113120005D00122044B1A70BFF35F8F62B670479A
S1131210880600208C0600201201002070B50022F0
S1131220104B1A70002310491F25104E0D4C0AE074
S11312300D4908E023780133DBB223700F2B10D85B
S113124000211F2BF4D9280018400122824008698C
S11312501042EFD00A619B009B59002BEAD09847BB
S1131260E8E770BD61070020001800406407002013
S1131270044A137802210B43137053785BB2002B9A
S1131280FBDB70470018004000B583B0124A936935
S113129040210B43936101A900230B7005200F4BE0
S11312A0984705200E4B98470E4A137801210B43AB
S11312B0137053785BB2002BFBDB0B4B19004031EE
S11312C0002204C39942FCD11022084B1A60084B37
S11312D0984703B000BDC046000400403D21000013
S11312E0B1200000001800406407002000E100E085
S11312F071120000F0B5DE4657464E464546E0B54D
S113130087B08046049116001F00002200230021AC
S11313108B463F2401202100009601975C460394EC
S11313204446059413E02024641A0500E540A846C9
S113133014E0009C019D121BAB415C464D462C43BE
S1131340A346039C45462C430394013925D320240A
S113135064420C19E7D40500A540A84604008C405B
S1131360A14692185B4114001D00059E4F463E4065
S1131370B446049E47463E40B246664657463E4300
S113138003D00600264332002B00009C019D9D42A1
S1131390DBD8CED19442D8D8CBE7039B584619006A
S11313A007B03CBC90469946A246AB46F0BD10B58A
S11313B0490840230024814202D2180010BD1C00B9
S11313C0091A631C9BB28842F9D94023FF2CF4D834
S11313D014800023F1E70000F0B583B00F0016007D
S11313E008AA117804004C434022BC4202D91000E0
S11313F003B0F0BD002B14D1020008000021194CE9
S1131400A04701003A0000230020174CA047002207
S11314100123121A8B41120C1B041A43328000223E
S1131420E5E70022012BF9D10A00002300210D4C2D
S1131430A04702000B0000920193380000210A4CDF
S1131440A047050080239B0140229842CFD8790F02
S1131450F800009A019BA047EA00821AD2B2520314
S11314602A43DBE7BD4D0000F512000010B582B041
S113147004000E4B1B78002B07D0002905D10B4B21
S11314805B78834210D01D200CE001A90C7013205E
S1131490074B98471320074B9847044B5C70012275
S11314A01A70002002B010BD0020FBE79006002057
S11314B03D210000B12000002B4B984223D00FD9CE
S11314C02A4B98422FD02A4B984242D101293AD034
S11314D0002946D0022938D0032938D0002039E029
S11314E0244B984235D1012907D0002933D0022951
S11314F005D0032905D000202CE01F482AE01F480E
S113150028E01F4826E0012907D0002925D0022918
S113151005D0032905D000201CE01A481AE01A4817
S113152018E01A4816E0012907D0002917D002292B
S113153005D0032905D000200CE015480AE0154821
S113154008E0154806E0154804E0154802E015488F
S113155000E0002070471448FCE70320FAE7134832
S1131560F8E71348F6E7C046000C004200100042BA
S113157000140042000800420300050003000600B6
S1131580030007000300010003001E0003001F0006
S11315900300090003000A0003000B00030011000C
S11315A003001200030013000300040003000800FA
S11315B00300100030B585B06A460F4B32CB32C2FF
S11315C01B6813600300009A824211D0019A824280
S11315D00AD0029A824209D00020039A9A4201D08A
S11315E005B030BD033004E0012002E0022000E039
S11315F00020C0B2F4E7C0467C4E000070470000F3
S113160030B50B4B1B78002B0ED10A4C0A4D2560CC
S11316100A4B00221A6065605A60A5609A60E56012
S1131620DA600132024B1A708000024BC15030BDA7
S11316309206002094060020FD150000A407002057
S113164010B582B001AC09232370013363700133F8
S1131650A3700133E370024B9847205602B010BDCB
S1131660B515000010B5024B1B680020984710BD4B
S11316709406002010B5024B5B680120984710BD0A
S11316809406002010B5024B9B680220984710BDB9
S11316909406002010B5024BDB680320984710BD68
S11316A094060020F0B5DE4657464E464546E0B562
S11316B091B005000C00160029600800BA4B984749
S11316C0020023680520DB0706D511B03CBC904618
S11316D09946A246AB46F0BD236817309B07F4D465
S11316E0B249086A971C0123BB4003430B620FA94C
S11316F02D27F35D0B701432D3B202931800AC4B58
S113170098470298AB4B9847F05D0021AA4B984745
S1131710F37A6B712423F35CAB712523F35CEB71D7
S1131720F37E2B72337F6B722B68984618009E4BA6
S11317309847143000220E2306A98C4663441A806D
S1131740328A02928023DB019A4200D19AE00FD9B7
S1131750C023DB01029A9A4200D18EE080231B024F
S11317609A4200D01BE1032306930023079308E069
S113177080239B019A4200D011E1102306930F3B72
S1131780079333680593F3689B4673690393337E29
S113179004932623F35C9A4673689946002B00D180
S11317A09CE080235B05994500D180E0737E002B8B
S11317B002D0B37E424693730E2306AA9446634432
S11317C01B8842469381059B5A461343039A13434D
S11317D04A461343029F1F43049B1B021F43534665
S11317E05B071F432723F35C002B01D104331F4302
S11317F0737E9B02327F52021343727F12021343A1
S11318002422B25C520413432522B25C1204134313
S1131810B17AF27A114319433389FF2B00D181E065
S113182080225204174319432C23F35C002B03D169
S1131830624B9B789B0701D580231F432A68D36999
S1131840002BFCD1434659602A68D369002BFCD194
S113185043461F600EAB80221A7000225A70DA7061
S11318609A70336B0A93736B0B93B36B0C93F36B98
S113187002930D9300270AAE63E008230693073B07
S113188007937EE733680593F3689B467369039374
S1131890337E04932623F35C9A4673689946002B9F
S11318A018D080235B05994501D0002025E027232B
S11318B0F35C002B00D079E7336A1F00C0B2404BC1
S11318C0984701000E2206AB9C46624438003D4B0B
S11318D0984712E008230693002307932723F35C19
S11318E0002B0ED0069B0093079B0E2206A98C4664
S11318F06244B16A306A344FB847002800D0E4E645
S113190054E7336A1F00C0B22D4B98470100069B71
S11319100093079B0E2206A88446624438002A4F8F
S1131920B847EAE7F37E002B00D17DE78023DB0490
S11319301F4379E72000254B984707E00137042F20
S11319400DD0F9B2BB0098590028F3D0431CF5D050
S11319500EA90870000CC0B21D4B9847EEE7002397
S1131960EB602B616B61AB61EB612B62AB626B6211
S11319700022EB85AB853033EA540133EA5401335A
S1131980EA540133EA542868074B98470400114984
S1131990114B9847A400114BE550002095E6102305
S11319A0069300230793ECE6B515000000040040FD
S11319B03D210000B12000006D1400000020004112
S11319C059210000AF130000D9130000B91400001E
S11319D035220000711A000001160000A40700203F
S11319E0C2791C23002A01D118007047C28D92B21B
S11319F0173B002AF8D1026811850221137E0B429D
S1131A00FCD00023F0E782791C23002A01D11800BE
S1131A107047828D92B2173B002AF8D10268107E7B
S1131A204007F4D5538BDBB298061DD0980703D535
S1131A30022353831833EAE7580703D50423538357
S1131A401A33E4E7D80703D5012353831233DEE7BF
S1131A50D80603D5102353833233D8E79B0603D526
S1131A60202353832133D2E7138D0B800023CEE749
S1131A70F8B58000624BC5582C68E369002BFCD193
S1131A80237EA67D1E403023EB5C3122AF5C1F40D9
S1131A90F30722D5EB8D9BB2002B1CD0AA6A1378D6
S1131AA0DBB2511CA962697901290ED09BB2DB0516
S1131AB0DB0D2385EB8D013B9BB2EB85002B0CD119
S1131AC0013323750133A37507E0517809020B43F1
S1131AD00232AA62EBE701232375B30706D502237A
S1131AE0237500223133EA54FB071AD4730765D5F2
S1131AF0AB8D9BB2002B5FD0638BDBB21A0714D47F
S1131B003F221340002B34D09A0711D51A223223D6
S1131B10EA54303B63837B0750D528006B699847B0
S1131B204CE02800EB689847E0E737221340E9E7E8
S1131B305A0705D51E223223EA542E3B6383EAE773
S1131B40DA0705D513223223EA54313B6383E2E7F3
S1131B50DA0605D542223223EA54223B6383DAE7CC
S1131B6020221A42D7D021323223EA54123B638313
S1131B70D1E7238DDB05DB0DDAB2696A0A706A6A84
S1131B80511C69626979012910D0AB8D013B9BB26C
S1131B90AB85002B12D10433237500222E33EA5473
S1131BA0BB070BD528002B69984707E01B0A537025
S1131BB06B6A01336B62E8E704232375F30604D5EB
S1131BC0102323752376FB060ED4B30604D52023F5
S1131BD0237523763B070BD4330704D508232375D9
S1131BE02376BB0608D4F8BD2800EB699847ECE7D8
S1131BF02800AB699847EFE72B6A28009847F2E77B
S1131C00A407002010B5082803D880001C4B1B58DB
S1131C109F46002032E01B4B18692FE01A4B1B6AC9
S1131C209B059B0F1948D84028E0164B586925E0BE
S1131C30144B1B6800209B0720D513491022CB6846
S1131C401A42FCD00F4B1A6824231340042B01D0F2
S1131C500F4813E000200F4B98470A4B9B681B0466
S1131C601B0C58430AE05023074AD35C00205B074F
S1131C7004D5044BD86801E08020000210BDC046A2
S1131C808C4E0000A40600200008004000127A00D8
S1131C90006CDC025921000070B50C490B6A047811
S1131CA0857840780122104080014026B3430343E5
S1131CB02A40D2018020834313430322224012028C
S1131CC00348034013430B6270BDC0460008004044
S1131CD0FFFCFFFF10B5037A9B061B0C428992059B
S1131CE0920D134318494B608379C2791343428898
S1131CF08488224313434278D20113430B60037850
S1131D00042B11D0202B0ED1037B9B06028A134394
S1131D10C28912040D490A4013430B4A93601168A7
S1131D200B4B0B43136010BD037B9B06028A1343CA
S1131D30C289120405490A401343034A9360136895
S1131D4004210B431360EEE7A40600200000FF0308
S1131D5024040000082803D88000254B1B589F4604
S1131D60172044E0234A136A02210B431362002024
S1131D703DE0204A936902210B439361002036E041
S1131D801C4A138A02210B43138200202FE0194AB4
S1131D90938A02210B439382002028E016490B68A2
S1131DA0022213430B60134B9A8419000E32CB6842
S1131DB01A42FCD0104A91680E4BD96252689A625A
S1131DC000229A8419001032CB681A42FCD00A4BC4
S1131DD01B689BB2074A9384002008E0054944220B
S1131DE08B5C022003438B54002000E000207047EA
S1131DF0B04E000000080040A4060020F0B58BB0EF
S1131E00C222D200324B9A60324A53681E218B435D
S1131E105360012201AB1A7000242F4DE0B201A9D6
S1131E20A8470134252CF9D105AB002200215980A3
S1131E309A71DA71203119705A70284B1B689B0E05
S1131E403F2B43D005A80372072606730A23C381D8
S1131E50234B4381FF3B8380224B0382224B9847D1
S1131E6004A8002444700127877004701F4B98470E
S1131E7006201F4DA8471F4B984701A94F604C707F
S1131E800C724C720E7003201B4B984703201B4BA3
S1131E9098470720A8470E491022CB681A42FCD065
S1131EA0174A0023137253729372D37201A9012249
S1131EB04A604B7005320A700B724B7200200E4B55
S1131EC0984700200D4B98470BB0F0BD203BB9E775
S1131ED000080040004000413D21000024608000D3
S1131EE0FF01000080BBFFFFD51C0000991C00000F
S1131EF0551D0000051F0000291F0000E11F000000
S1131F0000040040064A936908210B4393610122AF
S1131F10044B1A7019000B781342FCD17047C04669
S1131F2000040040000C004070B5060004000D7869
S1131F302D0205434B78002B02D08023DB021D4386
S1131F404B7A002B02D080231B031D4348680128D1
S1131F5010D9431E184234D1022830D9022300225A
S1131F6001325B009842FBD81202324314008023F2
S1131F705B031D430B7A002B02D080239B031D437C
S1131F80134A53785BB2002BFBDB124B9847124B7E
S1131F901E700F4A53785BB2002BFBDB0C4B9C602A
S1131FA01A0053785BB2002BFBDB094A536880218B
S1131FB049020B401D435560084B984770BD0022F1
S1131FC0D2E70402344380239B021D43D2E7C04678
S1131FD0000C0040AD110000080C0040ED110000A1
S1131FE010B504000B4A53785BB2002BFBDB0A4BA1
S1131FF098470A4B1C70074A53785BB2002BFBDBF3
S1132000044A516880235B020B435360044B984796
S113201010BDC046000C0040AD110000040C00408F
S1132020ED11000070B504001A4A53785BB2002B1E
S1132030FBDB194B9847194B1C70164A53785BB25B
S1132040002BFBDB134E7068C004C00E144B984782
S11320500500124B1C707668F602F60F114B1C70CB
S11320600C4A53785BB2002BFBDB0A4B9C682402BE
S1132070240C0D4B9847002E07D1012C07D92100C1
S113208028000A4B9847050001E00134E540280088
S113209070BDC046000C0040AD110000040C0040AF
S11320A0051C0000080C0040ED110000914A0000DE
S11320B010B50400064B9847064B1C70064A53881B
S11320C08021C9010B435380044B984710BDC0467F
S11320D0AD110000020C0040000C0040ED110000A6
S11320E010B504000F4B98470F4B1C700F4A5388D0
S11320F01B05180F53880E490B40538053880D4914
S11321000B40538011008022D2014B881342FCD132
S113211006494A8803020648024013434B80064B93
S1132120984710BDAD110000020C0040000C0040A7
S1132130FFF0FFFFFFBFFFFFED11000010B50C78AB
S113214024020443024B9847A4B2024B5C8010BDA6
S1132150E1200000000C004010B50400064B984735
S1132160064B1C70064B5C882405240F054B9847CE
S11321702000054B984710BDAD110000020C004033
S1132180000C0040ED1100002520000030B5D3788C
S1132190002B35D11378802B29D01B0680246402B0
S11321A0234354780225AC4306D19478002C20D1E3
S11321B08024A402234341605478013C012C1CD99F
S11321C00D042D0CA024E4052C431C4384620D0C47
S11321D0D02424062C431C438462D478002C22D1BE
S11321E05B031CD59378012B1ED0416117E00023BB
S11321F0D7E7C024E4022343DDE70D4C2340DFE7A7
S113220041600C04240CA023DB05234383620C0CE3
S1132210D0231B0623438362D378002B03D1537846
S1132220013B012B02D930BD8161F8E78160FAE7F7
S1132230FFFFFBFF10B50A00C1090023002904D1E8
S11322404309DB0105498C4663441F2420400121D6
S113225081401800024B984710BDC046004400411D
S11322608D2100007047000010B5054B9847054BC1
S11322709847054B9847054B9847054B984710BD21
S1132280FD1D000065220000652200008912000087
S11322906522000010B584B003AB00221A7003322B
S11322A05A70013A9A70013ADA70274B1B788342CC
S11322B007D0002807D1244B1B78002B23D1224BB5
S11322C0187004B010BD03AB1B5C204AD25CFF2A1B
S11322D000D1FEE7EFF3108251424A41019272B6F7
S11322E0BFF35F8F00211A4A1170019C1749CA5C21
S11322F00132CA54002CDED00122154B1A70BFF3F0
S11323005F8F62B6D7E703AAD35C104AD25C002A77
S113231000D1FEE7EFF3108251424A41029272B6B5
S1132320BFF35F8F00210A4A1170029C0749CA5CFF
S1132330013ACA54002CC2D00122054B1A70BFF3D3
S11323405F8F62B6BBE7C0463C0700205C070020F5
S11323501201002043060BD00F2303405B00C00989
S113236018180238830018188000024B1818704798
S11323700020FCE7C4060020F0B5D6464F4646468A
S1132380C0B589468D796BB2002B26DB28005E4BE5
S1132390984704000F272F40038A98464B461B8812
S11323A09A46837C5B076AD4E36853441E00E36067
S11323B0A3689E4200D874E0E360A37C01229343A7
S11323C0A3742368002B03D0E1682A0000209847F7
S11323D01CBC90469946A246F0BD28004A4B98473B
S11323E004000F272F40038A98464B465E88C36833
S11323F09C466644C66081688E4225D08D1BADB272
S1132400424B9D4206D91D0041461800404B984757
S11324106D1AADB2A27C0023920707D5414628006D
S11324203C4B984789B24B424B41DBB25B00A27CE8
S113243002218A431343A374626892192B00390062
S11324403548364CA047C3E7837C9B070BD4837C79
S11324500122934383740368002BB9D02A0031000E
S113246000209847B4E7837C022293438374426834
S11324709219002339002848284CA047A8E743684C
S1132480C268944663441E0041468068214B9847C5
S11324900A007B1E9B01224959183000214B9847A2
S11324A082E74A469288524500D086E79E4200D190
S11324B083E79B1B9DB2154B9D4216D91D004146D7
S11324C01800134B98476B1A9BB2984514D9A37CF8
S11324D004221343A3747A1E9201114BD21843466B
S11324E039000D48104CA04772E741462800094BBB
S11324F098476B1A9BB2E8E762689219390006485C
S1132500094CA04764E7C04655230000FF1F0000A4
S1132510714D00009D4B0000740800203D35000003
S1132520B4070020594E00009135000010B5052273
S1132530054B1A70054C80212000054B984700215B
S11325402000044B984710BDC206002074080020E8
S113255091340000B734000070B5124B9B8C9B067D
S11325601AD41049D022CB681340D02BFBD10E4C87
S1132570022120000D4B9847042120000C4DA84750
S11325800C4A062120000C4B984706212000A8473E
S113259003200A4B984770BD02491022CB681A42A7
S11325A0FCD0E4E70008004074080020D12F0000AC
S11325B0B12F0000ED2500008D2F000095220000B2
S11325C010B5064C04212000054B98470221200039
S11325D0044B98470120044B984710BD7408002011
S11325E0D12F0000B12F00009522000070B50E001D
S11325F00E4C062120000E4DA84704212000A847B8
S1132600022120000B4B984702200B4B984733685C
S1132610002B04D1094B9847094B984770BD094BCF
S113262098473368002BF7D1F4E7C04674080020BC
S1132630D12F0000B12F0000952200009740000028
S1132640954000009940000030B583B004001E4B53
S1132650984780232268937201AD28001B4B98474A
S113266003236B7029002000194B98471949200057
S1132670194B9847194B022200212000184DA847F6
S1132680184B002200212000A847174B01220021EB
S11326902000A847022200212000144DA847002250
S11326A000212000A847012200212000A84721681A
S11326B00B890F4A1A408023DB0013430B8100224D
S11326C00C4B1A7003B030BDD90C0000DD31000092
S11326D0ED310000F4090020E1350000312800004C
S11326E0ED2F0000252B0000352700003D300000B1
S11326F0FFF3FFFFC206002010B50322074B1A7038
S1132700074C08492000084B9847084B9A68002357
S113271000212000064CA04710BDC046C206002080
S113272074080020F4090020E1350000DC090020D1
S11327303D35000010B589794BB2002B06DB0E4BFA
S11327401B78022B0FD0032B11D010BD0A4B1B7822
S1132750012B05D0042BF8D10848094B9847F4E71E
S1132760084B9847F1E70422034B1A70EDE703483E
S1132770034B9847E9E7C046C206002074080020CE
S113278091340000F926000070B5204B1B88204AC4
S11327909489E41AA4B2002C18D11E4A11885B183B
S11327A09BB213801A4AD2889A4223D01A4B1B78C0
S11327B0002B1FD1164B5B69002B23D098470028B0
S11327C020D00022114B1A80114B9C893F2C19D91F
S11327D00022114B1A7040240C4D2B880C4A92682D
S11327E0D218230000210D480D4EB0472B88E41861
S11327F02C8070BD04220B4B1A700B4907480B4BFD
S11328009847F6E70122044B1A70E5E7BE0600205C
S1132810DC090020C0060020BC060020740800204B
S11328203D350000C2060020F4090020E135000017
S113283010B50C002C4B1B78002B07D02B4B1B69BD
S1132840002B00D098470022274B1A702388082BAE
S113285002D0274B984710BD244A264B1978117093
S113286059785170D87800029978091851805879AC
S11328700002197909189180D97909029B795B18AA
S1132880D3801D4B9847002816D0184B1B787F2BFC
S113289015D8164BDB88002B22D00023174A13804F
S11328A0174A13800122104B1A704023114A002149
S11328B01448154CA047CEE70D4B9847CBE70023AF
S11328C00E4A13800E4A13800222074B1A704023CB
S11328D0084A00210B480C4CA0470C4B9847BAE718
S11328E00B4B9847B7E7C046C2060020DC0900201E
S11328F02D250000F4090020690D0000C006002009
S1132900BE060020740800209135000089270000CD
S1132910F926000010B5014B984710BD250D0000A5
S113292010B5040001000A480A4B984720000A4BDE
S11329309847837CDB070AD5837C01229343837405
S11329400368002B03D0C16822000120984710BD02
S11329507408002031340000552300000020704723
S1132960024B1B68188A8004400D704774080020CD
S1132970024B1B68188A80B27047C0467408002056
S113298070B582B0040001AD28000D4B98472000BB
S11329900C4B98472C700023EB700B4E2900300031
S11329A00A4B98470F21214000223000084B9847DA
S11329B0002221003000074B984702B070BDC0468A
S11329C0DD3100002129000074080020ED310000F1
S11329D0153000000D310000F0B583B005000F0084
S11329E0140001AE3000364B98473570082C13D8CC
S11329F0002201AB5A702800324B9847048203210D
S1132A003940012938D0022943D0002303293DD17C
S1132A10042201ABDA7032E0102C03D8012201AB9E
S1132A205A70E8E7202C03D8022201AB5A70E2E77F
S1132A30402C03D8032201AB5A70DCE7802C03D866
S1132A40042201AB5A70D6E780235B009C4203D872
S1132A50052201AB5A70CEE780239B009C4203D829
S1132A60062201AB5A70C6E7174A002394420DD8D8
S1132A70072201AB5A70BEE7022201ABDA7001A94A
S1132A801248134B98470023002806D0180003B0BF
S1132A90F0BD032201ABDA70F1E70F2129400B4CA2
S1132AA00C4B002220000C4EB047002229002000CD
S1132AB00A4EB047012229002000B0470123E5E770
S1132AC0DD31000055230000FF03000074080020DE
S1132AD0ED31000079230000ED2F00003D300000AF
S1132AE010B501000148024B984710BD740800203E
S1132AF06734000010B504000F2303400020032BAB
S1132B0000D910BD21000448044B98472000044B11
S1132B1098470120F5E7C04674080020913400006E
S1132B202129000070B5344B1B78012B0AD0022BED
S1132B305FD0324B1B69002B00D0984700222E4BEC
S1132B401A7070BD0D882D4B9B892D4A148862190B
S1132B50934201DA1D1BADB2284B986800192A0074
S1132B602849294B98476419A4B2254B1C80402D51
S1132B700AD0224B9C815B69002B02D09847002825
S1132B8014D0224B9847DCE71C4BDA88204B1B8877
S1132B901B199A42EDDD194B9B89A3420CD04023AB
S1132BA0184A00211B481C4CA047CAE70522124BB7
S1132BB01A701A4B9847C4E7104B5B69002B0BD073
S1132BC0984700280FD012490D4A0B8810881B180B
S1132BD00B8000231380E2E70522074B1A700020C4
S1132BE00E4B9847ADE70522034B1A700B4B9847E1
S1132BF0A7E70B4B9847A4E7C2060020DC09002096
S1132C00BE060020F4090020594E0000F9260000F9
S1132C10C00600207408002091350000F52A000049
S1132C208927000070B504000F2303400020032B04
S1132C3000D970BD2000094B9847050021000848C1
S1132C40084B9847AB7C0120DB07F2D5AB7C012213
S1132C509343AB742B6898470120EAE7552300009F
S1132C6074080020B7340000F0B587B00500039164
S1132C70029201930F2606400024032E02D920005D
S1132C8007B0F0BD644B9847041E00D0BDE0280097
S1132C90624B98470700EFF310835A425341059360
S1132CA072B6BFF35F8F00225D4B1A70059A837C66
S1132CB0DB0708D5002AE2D00122594B1A70BFF372
S1132CC05F8F62B6DBE7837C01210B438374002AA8
S1132CD005D00122524B1A70BFF35F8F62B6029B7C
S1132CE07B60019BBB600023FB600C9B3B6001236A
S1132CF0039A13405A00BB7C02218B4313430422E2
S1132D009343BB746BB2002B20DB019B002B6FD071
S1132D109CB2444B9C425AD9398A1C001800424B3D
S1132D209847631A9AB23B8A9A4257D2BA7C0421D2
S1132D300A43BA74721E92013C49521831003C484D
S1132D403C4CA04744424441E4B298E7019B002B29
S1132D5027D09DB2334B9D4206D9398A1D001800F5
S1132D60314B98476B1A9DB2BB7C9B0707D5398AB8
S1132D702800314B984789B24C424C41E4B20120BF
S1132D8020404000BC7C02239C430443BC742B00C1
S1132D90029A31002648294CA04744424441E4B2F7
S1132DA06DE7BB7C9B0705D5BB7C02229343BB74B8
S1132DB00025ECE7BB7C01229343BB740C9B002BE6
S1132DC025D02A00002100209847012457E7398A9A
S1132DD02000194B9847631A9AB2A4E71300029A89
S1132DE031001348134CA04744424441E4B246E73F
S1132DF0BB7C01229343BB740C9B002B09D02A009B
S1132E00002100209847012439E7002437E70124F2
S1132E1035E7012433E7C046E12A000055230000CA
S1132E2012010020FF1F0000714D0000B4070020B4
S1132E3074080020913500009D4B00003D350000D2
S1132E40024B1B688022104398727047740800205C
S1132E50024B1B68987A4006400E704774080020A5
S1132E60014B986099817047DC09002070B50320FC
S1132E70164B9847164C2268138901218B43138102
S1132E80144A03312000144EB047144A0021200094
S1132E90B047134A01212000B047124A0221200002
S1132EA0B04704212000104DA84700212000A84766
S1132EB001212000A84702212000A8470B4A06212F
S1132EC02000B04706212000A84770BD95220000CD
S1132ED074080020C12500008D2F00001529000072
S1132EE04926000059250000B12F0000ED250000FF
S1132EF070B582B0EFF310835A425341009372B617
S1132F00BFF35F8F0022184B1A70009C01AD28009C
S1132F10164B98470323AB70154E2A001549300011
S1132F20154B98473000154B9847154B9B8C9B06C7
S1132F3014D41349D022CB681340D02BFBD10120E9
S1132F40104B9847104B9847002C05D00122064B94
S1132F501A70BFF35F8F62B602B070BD08491022C9
S1132F60CB681A42FCD0EAE712010020053D0000BC
S1132F707408002000500041153D00001136000087
S1132F8000080040952200006D2E000010B50B00D3
S1132F902E339B001A50AA2252004900835A034C34
S1132FA0095B0B438352002010BDC046E84E00006D
S1132FB04900064BCB5A02689383AB214900425A1D
S1132FC01A4342520268138300207047E84E0000FF
S1132FD04900054BCA5AAB214900435A9343435213
S1132FE003689A8200207047E84E000010B58C00F8
S1132FF0A4183434A4000419636040185930FF3015
S1133000037803498A5C13430370002010BDC04653
S1133010F84E000010B58B009B1834339B00C31886
S113302000245C6040185930FF30034B9A5C0378ED
S113303093430370002010BDF84E000070B50F23B9
S11330400B40C4186134FF3425782F4EB65C3543E9
S11330502570002A29D1002B12D103250A24FF341C
S113306006683555032A09D149B2002944DB0268B0
S11330705B01D3180A33FF3320221A70002070BD7D
S11330804CB2002C08DB5C010568AC4664440A348D
S1133090FF3401252570E5E75C010568AC4664440E
S11330A00A34FF3402252570DCE7012A1AD1002BEB
S11330B005D102680C210A23FF33D154DEE749B25B
S11330C0002907DB02685B01D3180A33FF330422AB
S11330D01A70D3E702685B01D3180A33FF3308225E
S11330E01A70CBE7022ABDD102685B01D3180A33F8
S11330F0FF3310221A70C1E702685B01D3180A3348
S1133100FF3340221A70B9E7F84E000070B50F2360
S11331100B40C4186134FF342F4DAE5C2578B543A1
S11331202570002A29D1002B12D1032584246400A0
S113313006683555032A09D149B2002944DB0268DF
S11331405B01D3180933FF3320221A70002070BDAD
S11331504CB2002C08DB5C010568AC4664440934BD
S1133160FF3401252570E5E75C010568AC4664443D
S11331700934FF3402252570DCE7012A1AD1002B1B
S113318005D102680C210933FF33D154DEE749B27B
S1133190002907DB02685B01D3180933FF330422DB
S11331A01A70D3E702685B01D3180933FF3308228E
S11331B01A70CBE7022ABDD102685B01D318093328
S11331C0FF3310221A70C1E702685B01D318093378
S11331D0FF3340221A70B9E7F84E00000023037051
S11331E0437083700133C37070470000F0B50C78EE
S11331F00F23234064B2CA78042A70D89200894D00
S1133200AA589746026808335B01002199540022AA
S113321082E05C0102689446644480225200A55C0A
S1133220E43A6D0778D1E432A65C7025E43A2E4284
S113323072D15F3DE432A5541A0008325201046889
S1133240A4182F35657100688218802010718A785F
S1133250002A1FD05801744A1218546880200006AE
S11332600443546054692043506107254C785A0143
S11332706D4B9B1858682C4024076C4E30402043FB
S1133280586049785A692940090732400A435A610B
S1133290002241E05801644A121850684000400876
S11332A050605069400040085061DEE7002C35DB77
S11332B05D0102689446654480225200AE5CE43AA3
S11332C0760729D180267600AA5D02273A43AA55BB
S11332D00268180008304001121840205071E20FB3
S11332E04F785D00AD182D014F4E7519686807249D
S11332F03C4024074D4E30402043686089780029C3
S113330000D088E05B009B181B01474AD3185A6819
S1133310520052085A6000221000F0BD5D0102689C
S11333209446654480225200AF5C7026E43A3742EA
S1133330F2D19036AA5D20273A43AA5502681800B4
S113334008304001121880201071C8E7002C17DBE8
S11333505D0102689446654480225200AE5CE43A02
S11333607607D9D180267600AA5D03273A43AA5569
S11333700268180008304001121840205071AEE76E
S11333805D0102689446654480225200AF5C702659
S1133390E43A3742C0D19036AA5D30273A43AA5561
S11333A0026818000830400112188020107196E756
S11333B0002C17DB5D0102689446654480225200AC
S11333C0AE5CE43A7607A7D180267600AA5D04278E
S11333D03A43AA55026818000830400112184020E8
S11333E050717CE75D010268944665448022520076
S11333F0AF5C7026E43A374200D08DE79036AA5D80
S113340040273A43AA5502681800083040011218B0
S11334108020107163E7696880231B060B436B608F
S1133420002279E7D44E0000340A0020FFFFFF8F0A
S11334300F230B4049B200290ADB08335B01026801
S1133440D218402151710268D3180122DA717047F1
S113345008335B010268D218802111710268D31805
S11334600222DA71F3E70F230B4049B2002907DB8C
S1133470026808335B01D3189879C006C00F7047FF
S1133480026808335B01D31898798006C00FF6E709
S11334900F230B4049B2002906DB026808335B01A5
S11334A0D31810225A717047026808335B01D3188D
S11334B020225A71F7E730B50F230B4049B2002997
S11334C01DDB59010268521883246400145DE4066C
S11334D014D5102582246400155502685218082159
S11334E0FF31515C890609D5E43C0821FF3154546D
S11334F0026808335B01D31801221A7130BD5901E7
S11335000268521883246400145DA406F6D52025AD
S1133510822464001555026852180821FF31515C59
S11335204906EBD5C43C0821FF31545402680833E2
S11335305B01D31802221A71E0E7000030B50C00D9
S1133540083464010568645D6406640F1C25002C5E
S113355001D1280030BD4C010B4D2D192C002A61DE
S11335606A690A4D2A40626162699B049B0C920B52
S11335709203134363610368083149015918802396
S11335804B710025E5E7C046340A0020FF3F00F0F8
S113359030B50C00083464010568645D64071C25BB
S11335A0002C01D1280030BD0B4C4D012A51621969
S11335B054689B041B09094D2C40234353605368F2
S11335C09B0B9B035360036808314901591840233E
S11335D00B710025E6E7C046340A0020FF3F00F0E7
S11335E0094B19605A6809491140802292020A4322
S11335F05A605A68920B92035A60026840218223EF
S11336005B00D15400207047340A0020FF3F00F0D3
S11336100268137802210B43137002689378022B1B
S1133620FCD07047F0B5DE4657464E464546E0B5F9
S113363083B0C44B1F683D682B78DB0914D12E8CF2
S1133640B6B2002E00D02DE2AE8BB6B2AB235B0037
S1133650FB5AAA225200BD5A1D4035400024BA4FDD
S1133660B84B9946984608E22B8C9BB2002B00D1AC
S11336703DE1288C80B2B54B984704001F2800D93F
S113368035E1030008335B01ED18ED79EDB2AB07CA
S113369041D0AF4A0123834011689943116003006C
S11336A008335B013A68944663440322DA713B1899
S11336B0AE331B78DB072ED5A64B18703A6803008F
S11336C008335B019B5C9B079B0F012B00D194E0AB
S11336D04201A14B9B185A681201920C90B29D4969
S11336E04A805A689204920C8A805A689B490A401C
S11336F05A60002807D16201974B9B185B689B04B2
S11337009B0C944A53808F4B1868A31C1B01C3184D
S11337105B68904998476B071FD58A4B1868026805
S1133720230008335B019B5C9B065B0F022B75D067
S1133730230008335B019B5C9B065B0F032B00D1CA
S11337409EE06201844B9B1800229A720368220057
S1133750083252019B180422DA712B0715D57C4AD2
S11337600123A340116899431160764B1868230024
S113377008335B010268944663440822DA71031932
S1133780AE331B789B0700D594E0EB0615D5704A41
S11337900123A3401168994311606A4B1868230000
S11337A008335B010268944663441022DA710319FA
S11337B0AE331B785B0700D58AE0AB0600D42FE15B
S11337C0634A0123A3401168994311605D4B186853
S11337D0230008335B010268944663442022DA71B3
S11337E00319AE331B781B0700D419E159490C7037
S11337F024010419236B984712E14201564B9B188C
S11338005A689204920C53494A805A681201920CE5
S11338108A805A68920B92035A6074E72300083333
S11338205B019B5C9B079B0F012B81D161014A4B80
S11338305B1808339B78DB0700D479E7444A0123FB
S1133840A3401168994311606201434B9B18002205
S11338509A72230008335B0102689446634404228D
S1133860DA710319AE331B789B0700D475E7394925
S11338700C7010234B702301C3189B6A98476CE7A4
S1133880230008335B019B5C9B079B0F012B00D03B
S113389057E76201304B9B1800229A7223000833C9
S11338A05B010268D2180421D1710268D318102276
S11338B05A7152E727490C706201274B9B18DB8928
S11338C01F2213404B702301C3189B6A98475CE77F
S11338D020490C706201204B9B185B681B019B0CF8
S11338E04B802301C318DB6A0021984765E7AC8B42
S11338F0A4B2630738D50423AB83154B1D68012399
S11339000120102602E00133082B29D002009A403E
S11339101542F8D039681A0008325201525C9206F6
S1133920520F032AEFD11A0008325201525C920757
S1133930920F012AE7D11A000832520189180E7138
S1133940E1E7C04640070020E84E00007D4D00003E
S11339505007002054070020340A0020FF3F00F0E5
S11339609D33FB5CDB0762D423070BD50022AF4BEE
S11339701A60AF4B18680823026893839D33C35CB5
S11339809B0758D4630608D5A94B186840230268DE
S113399093836533C35CDB0650D4A30608D5A44BDC
S11339A018682023026893838533C35C1B0748D4BB
S11339B0E30608D59E4B1868102302689383953359
S11339C0C35C5B0740D423060BD50022974B1A60D7
S11339D0974B18688023026893832533C35C9B0646
S11339E035D4E3050CD50022904B1A60904B18682F
S11339F080235B00026893835B3BC35C5B0629D432
S1133A00A3050DD50022894B1A60894B18688023C1
S1133A109B00026893835C3BFF3BC35C7F2B1CD8F9
S1133A2003B03CBC90469946A246AB46F0BD7B68C9
S1133A303800984798E783689847A3E7436998470D
S1133A40ABE703699847B3E7C3689847BBE7836963
S1133A509847C6E7C3699847D2E7036A9847DFE700
S1133A6023002E339B00424612689B5871494246FC
S1133A70106898470134072CD2D06300DB5B3342D3
S1133A8003D04A461268126893832B42F2D0062C64
S1133A90E6D1694B1B891B09802252001340654AF9
S1133AA01360DDE73C005934FF34002301229446BF
S1133AB05F329146503A92460D3A9346B8462F00EB
S1133AC0C3E02A003D00474690465B01ED180823F9
S1133AD0FF33EB5C5B0615D540220823FF33EA5421
S1133AE0883BFF3B42461343544A937160230B4285
S1133AF096D0019B1B01FB18E0331B684F4938002B
S1133B0098478DE70823FF33EB5C9B06EED5202214
S1133B100823FF33EA54494B42469A71E6E73D00D5
S1133B204746019A130008335B01ED181023EB712B
S1133B30BB186133FF331B78DB0600D470E7100039
S1133B4052013D4B9B185B689B049B0C3B490B80CB
S1133B500301FB18DC331B684046984760E72A00E2
S1133B603D00474690465B01ED180823FF33EB5CAC
S1133B709B071ED502220823FF33EA542F48883BB3
S1133B80FF3B424613438371019B5A012A4B9B1806
S1133B9010335B689B049B0C43808B0700D13FE789
S1133BA0019B0D331B01FB185B68244938009847BF
S1133BB036E70823FF33EB5CDB07EED5012208234D
S1133BC0FF33EA541D4843468371019B5B011A4A43
S1133BD0D21853689B049B0C038053681B019B0CF5
S1133BE08380DAE70822FF329A5C520779D50420F1
S1133BF00822FF329854019842010F4B9B189B7A7C
S1133C009B0705D50C4B9B189A7A022082439A7223
S1133C100A4B42469A71019B08335B013A68944609
S1133C206344DB79DB075CD5FAE6C0465007002025
S1133C304007002044070020340A002048070020E1
S1133C4001330134082B00D1EAE6DDB201933200DE
S1133C501A4161461142F3D01A0008325201BA18CF
S1133C60D279D2B2217A11402078014048461042DC
S1133C7000D026E75046104200D050E75846104284
S1133C8000D06CE70C201042DAD02A003D004746F1
S1133C9090465B01EB180822FF329A5C1207A1D50B
S1133CA004380822FF32985401984201134B9B18A0
S1133CB09B7E9B0705D5114B9B189A7E022082435D
S1133CC09A7680235B42424613430D4A9371019BCB
S1133CD008335B013A6894466344DB799B0700D55B
S1133CE09EE60C230B4200D19AE6019B1B01FB18B4
S1133CF0D8331B6802493800984791E6340A0020FB
S1133D004807002000220270012343708270C370B0
S1133D1070470000F0B5CE46474680B583B0040036
S1133D200D00160000236E4A13606E4A1060216075
S1133D306D49CA6920200243CA6101AF7B70012228
S1133D40BA70FB70063399463B7039000838674BEC
S1133D50984698474B463B7039001920C047B378C2
S1133D606A46137069460620614B98470620614BEA
S1133D7098472B78012213432B70AB78DB07FCD4D4
S1133D805D4AD37803218B4302210B43D370D3784C
S1133D900C218B4308210B43D370584B1B689B03A6
S1133DA0DB0E1F2B00D18FE02A8D9B0154490A4062
S1133DB013432B85514B1B685B02DB0E1F2B00D179
S1133DC084E02A8D1F218A4313432B854B4B1B68A8
S1133DD09B015B0F072B00D17AE02A8D1B03494915
S1133DE00A4013432B8532782978D2017F230B4074
S1133DF013432B7071782B7801220A40920004211E
S1133E008B4313432B70404B6B62F378012B61D0CF
S1133E10002B06D1226813890C218B4304210B4308
S1133E2013818022520000213748384B9847231DC4
S1133E3021002431002204C38B42FCD12100A4318F
S1133E4000221A605A609A60DA6010338B42F8D10B
S1133E500023A422A3540132A3542300A633210037
S1133E60AE3100221A701A7201339942FAD123003A
S1133E70B8332100D431002204C38B42FCD1210089
S1133E805531FF3100221A605A609A60DA601033AB
S1133E908B42F8D10023AA225200A3520232A35229
S1133EA023005933FF336134FF3400221A701A722D
S1133EB00133A342FAD18022154B1A60002003B0CB
S1133EC00CBC90469946F0BD1A3B6DE7023B78E77F
S1133ED0043B82E72268138908318B431381A0E7EE
S1133EE05007002040070020000400403522000055
S1133EF03D210000B12000000050004124608000FA
S1133F003FF8FFFFFF8FFFFF340A00206B4E0000D5
S1133F1000E100E0FEE70000F8B52A4A2A4B9A4285
S1133F2011D01A00294B9A420DD2294A03339B1A05
S1133F309B0801339B000022234822498C5884505B
S1133F4004329A42FAD1234A234B9A420AD2D343E7
S1133F5021495B1803218B4304339B18002102C2BF
S1133F609342FCD11D4AFF211D4B8B439360FD39C5
S1133F7090235B001B4AD1501B4AD3780325AB43E3
S1133F8002242343D370D3780C27BB43082633433E
S1133F90D370164B987B30229043202210439873A1
S1133FA0997BB943314399739A7BAA4322439A7309
S1133FB00F4A536880210B4353600E4B98470E4BB6
S1133FC09847FEE7844F0000000000201401002001
S1133FD00400002014010020DC0C002000ED00E0AF
S1133FE00000000000700041005000410048004102
S1133FF000400041114E0000FD3F000030B583B089
S11340001A4B1A68531C17D0194B802109025960A6
S113401006244F201C5499611B6A1B04DB0F69465C
S1134020CB71CB79002B07D0C023DB01196881F356
S1134030088810498B6010470F4B98470F4B9847DF
S11340400F4B98470F4D104C2B78002B08D1A047ED
S11340500028F9D001200D4B98470D4CA047FDE7EF
S113406000200A4B98470A4CA047FDE70460000073
S11340700044004100ED00E069220000CD0C000086
S1134080394500005A070020B5460000C140000031
S11340909941000070477047704700000122024BAD
S11340A01A7001207047C0465A0700200022014BB5
S11340B01A7070475A070020704770477047000015
S11340C0012805D0002802D1034A044B1A60704726
S11340D0034A024B1A60FAE7484F00008C0B002099
S11340E02C4F0000F0B585B01F4B1B78002B36D049
S11340F004291BD0022922D000784D0004AB5A19A0
S11341000B3A002D17D101A83023037048334370B4
S1134110013149006E3B435445190333EB700231BE
S1134120124B1B68DB68984705B0F0BD00684D0072
S113413004AB5A190B3A00240F26302708E00088F4
S1134140F5E7373313700009013A0134AC42DAD28F
S113415033000340092BF4D83B431370F3E7034BBC
S11341601B68DB689847DFE75B0700208C0B0020A7
S113417072B6BFF35F8F0022054B1A70EFF308830A
S1134180044A1360036883F3088843681847704738
S113419012010020900B0020F8B5DE4657464E462B
S11341A04546E0B50022CC4B1A607A32CB4B1A70EC
S11341B0CB4B9A46CB4B9B46CB4CC84B98465B4665
S11341C01B681B69402150469847C84B1860C64B72
S11341D052461A600022C64B1A600028EFD0C24D26
S11341E0D8E0C44B1B78002B72D1BC4B1B78532BEB
S11341F075D0522B00D1E7E04F2B00D1EDE0482BD6
S113420000D1F0E0572B00D1F3E06F2B00D1F6E0A2
S1134210682B00D1F9E0772B00D1FFE0472B00D1C8
S113422005E1542B00D111E14E2B00D118E1562B9E
S113423000D098E0AB4B99461B68DB680121AE487F
S113424098474B461B68DB680421AC4898474B46AB
S11342501B68DB680121AA4898470022A44B1A6016
S1134260A84AA14B1A60A2481A000368591C0160AD
S113427013685E1C16601B78002BF6D1994B994687
S11342801B68DB68A04898474B461B68DB68012124
S11342909B4898470022964B1A609C4A924B1A609E
S11342A093481A000368591C016013685E1C166069
S11342B01B78002BF6D18B4B99461B68DB6894481E
S11342C098474B461B68DB680221924898474AE0AE
S11342D0844B1B68DB6802218E48984785E7834B33
S11342E01B68834A126893422ED97F4801680131C2
S11342F0016001327E490A60874909689B1A8B4232
S113430000D90B00854A13600021854A1170002BE7
S11343101AD07149744A764F8148804B9C46136881
S11343201B780E6833700B6801330B60136801331C
S113433013603B6801333B6003780133DBB20370E5
S113434066463668B342EAD3694A1368013B136090
S1134350654A1368013B1360714B1B786E4A116800
S11343608B4229D3C0467A225C4B1A7000226A4BD6
S11343701A60604B1B78002B00D080E02368013367
S113438023605B4A136801331360584A12689A42E7
S113439000D814E72B681B78FF2BF2D0232B00D115
S11343A01FE71A00303A092A70D85B490A681201DB
S11343B0303B13430B60E1E7C91A474B1868494B7C
S11343C01B689B699847CDE7534B1968424B1868A3
S11343D0444B1B685B699847C5E73F4B1B684E4AD3
S11343E012681A70BFE73C4B1B684B4A12681A806C
S11343F0B9E7394B1B68484A12681A60B3E7364B71
S113440018680121474B9847ADE74348324B1B6876
S11344101B8803600221434B9847A4E72E4B1B687B
S11344201B683D48036004213E4B98479BE73A4B89
S113443018683D4B98473D4B1B6883F3088801225D
S11344403B4B1A70BFF35F8F62B68CE70122294B96
S11344501A70244B1B68DB6802212E48984782E7B8
S1134460244B1B78002B03D00022224B1A707AE7CE
S11344701C4B1B68DB68022126489847F4E7194B5C
S11344801B68DB6801212B48984777E71A00413AFB
S1134490052A06D820490A681201373B13430B60EA
S11344A06CE71A00613A052A06D81B490A6812010A
S11344B0573B13430B6061E72C2B05D04246137026
S11344C00022154B1A6059E7134B034A196811600F
S11344D000221A6052E7C046880B0020400B0020DF
S11344E0480B00208C0B00203C0B0020380B0020D4
S11344F0440B00205B070020084F0000FC4E000026
S11345000C4F0000114F0000104F00001D4F000021
S11345101C4F0000044F0000940B0020980B002057
S1134520340B0020E540000071410000900B002096
S113453012010020284F000030B591B08023DB0524
S1134540009300230193FF2269460A8100228B72A3
S1134550CB72012124206C46215401302154253191
S11345606354013163540A93053163540131635434
S11345700E930F9305932382E37622762277627655
S11345801323A3766277E1235B02089380235B0302
S11345900393264B0C93264B0D93264D264C6A46CB
S11345A026492800A0470028F9D1224D2C68200074
S11345B0234B98471F2318401E3B8340214A136016
S11345C02A68D369002BFCD1236802221343236099
S11345D0184B1B68DA69002AFCD159688022520200
S11345E00A435A600121134AD171DA69002AFCD1C5
S11345F0DA69002AFCD15968802292020A435A607F
S113460001210C4A9171DA69002AFCD100230E4A77
S113461013700E4A13700E4A13700E4A13700E4A2A
S113462013700E4A137011B030BDC046020016005C
S113463002001700A40B0020A5160000001400427D
S11346404116000000E100E09C0B00205A0C002001
S11346509D0B0020A00B00205B0C0020580C0020B8
S113466010B581B20248034B9847012010BDC046E3
S1134670A40B0020E1190000024B187E4007C00F74
S11346807047C0460014004210B582B0064CA047E3
S11346900028FCD06B469C1D21000448044B98471D
S11346A0208802B010BDC04679460000A40B00204B
S11346B0071A000010B5064B98470023002801D1C3
S11346C0180010BD034B9847233843424341F7E792
S11346D07946000089460000F8B50F1E07D0461839
S11346E00400044D2078A8470134A642FAD13800CA
S11346F0F8BDC0466146000010B50400024B98475F
S11347002070012010BDC0468946000000024840C8
S11347100823084906E04000484080B2013B9BB2B0
S1134720002B05D002B2002AF5DB400080B2F5E789
S11347307047C04621100000F0B5DE4657464E468D
S1134740C0B582B007000E1E2AD0002400230193B6
S1134750194B9A46194B9946194B9B4608E07B1C0A
S11347603D701F00802E16D00134A4B2A6421BD087
S1134770D047C5B24B461B78002B13D101992800B2
S1134780D84701900F4B1B88002BE8D10E4B1B78A8
S1134790002BE9D0E3E70B490A88013A0A80E3E7F2
S11347A0019101E001230193019802B01CBC9146E0
S11347B09A46A346F0BDC04689460000580C002026
S11347C00D4700009E0B0020590C0020F0B585B069
S11347D005000191022103A8174CA047802128005D
S11347E0A0470500154B1F78002F03D00027380081
S11347F005B0F0BD124EB047000284B2B047241891
S1134800A4B20E4B1B78012BF1D0A54204D103AB0B
S11348101B78019A934203D018200A4B9847E6E785
S1134820DB4303AA5278DBB29A42F5D10620054B4A
S113483098470127DBE7C04639470000580C0020A1
S11348408946000061460000F0B5DE4657464E46F4
S11348504546E0B585B00500894600224A4B1A70EA
S1134860002928D10132494B1A70494F464E340071
S1134870B8473378002B2CD1C0B2432803D0712819
S113488079D01528F4D1039501230293414B9B461B
S1134890414B98461C003D4B9A460120D847029D47
S11348A02800D847E843C0B2D847039D8027002397
S11348B001932E002EE0384B19800022334B1A70DE
S11348C00B005B06D1D00B0080337F3293439946B3
S11348D0CBE7002323702E4B9847C0B22378002BDC
S11348E0CBD00022284B1A70002045E00022264B32
S11348F01A70002040E03578013B238001362800FF
S1134900244B984701992800244B98470190013F74
S1134910002F08D043461B88002BECD15246157853
S1134920002DECD0E7E70500000AC0B2194EB047ED
S1134930E8B2B047164B9847134B1B78002BD5D1E0
S1134940FF231840062809D1029B0133DBB20293EE
S11349504B46803B9946039B803303934B46002B85
S11349609BD104200B4B9847094B98470022074BD7
S11349701A70012000E0002005B03CBC9046994626
S1134980A246AB46F0BDC046580C0020590C00208E
S113499089460000614600009E0B00200D47000080
S11349A0F0B5C64600B582B001900C0006202F4B2E
S11349B098470A212E4B9847009000222D4B1A70DD
S11349C0002C06D101322C4B1A7064252B4E2C4F2F
S11349D00EE02C4B1C800022274B1A70F5E7013C9B
S11349E0B847002808D1002CF9D1013D002D3BD057
S11349F04320B047009CF3E7002CF6D0019E01242D
S1134A00214F1C4D214B984612E00022194B1A707D
S1134A10002002B004BC9046F0BD21003000C04725
S1134A20144B1B78002B12D1012815D0002809D073
S1134A30B8472B78002BE8D1FF2318400128ECD08D
S1134A4004280DD000220C4B1A700120E1E700224B
S1134A50084B1A700020DCE70134E4B28036E7E743
S1134A600620064B9847EDE70020D2E7051C00001E
S1134A70914A0000580C0020590C002061460000A7
S1134A80794600009E0B002089460000CD470000B7
S1134A90002243088B4274D303098B425FD3030A79
S1134AA08B4244D3030B8B4228D3030C8B420DD38C
S1134AB0FF22090212BA030C8B4202D3121209021A
S1134AC065D0030B8B4219D300E0090AC30B8B4258
S1134AD001D3CB03C01A5241830B8B4201D38B0306
S1134AE0C01A5241430B8B4201D34B03C01A5241AB
S1134AF0030B8B4201D30B03C01A5241C30A8B42EE
S1134B0001D3CB02C01A5241830A8B4201D38B02D8
S1134B10C01A5241430A8B4201D34B02C01A52417C
S1134B20030A8B4201D30B02C01A5241CDD2C309EE
S1134B308B4201D3CB01C01A524183098B4201D36A
S1134B408B01C01A524143098B4201D34B01C01A55
S1134B50524103098B4201D30B01C01A5241C308CD
S1134B608B4201D3CB00C01A524183088B4201D33C
S1134B708B00C01A524143088B4201D34B00C01A28
S1134B805241411A00D20146524110467047FFE794
S1134B9001B5002000F0F0F802BDC0460029F7D0AE
S1134BA076E7704703460B437FD4002243088B42C9
S1134BB074D303098B425FD3030A8B4244D3030BA0
S1134BC08B4228D3030C8B420DD3FF22090212BA65
S1134BD0030C8B4202D31212090265D0030B8B42E1
S1134BE019D300E0090AC30B8B4201D3CB03C01ACB
S1134BF05241830B8B4201D38B03C01A5241430BA6
S1134C008B4201D34B03C01A5241030B8B4201D395
S1134C100B03C01A5241C30A8B4201D3CB02C01A00
S1134C205241830A8B4201D38B02C01A5241430A78
S1134C308B4201D34B02C01A5241030A8B4201D367
S1134C400B02C01A5241CDD2C3098B4201D3CB010E
S1134C50C01A524183098B4201D38B01C01A5241BD
S1134C6043098B4201D34B01C01A524103098B42C1
S1134C7001D30B01C01A5241C3088B4201D3CB00AC
S1134C80C01A524183088B4201D38B00C01A52418F
S1134C9043088B4201D34B00C01A5241411A00D23F
S1134CA001465241104670475DE0CA0F00D04942A8
S1134CB0031000D34042534000229C4603098B4218
S1134CC02DD3030A8B4212D3FC22890112BA030AA0
S1134CD08B420CD3890192118B4208D38901921122
S1134CE08B4204D389013AD0921100E08909C309A7
S1134CF08B4201D3CB01C01A524183098B4201D3A9
S1134D008B01C01A524143098B4201D34B01C01A93
S1134D10524103098B4201D30B01C01A5241C3080B
S1134D208B4201D3CB00C01A524183088B4201D37A
S1134D308B00C01A5241D9D243088B4201D34B0095
S1134D40C01A5241411A00D20146634652415B10D7
S1134D50104601D34042002B00D5494270476346B8
S1134D605B1000D3404201B5002000F005F802BDFD
S1134D700029F8D016E770477047C0464142084002
S1134D801C2101231B04984201D3000C10391B0A77
S1134D90984201D3000A08391B09984201D300093B
S1134DA0043902A2105C401A7047C0461B1C1D1D2A
S1134DB01E1E1E1E1F1F1F1F1F1F1F1FF0B5CE46C6
S1134DC0474615042D0C2E0080B50704140C3F0C27
S1134DD09946030C7E435D43674363437F19340C58
S1134DE0E4199C46A54203D980235B029846C44437
S1134DF04B46514343433604360C250C2404654486
S1134E00A4195918491920000CBC90469946F0BDC4
S1134E1070B500260C4D0D4C641BA410A64209D19C
S1134E20002600F09FF80A4D0A4C641BA410A64209
S1134E3005D170BDB300EB5898470136EEE7B300D7
S1134E40EB5898470136F2E7704F0000704F0000AE
S1134E50704F0000744F0000002310B59A4200D137
S1134E6010BDCC5CC4540133F8E7030082189342AC
S1134E7000D1704719700133F9E7000000080042BF
S1134E80000C00420010004200140042161C0000F6
S1134E90121C0000121C0000781C0000781C00008A
S1134EA02A1C00001C1C0000301C0000661C0000B2
S1134EB0801D0000601D0000601D0000EC1D00004E
S1134EC0721D00008E1D0000641D00009C1D00006A
S1134ED0DC1D00000432000012320000AC3200007D
S1134EE04C330000B0330000040008007000800060
S1134EF00100000100020000030C1060322E313664
S1134F00000000000A0D00007600000020000000F0
S1134F104D617220203720323032330030303A3342
S1134F20333A3238000000003E00000061460000C1
S1134F308946000079460000D9460000F946000081
S1134F4049480000A14900003D0A0000190700007B
S1134F50390600001D0B0000C50800001D0B0000F1
S1134F60D9080000F8B5C046F8BC08BC9E46704796
S1134F70DD000000F8B5C046F8BC08BC9E4670478A
S1074F80B500000074
S1134F8441010000150100007D0300002901000017
S1134F940000000041050000550300002501000045
S1134FA42901000045030000800000203400002093
S1134FB4940000203C000020A000002009024300CB
S1134FC4020100C0320904000001020201000524A8
S1134FD4001001042402020524060001052401032F
S1134FE4010705830340001009040100020A0000BC
S1134FF4000705810240000007050202400000008A
S11350041201010202000040EB03246100010102C9
S113501400010000050F0C0001071002020000004B
S11350240000002014000020000300000000000021
S11350340000000000000000000000000000000068
S11350440000000000000000000000000000000058
S11350540000000000000000000000000000000048
S1135064000000000403090441544D454C204153FD
S113507446000000415453414D2055534220746F5F
S11350842053657269616C20436F6E766572746532
S107509472000100A1
S9030000FC
