S0180000617473746172745F74696D6572735F332E7372656384
S113000080200020250100002101000021010000C2
S113001000000000000000000000000000000000DC
S113002000000000000000000000000021010000AA
S11300300000000000000000210100002101000078
S11300402101000021010000210100002101000024
S11300502101000021010000210100002101000014
S11300602101000021010000210100002101000004
S1130070210100000000000000000000050800004D
S113008021010000210100002101000021010000E4
S11300902101000000000000000000002101000018
S11300A021010000210100002101000021010000C4
S11300B00000000010B5064C2378002B07D1054B37
S11300C0002B02D0044800E000BF0123237010BDC0
S11300D02800002000000000300A0000084B10B582
S11300E0002B03D00749084800E000BF0748036815
S11300F0002B00D110BD064B002BFBD09847F9E72D
S1130100000000002C000020300A0000300A00002B
S11301100000000010B5014B984710BD35020000E7
S1130120FEE70000F8B5234A234B9A4209D0224B3C
S1130130204A03E011681960043304321F498B42DA
S1130140F8D31F4B02E000221A6004331D4A934285
S1130150F9D31D4AFF211D4B8B439360FD39902336
S11301605B001B4AD1501B4AD3780325AB430224BE
S11301702343D370D3780C27BB4308263343D3706F
S1130180154B987B30229043202210439873997B1F
S1130190B943314399739A7BAA4322439A730F4A12
S11301A0516880230B4353600D4B98470D4B984780
S11301B0FEE7C046300A00000000002028000020AE
S11301C0280000207C00002000ED00E0000000007A
S11301D000700041005000410048004100400041CF
S11301E09109000025080000044A116A80235B007D
S11301F00B431362024A034B5A80704700040040C9
S11302001A400000000C004010B5054B9847054B00
S11302109847020004490548054B984710BDC0465D
S1130220E9010000E5070000002000424C00002026
S11302306D03000010B50B4B9847C023DB058022EB
S113024012039A619A60084B8022D2059A62074A87
S11302509A6253215A5C012082435A54044B9847B2
S113026010BDC0464105000000440041080000C024
S113027009020000EFF31083036072B6BFF35F8FCF
S11302807047BFF35F8F036883F3108870470000E3
S113029010B5044B1C68044B984701002000034B25
S11302A0984710BD440000202105000039050000D6
S11302B0F8B50668002E02D0330000250CE0104B80
S11302C0984718E09F68BC466444A41A01348F68B8
S11302D0BC420BD21D001B68002B07D05C68944203
S11302E0F0D8A41A9F68BC466444F0E7B34203D034
S11302F02800044B9847F8BD014B9847FBE7C046DC
S1130300BD040000E9040000F8B505004469036970
S11303105E1C0661037EDB0702D4037E9B070AD5BD
S11303202B7E02221343DBB22B76F8BD6F69E368A0
S1130330200098473C00002CF7D06368F31AA268A9
S11303409342F2D32F0014373800064B9847237C8E
S1130350012BEBD16660320021003800024B984734
S1130360E4E7C046F1040000B102000070B50400E7
S11303700D00002812D000290ED001203B2208498C
S1130380084B984729002000074B98470023236116
S1130390064B2360002070BD0020EFE70020EDE74E
S11303A0D80900009D040000E106000009030000D4
S11303B010B50400431E9841C0B253220749084BAC
S11303C098472000074B9847002804D12000064B8B
S11303D09847002010BD11204042FBE7D8090000D7
S11303E09D040000D3070000C107000070B582B06F
S11303F004000D00002826D0002922D001207A22F2
S11304001F49204B9847237E01221343DBB22376F6
S113041026001436290030001B4B9847002814D1BD
S113042023696B60226929003000184B9847237EAA
S1130430012293432376237E9B0712D4002002B02B
S113044070BD0020DBE70020D9E7237E012293431F
S113045023767E320A4900200A4B984712204042F4
S1130460EDE701A80A4B9847237E022293432376A3
S11304702000084B984701A8074B98470020DEE767
S1130480D80900009D040000A5040000B10200008A
S113049075020000E907000083020000002800D173
S11304A000BE70470368002B03D08B4203D01B6847
S11304B0F9E7002070470120FCE7000070B5040054
S11304C00D00064B984701235840C0B23922044915
S11304D0044B984723682B60256070BDA504000079
S11304E0F00900009D04000003680B600160704780
S11304F00368002B03D01A680260180070470020BC
S1130500FCE7000043B2002B07DB1F2318401E3B0F
S113051083408022520001498B50704700E100E083
S113052010B503011B1A58011D301E21014B9847B9
S113053010BDC046790800000139FDD8704700009D
S113054010B5084A536802210B435360064B984781
S1130550064B98470820064CA047064B9847F720BF
S1130560A04710BD00400041B9050000D9050000B6
S1130570790500000D060000C30709D50B4B802246
S113058052009A600A4A5A60084B5B78DB09FBD137
S1130590030709D5054B0422FF329A60054A5A60C5
S11305A0024B5B78DB09FBD17047C046000C00406E
S11305B00007090003040900064B1A7AD2B21A7222
S11305C05A7AD2B25A729A7AD2B29A72DA7AD2B287
S11305D0DA727047000400400B4A93691B0C1B0439
S11305E0FE21C9030B4006210B439361137F19318C
S11305F00B401377044BDB685B07FBD5024A936916
S113060080210B4393617047000800400222194B7C
S11306109A84184BDB68DB06FBD5174A154BDA6264
S1130620164B1B689B0E3F2B1BD09B028022920013
S11306301343104A936202239384938C5B0713D56C
S11306400C4BDA68D0231340D02BF9D1094A938C90
S113065080210B439BB29384094B5B78DB09FBD16C
S11306607047FC23DB01E4E7024BDB68DB06FBD5C8
S1130670ECE7C0460008004000000104246080004C
S1130680000C0040034B984200D07047024B1960A5
S1130690FBE7C046002000424800002010B5C368B4
S11306A0DA6AD20700D410BD0122DA6203689847DF
S11306B0F9E7000010B50023002B01D0002010BD85
S11306C09A00D218D100054A8A58824202D00133D6
S11306D0DBB2F1E701484018F1E7C0460000002012
S11306E070B506000C000800324B9847051E5BD01D
S11306F0F460A368DB0714D4A3689B07FCD12368C8
S11307009B0709D52368022293432360A3689B07B0
S1130710FCD1A3689B07FCD401232360A3689B0737
S1130720FCD1A368DB07FCD4AB682360A3689B07F8
S1130730FCD12B7B63716B7BA3772B6923626B6A80
S11307402364A3681B06FCD40123A36231002000A8
S1130750194B98470423EB56002B0BDB1F22134045
S11307601E3A9A401300802214498B50BFF34F8FD6
S1130770BFF36F8F0423EB56002B08DB1F221340BB
S11307801E3A9A401300C02252000C498B50042395
S1130790EB56002B0BDB1F2213401E3A9A4013002A
S11307A0064A1360002070BD0A204042FBE7002087
S11307B0F9E7C046B50600008506000000E100E048
S11307C0C268136802210B43136093689B07FCD132
S11307D07047C26893689B07FCD113685B080120CB
S11307E0184070470020704710B5C068034B984705
S11307F0002802D00079024B984710BDB5060000CE
S11308000505000010B5024B1868024B984710BD4F
S1130810480000209D06000080221203C023DB054F
S1130820DA61704770B50D4B9847C024E405802504
S11308302D03E561FA208000094B9847E5610949D9
S113084001238B60084ACA600B74084C2000084BD3
S113085098472000074B9847FEE7C0461501000063
S11308609102000068000020190800004C000020DC
S1130870ED030000B1030000002243088B4274D34F
S113088003098B425FD3030A8B4244D3030B8B428D
S113089028D3030C8B420DD3FF22090212BA030C96
S11308A08B4202D31212090265D0030B8B4219D377
S11308B000E0090AC30B8B4201D3CB03C01A524197
S11308C0830B8B4201D38B03C01A5241430B8B42DF
S11308D001D34B03C01A5241030B8B4201D30B03C8
S11308E0C01A5241C30A8B4201D3CB02C01A5241EF
S11308F0830A8B4201D38B02C01A5241430A8B42B2
S113090001D34B02C01A5241030A8B4201D30B029A
S1130910C01A5241CDD2C3098B4201D3CB01C01AB4
S1130920524183098B4201D38B01C01A52414309BE
S11309308B4201D34B01C01A524103098B4201D3AC
S11309400B01C01A5241C3088B4201D3CB00C01A19
S1130950524183088B4201D38B00C01A5241430891
S11309608B4201D34B00C01A5241411A00D20146B6
S1130970524110467047FFE701B5002000F006F829
S113098002BDC0460029F7D076E770477047C046DD
S113099070B500260C4D0D4C641BA410A64209D161
S11309A0002600F035F80A4D0A4C641BA410A64238
S11309B005D170BDB300EB5898470136EEE7B3009C
S11309C0EB5898470136F2E71C0A00001C0A0000A5
S11309D01C0A0000200A00002E2E2F68616C2F7361
S11309E072632F68616C5F74696D65722E630000B9
S11309F02E2E2F68616C2F7574696C732F7372635C
S1130A002F7574696C735F6C6973742E63000000D6
S1130A10F8B5C046F8BC08BC9E467047DD0000002F
S1130A20F8B5C046F8BC08BC9E467047B500000047
S1130A30002000420F000000000000000000000041
S1130A4000000000000000000000000000000000A2
S10B0A5000000000300000006A
S9030000FC
