S0150000746573745F67656E6572616C312E73726563E1
S113000070200020250100002101000021010000D2
S113001000000000000000000000000000000000DC
S113002000000000000000000000000021010000AA
S11300300000000000000000210100002101000078
S1130040210100002101000021010000650D0000D4
S1130050ED0B00002101000021010000210100003E
S11300602101000021010000210100002101000004
S11300702101000000000000000000002101000038
S113008021010000210100002101000021010000E4
S11300902101000000000000000000002101000018
S11300A021010000210100002101000021010000C4
S11300B00000000010B5064C2378002B07D1054B37
S11300C0002B02D0044800E000BF0123237010BDC0
S11300D00000002000000000E4110000084B10B5EF
S11300E0002B03D00749084800E000BF0748036815
S11300F0002B00D110BD064B002BFBD09847F9E72D
S11301000000000004000020E4110000E4110000DD
S11301100000000010B5014B984710BDBD0400005D
S1130120FEE70000F8B5234A234B9A4209D0224B3C
S1130130204A03E011681960043304321F498B42DA
S1130140F8D31F4B02E000221A6004331D4A934285
S1130150F9D31D4AFF211D4B8B439360FD39902336
S11301605B001B4AD1501B4AD3780325AB430224BE
S11301702343D370D3780C27BB4308263343D3706F
S1130180154B987B30229043202210439873997B1F
S1130190B943314399739A7BAA4322439A730F4A12
S11301A0516880230B4353600D4B98470D4B984780
S11301B0FEE7C046E411000000000020000000201B
S11301C0000000207000002000ED00E000000000AE
S11301D000700041005000410048004100400041CF
S11301E0F90F0000990F000010B5084A9369202107
S11301F00B439361064A074B5A80074B984702000A
S113020006490748074B984710BDC0460004004004
S113021004410000000C0040610D00000014004087
S1130220540000205D070000F0B5C026F605102339
S11302307360144B144A9A62C02212069A624420D4
S1130240195C0125A94301242143C9B21954123868
S1130250195C0F27B9432143C9B219542021716095
S11302600A4999629A6245215A5CAA432243D2B24E
S11302705A541A5C36390A4010210A43D2B21A542D
S1130280F0BDC04600440041100000402000004082
S1130290044A116A80235B020B431362024A034B34
S11302A05A807047000400401E400000000C0040CB
S11302B010B5054B9847054B98470022044905485B
S11302C0054B984710BDC04691020000290200006A
S11302D000400042380000208D050000F8B51B4A9C
S11302E01B4B5A80C023DB059C4680235B0262467D
S11302F05360184B184C9C62184A9A6250201A5C3E
S11303000427BA431A54195C0126B1430125294331
S1130310C9B2195438215A5C413882435A54802254
S11303209202604642609C620D4A9A6251201C5CB3
S1130330BC431C541A5CB2432A43D2B21A545A5CCA
S1130340423802405A54074B9847F8BD0540000014
S1130350000C00400044004100000240010002C0C3
S1130360020002C06D06000030B50F4B4022995CBC
S11303700125A94301242143C9B299543020195CB1
S1130380313A914303221143C9B2195441215A5CB1
S1130390AA432243D2B25A541A5C32390A40302159
S11303A00A43D2B21A5430BD00440041044A136ACD
S11303B008210B431362034A034B5A807047C0461B
S11303C00004004015400000000C004010B5054B2F
S11303D09847002204490548054B9847054B984720
S11303E010BDC046AD030000000C004248000020D0
S11303F0810800006903000010B50248024B9847C9
S113040010BDC04610E000E015060000F0B5C0269F
S1130410F60504237360144B144A9A62C022120630
S11304209A624220195C0125A94301242143C9B2DF
S113043019541138195C0F27B9432143C9B219540F
S1130440082171600A4999629A6243215A5CAA435D
S11304502243D2B25A541A5C34390A4010210A4356
S1130460D2B21A54F0BDC04600440041040000401A
S113047008000040044A116A8023DB020B43136224
S1130480024A034B5A807047000400402140000098
S1130490000C004010B5044B984704490448054B30
S11304A09847054B984710BD75040000004800426A
S11304B03C000020C50500000D04000070B5264B6B
S11304C09847C022D20580235B005360234B244904
S11304D09962244E9E624821585C0424A0435854D7
S11304E05C5C012084435C548025AD0055601E494A
S11304F099629E6255604924195D04263143C9B24C
S113050019555561195D814319558021C9005161FF
S1130510916016499962C02424069C62B73DFF3D50
S1130520595D814359558021090151619160104AF7
S11305309A629C624B215A5C82435A540D4B9847F1
S11305400D4B98470D4B98470D4B98470D4B9847CB
S11305500D4B984770BDC046B90A000000440041E5
S113056000010240000002C00002024000040040FA
S113057000080040B1020000DD020000CD030000CD
S1130580F9030000E90100009504000070B50400BF
S11305900D0000280DD0002909D001203922064978
S11305A0064B984729002000054B984770BD002052
S11305B0F4E70020F2E7C04640100000CD08000038
S11305C0810A000070B504000D00002810D0002935
S11305D00CD0012032220C490C4B984729002000F2
S11305E00B4B984700280ED100230AE00020F1E7C6
S11305F00020EFE7DA00A218002151609160013376
S1130600DBB2002BF6D070BD5C100000CD080000FA
S11306102D0B000010B5024B1860024B984710BD1B
S11306201C0000208D0F000070B50225002407E097
S11306300D4AB358002B00D0984770BD013AD5B28B
S1130640AC42FAD82B195B10DAB2012AF5D8FF2193
S11306500B40DE000449891949688142E8D0EDD293
S11306600132D4B2ECE7C0462000002010B50023CC
S113067009E0084AD900501801246442446000206B
S1130680885001339BB2012BF3D90348034B98479D
S113069010BDC0462000002029060000590B0000B0
S11306A0F8B50668002E02D0330000250CE0104B8C
S11306B0984718E09F68BC466444A41A01348F68C4
S11306C0BC420BD21D001B68002B07D05C6894420F
S11306D0F0D8A41A9F68BC466444F0E7B34203D040
S11306E02800044B9847F8BD014B9847FBE7C046E8
S11306F0ED08000019090000F8B505004469036914
S11307005E1C0661037EDB0702D4037E9B070AD5C9
S11307102B7E02221343DBB22B76F8BD6F69E368AC
S1130720200098473C00002CF7D06368F31AA268B5
S11307309342F2D32F0014373800064B9847237C9A
S1130740012BEBD16660320021003800024B984740
S1130750E4E7C04621090000A106000070B50400CA
S11307600D00002812D000290ED001203B22084998
S1130770084B984729002000074B98470023236122
S1130780064B2360002070BD0020EFE70020EDE75A
S113079078100000CD080000050D0000F9060000E7
S11307A0F8B505000E001700002823D0002923D037
S11307B0002A23D10020F1221149124B98472C0022
S11307C008342000104B98470028F8D00025715DAC
S11307D020000E4B984720000B4B98470028FAD076
S11307E00135BD42F3D32000094B98470028FAD0C5
S11307F02800F8BD0020DEE70020DCE70120DAE76E
S113080090100000CD080000F90E0000E90E000071
S1130810030F0000F8B5CE46474680B5051E88464E
S113082091461FD000291FD0002A1FD10020862204
S113083052000F490F4B984700262C000834200023
S11308400D4B98470028F8D043469F1920000B4BC6
S11308509847387001364E45EFD330000CBC9046B3
S11308609946F8BD0020E2E70020E0E70120DEE73A
S113087090100000CD0800000F0F0000F10E0000E2
S113088070B504000D00002814D0002910D00120F8
S113089034220949094B9847200008302900084BA5
S11308A09847002803D1074B6360074B236070BD52
S11308B00020EDE70020EBE790100000CD080000D9
S11308C0BD0E000015080000A1070000002800D19B
S11308D000BE70470368002B03D08B4203D01B6813
S11308E0F9E7002070470120FCE7000070B5040020
S11308F00D00064B984701235840C0B239220449E1
S1130900044B984723682B60256070BDD508000010
S1130910AC100000CD08000003680B600160704754
S11309200368002B03D01A68026018007047002087
S1130930FCE700207047000010B50B4B98470200FD
S11309400020002806D07F2208490020084B984741
S1130950002010BDC3001B1A9900064BCB5C9A42C1
S1130960F7D00130C0B2ECE733090000E810000012
S1130970CD080000CC10000070B504000D003A4B07
S1130980C01843425841C0B294223849384B984762
S1130990384B1A68D2081202E023DB001A403649A9
S11309A00B6849684901DB0E0B43FF210B401A43D6
S11309B0637EDB09FCD123789B0704D500232370D5
S11309C0637EDB09FCD101232370637EDB09FCD148
S11309D02285EA00521B9100284B5B189A786270BA
S11309E0DA78A2701A79E2701A7C2275DA8AA28403
S11309F01A8BE284997E2A22A154DB88A380637E29
S1130A00DB09FCD1EB005B1B9A001C4B9B18DB68D9
S1130A102361637EDB09FCD1EB005B1B9A00174B5F
S1130A209B181B7A2372637EDB09FCD1EB005B1BF2
S1130A309A00124B9B185B8AA383637EDB09FCD16B
S1130A40EB005B1B9A000D4B9B189B8A2384637EEF
S1130A50DB09FCD1EB005D1BAA00084B9B185B78FB
S1130A602370002070BDC04600C0FFBDE810000028
S1130A70CD0800002460800020608000CC100000BD
S1130A8070B505000C00431E9841C0B2C52206494A
S1130A90064B98472C602000054B98470100200026
S1130AA0044B984770BDC046E8100000CD08000014
S1130AB0390900007909000010B5064B5A685A60DC
S1130AC0054B9847054B9847054B9847FF20054B26
S1130AD0984710BD00400041C90C00001D0F0000E4
S1130AE0690F0000A90C0000C379DB09FCD1C379AC
S1130AF0DB09FCD103789B0707D500230370C37976
S1130B00DB09FCD1C379DB09FCD101230370C37970
S1130B10DB09FCD1C379DB09FCD18370012242706B
S1130B200370C379DB09FCD10020704770B5050060
S1130B300C00431E9841C0B249220449044B984713
S1130B402C602000034B984770BDC0460011000084
S1130B50CD080000E90A0000214B5B78DB09FBD1DA
S1130B601F4B5B78DB09FBD11D4B1B789B070AD518
S1130B7000221B4B1A701A4B5B78DB09FBD1184B14
S1130B805B78DB09FBD10122154B1A70144B5B789F
S1130B90DB09FBD1124B5B78DB09FBD1104B002244
S1130BA09A705A605A6121219961DA611A78022196
S1130BB00A43D2B21A700A4B5B78DB09FBD1094BAA
S1130BC0102280215A50BFF34F8FBFF36F8F013132
S1130BD0FF315A501A60044B186000207047C04619
S1130BE00018004000E100E030000020F0B583B0C0
S1130BF0274B1A69D9680A400192019A1A61254B58
S1130C001868431E9841C0B2D2222349234B984707
S1130C1001256D4231E0DB00214AD3185D686B1C6D
S1130C2003D01C4B1B68280098470122A240019B5B
S1130C309343019301981B4B9847013844B2631CBA
S1130C4014D00226002001E00139CEB2B042E6D829
S1130C5033185B10D9B2FF221340DF00104ABA5C8C
S1130C60A242D8D0F0DA0131C8B2EFE7084B1A69D2
S1130C70D9680A400192019A1A61019B002B05D0A0
S1130C800198084B9847013844B2D8E703B0F0BD47
S1130C90001800403000002028110000CD0800009A
S1130CA018110000A50F0000C3070AD5054B8022C8
S1130CB052009A60832252025A60024B5B78DB092D
S1130CC0FBD17047000C0040064B1A7AD2B21A725C
S1130CD05A7AD2B25A729A7AD2B29A72DA7AD2B270
S1130CE0DA7270470004004010B50400C3681B7A30
S1130CF0DB0706D50368002B00D09847E368012280
S1130D001A7210BD70B504000D00431E9841C0B2A4
S1130D1033221049104B9847E56001232B80AB7AAE
S1130D20DB09FCD1E268937ADB09FCD180331380C0
S1130D30937ADB09FCD1E26893698023DB00936139
S1130D40937ADB09FCD10133E268D371034B1C6055
S1130D50002070BD40110000CD08000034000020C8
S1130D600020704710B5024B1868024B984710BD1D
S1130D7034000020E90C0000024B9C466044800AC9
S1130D80C0B2704700F8FFBD10B50B4B9847020086
S1130D900020002806D0094A09490020094B984739
S1130DA0002010BD83001B189900074BCB5C9A42AE
S1130DB0F7D00130C0B2ECE7790D00003A02000030
S1130DC0A8110000CD0800005811000070B50400FF
S1130DD0384B9847E369DB071DD483001B189A003E
S1130DE0354B9B185A681C231A40E3699B07FCD1B6
S1130DF023689B0709D5236802218B432360E36999
S1130E009B07FCD1E3699B07FCD4012313432360B4
S1130E10E3699B07FCD1E369DB07FCD483001B185F
S1130E209A00254B9B185B682360E3699B07FCD100
S1130E3083001B189A00204B9B189B686360E3692E
S1130E405B07FCD183001B189A001B4B9B185B6843
S1130E509A040BD4C022D201134207D183001B1879
S1130E609A00154B9B189B89A38115E083001B18DE
S1130E709A00114989188A89A389D204D20C5B0B80
S1130E805B031343A3818B7B07221A40A38952037C
S1130E90DB04DB0C1343A381074A83001D18A9005C
S1130EA00D005118C97BA1735219127C3023E254EE
S1130EB0002070BD890D00005811000070B50500B8
S1130EC00C00431E9841C0B2B4220449044B984715
S1130ED02C602000034B984770BDC046A811000049
S1130EE0CD080000CD0D0000036889B21985704754
S1130EF00368188DC0B270470368187E0123184038
S1130F00704703681B7E5B08012018407047036824
S1130F101B7E9B0801201840704700000F4B196A84
S1130F20090C1A6A920F920709040D4801400A43FA
S1130F300C490A431A629A6902210A439A611A7F88
S1130F401D310A401A77054BDB681B07FBD5034AA2
S1130F50136A80210B4313627047C04600080040A7
S1130F600000FF0F02030000024A936902218B4331
S1130F709361704700080040024B034A5A600522FF
S1130F801A60704710E000E0FFFFFF0010B5014B4E
S1130F90984710BD790F000010B5014B9847FEE744
S1130FA01501000010B50023002802D000F004F859
S1130FB0431C180010BDC046414208401C210123B7
S1130FC01B04984201D3000C10391B0A984201D328
S1130FD0000A08391B09984201D30009043902A206
S1130FE0105C401A7047C0461B1C1D1D1E1E1E1E91
S1130FF01F1F1F1F1F1F1F1F70B500260C4D0D4CF8
S1131000641BA410A64209D1002600F0DBF80A4DA7
S11310100A4C641BA410A64205D170BDB300EB5862
S113102098470136EEE7B300EB5898470136F2E7EC
S1131030D0110000D0110000D0110000D411000024
S11310402E2E2F68616C2F7372632F68616C5F6141
S113105064635F73796E632E630000002E2E2F6825
S1131060616C2F7372632F68616C5F6461635F737B
S1131070796E632E630000002E2E2F68616C2F732F
S113108072632F68616C5F74696D65722E63000012
S11310902E2E2F68616C2F7372632F68616C5F75DD
S11310A0736172745F73796E632E63002E2E2F68E2
S11310B0616C2F7574696C732F7372632F75746907
S11310C06C735F6C6973742E63000000000200008F
S11310D0000000000000000000000000000000000C
S11310E000000000000000002E2E2F68706C2F619D
S11310F064632F68706C5F6164632E63000000009A
S11311002E2E2F68706C2F6461632F68706C5F647F
S113111061632E6300000000000000001000000066
S113112001000000110000002E2E2F68706C2F6546
S113113069632F68706C5F6569632E63000000004B
S11311402E2E2F68706C2F7274632F68706C5F7210
S113115074632E63000000000100000004001040CE
S113116000000300ADD800000000000000000000F3
S1131170000000000000000000000000000000006B
S1131180000000000000000000000000000000005B
S1131190000000000000000000000000000000004B
S11311A000000000000000002E2E2F68706C2F73CA
S11311B06572636F6D2F68706C5F736572636F6DBA
S11311C02E630000F8B5C046F8BC08BC9E467047C4
S11311D0DD000000F8B5C046F8BC08BC9E46704768
S10711E0B500000052
S9030000FC
