S0120000696E74657272757074312E73726563F4
S11300003020002025010000210100002101000012
S113001000000000000000000000000000000000DC
S113002000000000000000000000000021010000AA
S11300300000000000000000210100002101000078
S11300402101000021010000210100002101000024
S1130050CD03000021010000210100002101000066
S11300602101000021010000210100002101000004
S11300702101000000000000000000002101000038
S113008021010000210100002101000021010000E4
S11300902101000000000000000000002101000018
S11300A021010000210100002101000021010000C4
S11300B00000000010B5064C2378002B07D1054B37
S11300C0002B02D0044800E000BF0123237010BDC0
S11300D0000000200000000014060000084B10B5CA
S11300E0002B03D00749084800E000BF0748036815
S11300F0002B00D110BD064B002BFBD09847F9E72D
S11301000000000004000020140600001406000093
S11301100000000010B5014B984710BD75020000A7
S1130120FEE70000F8B5234A234B9A4209D0224B3C
S1130130204A03E011681960043304321F498B42DA
S1130140F8D31F4B02E000221A6004331D4A934285
S1130150F9D31D4AFF211D4B8B439360FD39902336
S11301605B001B4AD1501B4AD3780325AB430224BE
S11301702343D370D3780C27BB4308263343D3706F
S1130180154B987B30229043202210439873997B1F
S1130190B943314399739A7BAA4322439A730F4A12
S11301A0516880230B4353600D4B98470D4B984780
S11301B0FEE7C046140600000000002000000020F6
S11301C0000000203000002000ED00E000000000EE
S11301D000700041005000410048004100400041CF
S11301E08505000025050000F8B51B4A1B4B5A8005
S11301F0C023DB059C4680235B0262465360184B98
S1130200184F9F62184A9A625020195C0422914345
S11302101954195C0125A94301242143C9B2195475
S11302201838195C0F26B14319548021C90260465D
S113023041609F620D4999625221585C9043585421
S11302405A5CAA432243D2B25A5419395A5CB24373
S11302505A54074B9847F8BD05400000000C004075
S11302600044004100000240010002C0040002C03A
S1130270CD02000010B5024B9847024B984710BDC1
S113028009030000E901000070B50225002407E01D
S11302900D4AB358002B00D0984770BD013AD5B22F
S11302A0AC42FAD82B195B10DAB2012AF5D8FF2137
S11302B00B40DE000449891949688142E8D0EDD237
S11302C00132D4B2ECE7C0461C00002010B5002374
S11302D009E0084AD900501801246442446000200F
S11302E0885001339BB2012BF3D90348034B984741
S11302F010BDC0461C000020890200003903000024
S1130300002800D100BE704710B5064B5A685A60E9
S1130310054B9847054B9847054B9847FF20054BDD
S1130320984710BD00400041A9040000C904000022
S11303301505000089040000214B5B78DB09FBD123
S11303401F4B5B78DB09FBD11D4B1B789B070AD540
S113035000221B4B1A701A4B5B78DB09FBD1184B3C
S11303605B78DB09FBD10122154B1A70144B5B78C7
S1130370DB09FBD1124B5B78DB09FBD1104B02226A
S11303809A7000225A605A6122219961DA611A78BE
S113039002210A43D2B21A70094B5B78DB09FBD104
S11303A0084B102280215A50BFF34F8FBFF36F8F39
S11303B00131FF315A501A60034B18600020704716
S11303C00018004000E100E02C000020F0B583B0EC
S11303D0274B1A69D9680A400192019A1A61254B80
S11303E01868431E9841C0B2D2222349234B984730
S11303F001256D4231E0DB00214AD3185D686B1C96
S113040003D01C4B1B68280098470122A240019B83
S11304109343019301981B4B9847013844B2631CE2
S113042014D00226002001E00139CEB2B042E6D851
S113043033185B10D9B2FF221340DF00104ABA5CB4
S1130440A242D8D0F0DA0131C8B2EFE7084B1A69FA
S1130450D9680A400192019A1A61019B002B05D0C8
S11304600198084B9847013844B2D8E703B0F0BD6F
S1130470001800402C000020DC05000001030000EF
S1130480CC05000031050000C3070AD5054B8022C6
S113049052009A60832252025A60024B5B78DB0955
S11304A0FBD17047000C0040064B1A7AD2B21A7284
S11304B05A7AD2B25A729A7AD2B29A72DA7AD2B298
S11304C0DA727047000400400F4B196A090C1A6A6B
S11304D0920F920709040D4801400A430C490A434C
S11304E01A629A6902210A439A611A7F1D310A40ED
S11304F01A77054BDB681B07FBD5034A136A802177
S11305000B4313627047C046000800400000FF0F11
S113051002030000024A936902218B4393617047EE
S11305200008004010B5014B9847FEE71501000094
S113053010B50023002802D000F004F8431C180072
S113054010BDC046414208401C2101231B049842AF
S113055001D3000C10391B0A984201D3000A083950
S11305601B09984201D30009043902A2105C401A05
S11305707047C0461B1C1D1D1E1E1E1E1F1F1F1F55
S11305801F1F1F1F70B500260C4D0D4C641BA410BB
S1130590A64209D1002600F02DF80A4D0A4C641B2E
S11305A0A410A64205D170BDB300EB58984701369C
S11305B0EEE7B300EB5898470136F2E70006000077
S11305C00006000000060000040600000000000011
S11305D01000000002000000120000002E2E2F6800
S11305E0706C2F6569632F68706C5F6569632E6337
S11305F000000000F8B5C046F8BC08BC9E46704731
S1130600DD000000F8B5C046F8BC08BC9E46704743
S1070610B50000002D
S9030000FC
