S0180000617473746172745F74696D6572735F332E7372656384
S113000080200020250100002101000021010000C2
S113001000000000000000000000000000000000DC
S113002000000000000000000000000021010000AA
S11300300000000000000000210100002101000078
S11300402101000021010000210100002101000024
S11300502101000021010000210100002101000014
S11300602101000021010000210100002101000004
S1130070210100000000000000000000DD06000077
S113008021010000210100002101000021010000E4
S11300902101000000000000000000002101000018
S11300A021010000210100002101000021010000C4
S11300B00000000010B5064C2378002B07D1054B37
S11300C0002B02D0044800E000BF0123237010BDC0
S11300D02800002000000000D8080000084B10B5DC
S11300E0002B03D00749084800E000BF0748036815
S11300F0002B00D110BD064B002BFBD09847F9E72D
S1130100000000002C000020D8080000D8080000DF
S11301100000000010B5014B984710BD2D020000EF
S1130120FEE700002148224970B5884204D000232C
S1130130204CCA18A24232D300211F4B1F4A9342BB
S113014031D3FF211E4B1F4A8B43936002220C259F
S1130150082430261C4B1D485A62C378FC398B4353
S11301601343C370C378AB432343C370184B987BCA
S1130170B0430600202030439873987BA84304437F
S11301809C73987B884302439A738023114A516875
S11301900B435360104B9847104B9847FEE7C558E4
S11301A004331560C5E702C3C9E7C046D808000098
S11301B00000002028000020280000207C000020EF
S11301C00000000000ED00E0FC7000410050004120
S11301D0004800410040004171080000050700008C
S11301E08023044A5B00116A0B431362024A034BE7
S11301F05A807047000400401A400000000C004080
S113020010B5054B9847054B984705490200054B27
S11302100548984710BDC046E1010000BD06000036
S113022000200042610300004C00002010B50B4B7D
S11302309847C0238022DB0512039A619A608022CA
S11302400121074BD2059A62064A9A6253331A78FF
S11302508A431A70044B984710BDC04681040000BD
S113026000440041080000C001020000EFF31083C5
S1130270036072B6BFF35F8F7047BFF35F8F03688D
S113028083F3108870470000044B10B51C68044BBE
S11302909847044B01002000984710BD44000020FB
S11302A06104000079040000F7B50568002D02D14F
S11302B0114B9847F7BD01262C0000278B6800934B
S11302C0B31A0193A6686368B44693420DD8634495
S11302D09B1A009EB3420CD223682700002B02D144
S11302E03800064BE5E71C00ECE7019EF318634475
S11302F0EFE7A542F4D1DBE7290400003104000054
S1130300F8B5036905005E1C037E44690661DB07DA
S113031002D4037E9B0717D502232A7E13432B7630
S1130320F8BD2F0014370C4B38009847237C012B61
S113033005D16660320021003800084B98476F6988
S1130340E368200098473C00002CE9D06368A26869
S1130350F31A9342E5D2E3E739040000A90200004E
S113036010B5044B040098470020034B2061236020
S113037010BDC046B90500000103000070B5064B6E
S113038005009847041E04D12800044B9847200018
S113039070BD11204042FBE7A50600008D06000059
S11303A0F0B507000125037E14372B43037685B08F
S11303B00400144B38000E0098470190002806D022
S11303C0237EAB432376133D280005B0F0BD22699C
S11303D03100726002260C4B38009847237EAB43F1
S11303E02376237E019D3342EED003A8074B984722
S11303F0237E2000B3432376054B984703A8054B7F
S11304009847E1E719040000A90200006D0200000A
S1130410C10600007B0200000068002800D170477C
S11304208842F9D10120FAE703680B600160704744
S113043003680B60016070470368002B01D01A68E1
S1130440026018007047000043B2002B05DB1F2335
S113045018401E3B8340014A53607047FCE100E0B2
S11304600300F020400010B558431E211D30014BFD
S1130470984710BD590700000139FDD870470000A6
S1130480022310B5074A51680B435360064B984743
S1130490064B98470820064CA047064B9847F72080
S11304A0A04710BD00400041F50400001505000000
S11304B0B904000045050000C3070BD4030708D5A1
S11304C00422094BFF329A60084A5A605A78D209CA
S11304D0FCD170478022044B52009A60044A5A604F
S11304E05A78D209FCD1E9E7000C00400304090062
S11304F000070900064B1A7AD2B21A725A7AD2B29B
S11305005A729A7AD2B29A72DA7AD2B2DA7270479C
S113051000040040FE210A4BC9039A6911400622D7
S11305200A431F219A611A7F0A401A770422D96864
S11305301142FCD0802299690A439A617047C046EF
S1130540000800400222164B9A840E32D9681142E8
S1130550FCD0144ADA62144A1268920E3F2A0ED072
S11305608021920289000A439A6202229A849A8C18
S1130570520707D41022D9681142FCD007E0FC22AC
S1130580D201F1E7D021DA680A40D02AFBD18022D7
S1130590998C0A439A84054A5378DB09FCD1704745
S11305A0000800400000010424608000000C0040AA
S11305B083681942FCD17047F7B52E4D01902B6822
S11305C00C00994202D00A204042FEBD019B2A4EF3
S11305D0D9608B68DB0714D4022703212000B047BD
S11305E023683B4208D023680321BB4320002360D7
S11305F0B04739002000B0470123032123602000C5
S1130600B04701212000B047AB68032123602000DC
S1130610B0472B7B802163716B7B2000A3772B6910
S113062023626B6A2364B0470123A362134B9C4289
S113063002D1134B019A1A600423EB56002B0ADBF8
S11306401F2213401E3A9A4013000E4AD367BFF389
S11306504F8FBFF36F8F04230020EB568342B4DB2C
S11306601F221A400123C0219340074A49005350D6
S11306701360AAE700000020B1050000002000423A
S11306804800002004E100E000E100E0022310B58E
S1130690C0680321026813430360014B984710BDEF
S11306A0B105000010B5C46803212000024B98472F
S11306B020688007C00F10BDB105000000207047FE
S11306C0044BC268196810B58A4202D11879024BEA
S11306D0984710BD00000020490400000122054B8A
S11306E010B51868C368D96A114202D0DA62036887
S11306F0984710BD480000208022C0231203DB0568
S1130700DA61704770B50D4BC02480259847FA20F4
S1130710E4052D03E5618000094B98470123E56159
S11307200849094C094A8B600B742000084BCA60C5
S113073098472000074B9847FEE7C0461501000084
S113074089020000680000204C000020F906000027
S1130750A10300007D030000002243088B4274D3F0
S113076003098B425FD3030A8B4244D3030B8B42AE
S113077028D3030C8B420DD3FF22090212BA030CB7
S11307808B4202D31212090265D0030B8B4219D398
S113079000E0090AC30B8B4201D3CB03C01A5241B8
S11307A0830B8B4201D38B03C01A5241430B8B4200
S11307B001D34B03C01A5241030B8B4201D30B03E9
S11307C0C01A5241C30A8B4201D3CB02C01A524110
S11307D0830A8B4201D38B02C01A5241430A8B42D3
S11307E001D34B02C01A5241030A8B4201D30B02BC
S11307F0C01A5241CDD2C3098B4201D3CB01C01AD6
S1130800524183098B4201D38B01C01A52414309DF
S11308108B4201D34B01C01A524103098B4201D3CD
S11308200B01C01A5241C3088B4201D3CB00C01A3A
S1130830524183088B4201D38B00C01A52414308B2
S11308408B4201D34B00C01A5241411A00D20146D7
S1130850524110467047FFE701B5002000F006F84A
S113086002BDC0460029F7D076E770477047C046FE
S113087070B500260C4D0D4C641BA410A64209D182
S1130880002600F019F80A4D0A4C641BA410A64275
S113089005D170BDB300EB5898470136EEE7B300BD
S11308A0EB5898470136F2E7C4080000C40800007A
S11308B0C4080000C8080000F8B5C046F8BC08BC6D
S11308C09E467047DD000000F8B5C046F8BC08BC81
S10B08D09E467047B5000000CC
S11308D8002000420F00000000000000000000009B
S11308E800000000000000000000000000000000FC
S10B08F80000000030000000C4
S9030000FC
