S01F0000617473746172742B74696D6572735F355F54435F39364D2E737265639E
S113000058200020250100002101000021010000EA
S113001000000000000000000000000000000000DC
S113002000000000000000000000000021010000AA
S11300300000000000000000210100002101000078
S11300402101000021010000210100002101000024
S11300502101000021010000210100002101000014
S11300602101000021010000210100002101000004
S11300702101000000000000000000002101000038
S113008021010000210100002101000051080000AD
S11300902101000000000000000000002101000018
S11300A021010000210100002101000021010000C4
S11300B00000000010B5064C2378002B07D1054B37
S11300C0002B02D0044800E000BF0123237010BDC0
S11300D00000002000000000A40A0000084B10B536
S11300E0002B03D00749084800E000BF0748036815
S11300F0002B00D110BD064B002BFBD09847F9E72D
S11301000000000004000020A40A0000A40A00006B
S11301100000000010B5014B984710BD29020000F3
S1130120FEE70000F8B5234A234B9A4209D0224B3C
S1130130204A03E011681960043304321F498B42DA
S1130140F8D31F4B02E000221A6004331D4A934285
S1130150F9D31D4AFF211D4B8B439360FD39902336
S11301605B001B4AD1501B4AD3780325AB430224BE
S11301702343D370D3780C27BB4308263343D3706F
S1130180154B987B30229043202210439873997B1F
S1130190B943314399739A7BAA4322439A730F4A12
S11301A0516880230B4353600D4B98470D4B984780
S11301B0FEE7C046A40A0000000000200000002062
S11301C0000000205400002000ED00E000000000CA
S11301D000700041005000410048004100400041CF
S11301E0DD0900007108000010B5084A116A802377
S11301F05B010B431362064A064B5A80064B984731
S1130200020006490648074B984710BD0004004009
S11302101C410000000C00402F0800000030004288
S1130220240000206103000010B50B4B9847C02345
S1130230DB05802212039A619A60084B8022D20562
S11302409A62074A9A6253215A5C012082435A54A3
S1130250044B984710BDC0463505000000440041DA
S1130260080000C0E9010000EFF31083036072B6D8
S1130270BFF35F8F7047BFF35F8F036883F310880A
S11302807047000010B5044B1C68044B98470100EC
S11302902000034B984710BD1C00002015050000EA
S11302A02D050000F8B50668002E02D033000025A5
S11302B00CE0104B984718E09F68BC466444A41AAD
S11302C001348F68BC420BD21D001B68002B07D081
S11302D05C689442F0D8A41A9F68BC466444F0E772
S11302E0B34203D02800044B9847F8BD014B98470C
S11302F0FBE7C046B1040000DD040000F8B50500CA
S1130300446903695E1C0661037EDB0702D4037E35
S11303109B070AD52B7E02221343DBB22B76F8BD52
S11303206F69E368200098473C00002CF7D06368AD
S1130330F31AA2689342F2D32F0014373800064B05
S11303409847237C012BEBD16660320021003800F2
S1130350024B9847E4E7C046E5040000A50200000C
S113036070B504000D00002812D000290ED0012021
S11303703B220849084B984729002000074B98471F
S113038000232361064B2360002070BD0020EFE7AB
S11303900020EDE7240A000091040000FD0600009F
S11303A0FD02000010B50400431E9841C0B2532260
S11303B00749084B98472000074B9847002804D169
S11303C02000064B9847002010BD11204042FBE757
S11303D0240A00009104000023080000150800000E
S11303E070B582B004000D00002826D0002922D068
S11303F001207A221F49204B9847237E0122134370
S1130400DBB2237626001436290030001B4B9847B4
S1130410002814D123696B60226929003000184B2D
S11304209847237E012293432376237E9B0712D48D
S1130430002002B070BD0020DBE70020D9E7237E56
S11304400122934323767E320A4900200A4B9847BF
S113045012204042EDE701A80A4B9847237E02226E
S1130460934323762000084B984701A8074B9847ED
S11304700020DEE7240A0000910400009904000033
S1130480A5020000690200003508000077020000A0
S1130490002800D100BE70470368002B03D08B42B4
S11304A003D01B68F9E7002070470120FCE7000037
S11304B070B504000D00064B984701235840C0B2A4
S11304C039220449044B984723682B60256070BD8A
S11304D0990400003C0A00009104000003680B60CA
S11304E0016070470368002B03D01A68026018008B
S11304F070470020FCE7000043B2002B07DB1F23FA
S113050018401E3B83408022520001498B507047A3
S113051000E100E010B503011B1A58011D301E2133
S1130520014B984710BDC046C50800000139FDD8ED
S11305307047000010B5084A536802210B4353600A
S1130540064B9847064B98470820064CA047064B95
S11305509847F720A04710BD00400041C90500009E
S1130560E90500006D0500001D060000C30709D55C
S1130570114B802292009A60104A5A600E4B5B78AD
S1130580DB09FBD1830709D50B4B0222FF329A60AA
S11305900B4A5A60084B5B78DB09FBD1030709D58A
S11305A0054B0422FF329A60064A5A60024B5B787C
S11305B0DB09FBD17047C046000C0040000809006D
S11305C00108010003040900064B1A7AD2B21A7218
S11305D05A7AD2B25A729A7AD2B29A72DA7AD2B277
S11305E0DA727047000400400B4A93691B0C1B0429
S11305F0FE21C9030B4006210B439361137F19317C
S11306000B401377044BDB685B07FBD5024A936905
S113061080210B439361704700080040104A114B3E
S11306205A80114B022144229954104A9A64202280
S1130630DA6450230C4AD35C5B0707D45023D35CA1
S1130640DB0703D45023D35C9B07F2D5064944222D
S11306508B5C802040420343DBB28B547047C0461E
S113066001430000000C004000080040700B0B0028
S113067010B5C3689A7BD20700D410BD01229A73C7
S113068003689847F9E70000024B9C466044800ADF
S1130690C0B2704700D4FFBD034B984200D07047EE
S11306A0024B1960FBE7C0460030004220000020E6
S11306B010B50E4B98470330C0B20023002B08D06E
S11306C09F2252000A4900200A4B984701204042C9
S11306D010BD9A00D2189100074A8A5C904202D059
S11306E00133DBB2EAE758B2F2E7C04689060000FC
S11306F0700A0000910400005C0A000070B5060056
S11307000C0008003C4B98470500F4608B223B49E1
S113071001203B4B9847E37BDB09FCD123889B07F3
S113072004D500232380E37BDB09FCD10123238050
S1130730E37BDB09FCD1AA0052199100314B5B1811
S11307405A88228019792172DB8863810C23134033
S1130750082B37D0002B3FD1AB005D19AA00294BE1
S11307609B189B89238300236383012363733100D4
S11307702000254B98472000244B98471230C0B2E4
S113078043B2002B0ADB1F21014001228A40802151
S11307901F4C6250BFF34F8FBFF36F8F002B07DBEB
S11307A01F21014001228A40C0214900184C625097
S11307B0002B05DB1F2318401E3B8340144A1360A3
S11307C0002070BDAB005D19AA000E4B9B18DB68BE
S11307D0A3610023E361C8E7042BC6D1094AAB0037
S11307E05819810008005118097B2176002161768F
S11307F01218137A2375B8E7B1060000700A0000D6
S1130800910400005C0A00009906000089060000BB
S113081000E100E0C268138802210B439BB21380FD
S11308207047C3681B885B0801201840704700208C
S11308307047000010B5C068034B98471230C0B22F
S1130840024B984710BDC04689060000F904000019
S113085010B5024B1868024B984710BD20000020C9
S11308607106000080221203C023DB05DA617047A1
S113087070B50D4B9847C024E40580252D03E56130
S1130880FA208000094B9847E561094901238B60F0
S1130890084ACA600B74084C2000084B9847200093
S11308A0074B9847FEE7C04615010000850200008B
S11308B0400000206508000024000020E10300003F
S11308C0A5030000002243088B4274D303098B4222
S11308D05FD3030A8B4244D3030B8B4228D3030C0C
S11308E08B420DD3FF22090212BA030C8B4202D3AE
S11308F01212090265D0030B8B4219D300E0090AD6
S1130900C30B8B4201D3CB03C01A5241830B8B42DE
S113091001D38B03C01A5241430B8B4201D34B03C7
S1130920C01A5241030B8B4201D30B03C01A52412C
S1130930C30A8B4201D3CB02C01A5241830A8B42B1
S113094001D38B02C01A5241430A8B4201D34B029A
S1130950C01A5241030A8B4201D30B02C01A5241FE
S1130960CDD2C3098B4201D3CB01C01A52418309B2
S11309708B4201D38B01C01A524143098B4201D3EC
S11309804B01C01A524103098B4201D30B01C01A17
S11309905241C3088B4201D3CB00C01A5241830891
S11309A08B4201D38B00C01A524143088B4201D3BE
S11309B04B00C01A5241411A00D20146524110461E
S11309C07047FFE701B5002000F006F802BDC046FD
S11309D00029F7D076E770477047C04670B5002607
S11309E00C4D0D4C641BA410A64209D1002600F046
S11309F049F80A4D0A4C641BA410A64205D170BDE7
S1130A00B300EB5898470136EEE7B300EB5898472C
S1130A100136F2E7900A0000900A0000900A0000F4
S1130A20940A00002E2E2F68616C2F7372632F6856
S1130A30616C5F74696D65722E6300002E2E2F68E1
S1130A40616C2F7574696C732F7372632F7574697D
S1130A506C735F6C6973742E63000000040068009B
S1130A600000000000000000600000000000000022
S1130A702E2E2F68706C2F74632F68706C5F7463F4
S1130A802E630000F8B5C046F8BC08BC9E4670470B
S1130A90DD000000F8B5C046F8BC08BC9E467047AF
S1070AA0B500000099
S9030000FC
