:1000000088200020250100002101000021010000BE
:1000100000000000000000000000000000000000E0
:1000200000000000000000000000000021010000AE
:10003000000000000000000021010000210100007C
:100040002101000021010000210100002101000028
:10005000050A00002101000021010000210100002B
:100060002101000021010000210100002101000008
:1000700021010000210100002101000021010000F8
:1000800021010000210100002101000021010000E8
:1000900021010000210100002101000021010000D8
:1000A00021010000210100002101000021010000C8
:1000B0000000000010B5064C2378002B07D1054B3B
:1000C000002B02D0044800E000BF0123237010BDC4
:1000D000000000200000000000100000084B10B5D8
:1000E000002B03D00749084800E000BF0748036819
:1000F000002B00D110BD064B002BFBD09847F9E731
:1001000000000000040000200010000000100000AB
:100110000000000010B5014B984710BD8905000094
:10012000FEE70000F8B5234A234B9A4209D0224B40
:10013000204A03E011681960043304321F498B42DE
:10014000F8D31F4B02E000221A6004331D4A934289
:10015000F9D31D4AFF211D4B8B439360FD3990233A
:100160005B001B4AD1501B4AD3780325AB430224C2
:100170002343D370D3780C27BB4308263343D37073
:10018000154B987B30229043202210439873997B23
:10019000B943314399739A7BAA4322439A730F4A16
:1001A000516880230B4353600D4B98470D4B984784
:1001B000FEE7C04600100000000000200000002004
:1001C000000000208400002000ED00E0000000009E
:1001D00000700041005000410048004100400041D3
:1001E000210F0000290D0000F0B5DE4657464E46AF
:1001F0004546E0B583B0D24AD24B5A80C025ED05C2
:1002000001218423E950D04BA822D0489850D048EF
:100210009850C02080461C5CBC3884434746DC555F
:10022000DC5D8C43A4460124674627436E46F77184
:10023000FFB2BC4647466646DE55B026B1469E5DD7
:10024000B4460F26B0466746B7434E469F552C3EF0
:10025000A851C04E9E50BE4E9E50C226B1469E5DD5
:10026000370087434E469F559E5D37008F43274397
:100270003E1C6F46FE71FE79B4464E4667469F555A
:10028000113EB1469E5D37004646B7434E469F55E8
:100290008026F6038427EE51AF4EB2469E50AF4EF5
:1002A0009E50D626B1469E5D370087434E469F55E9
:1002B0009E5D37008F4327433E1C6F46FE71FE79DB
:1002C000B4464E4667469F551B3EB1469E5D37007D
:1002D0004646B7434E469F55802636046E605646C6
:1002E0009E629F4E9E625726B1469E5D37008743B1
:1002F0004E469F559E5D37008F4327433E1C6F46F9
:10030000FE71FE79B4464E4667469F551C3EB34685
:100310009E5DB1460F26B4464F4637405E469F5518
:10032000802676056E6056469E628E4E9E625C26E4
:10033000B3469E5D370087435E469F559E5D3700FE
:100340008F4327433E1C6F46FE71FE79B1465E46E1
:100350004F469F551E3EB3469E5D37004646B74307
:100360005E469F55C336FF366E607F4E9E62784E66
:100370009E624926B3469E5D370087435E469F5581
:100380009E5D37008F4327433E1C6F46FE71FE790A
:10039000B1465E464F469F55153EB3469E5D3700BB
:1003A000664637405E469F558026F6008427EE510C
:1003B0006E4E9E50664E9E50CA26B3469E5D3700D6
:1003C00087435E469F559E5D37008F4327433E1C03
:1003D0006F46FE71FE79B1465E464F469F55153E0B
:1003E000B3469E5D37004646B7435E469F5580261E
:1003F00036016E605E4E9E62554E9E624B26B3463F
:100400009E5D370087435E469F559E5D37008F4354
:1004100027433E1C6F46FE71FE79B1465E464F464D
:100420009F55163EB3469E5D3700664637405E4692
:100430009F55802676016E604E4E9E62444E9E62AF
:100440004C26B3469E5D370087435E469F559E5DB2
:1004500037008F4327433E1C6F46FE71FE79B1463D
:100460005E464F469F55163EB3469E5D3700464654
:10047000B7435E469F558026B6018427EE513E4E17
:100480009E50334E9E50CD26B3469E5D3700874327
:100490005E469F559E5D37008F4327433E1C6F4647
:1004A000FE71FE79B1465E464F469F55173EB346F4
:1004B0009E5D3700664637405E469F558026F605AE
:1004C0008427EE5156469E502C4E9E50DE26B24654
:1004D0009E5D3700874356469F559E5D37008F438C
:1004E00027433E1C6F46FE71FE79B14656464F4685
:1004F0009F551F3EB2469E5D37004646B74356465F
:100500009F55802636028427EE511D4D9D50104D7B
:100510009D50CF255A5D82435A555A5D8A431443F4
:10052000E4B25C55B6315A5C604602405A54154BF1
:10053000984703B03CBC90469946A246AB46F0BDF6
:1005400005400000000C0040004400410100024052
:10055000000002C00400024000000240400002C04F
:10056000800002C0001002C00002024000040240ED
:10057000000802400010024000200240004002C07B
:100580000080024095070000F0B5D6464F4646462B
:10059000C0B5584B9847C022D20580235B005361F9
:1005A0009360554B55499962C02424069C624825A6
:1005B000595D0120814359558021C90051619160E5
:1005C0004F4999629C620235595D8143595580219A
:1005D0008901516191604B4999629C620335595D73
:1005E000814359558021C903516191608021C9051A
:1005F0008A469962444999620935595D8143595542
:100600008021090551619160514699623F49996283
:100610000535595D814359559426022191512D3557
:10062000A9465151A6313A4F5F505C50C127B84698
:10063000DF5D8743BC4647466546DD550825955135
:100640004F46D551334D5D505C50C325A8465D5D86
:100650002F00874345465F5580252D0195514F4614
:10066000D5512D4D5D505C50CB25A8465D5D2F00CA
:10067000874345465F5580256D0195514F46D551BD
:10068000264D5D505C50CC25A8465D5D2F0087430C
:1006900045465F558025ED0195514F46D551204D7A
:1006A0005D505C50CE24A4461C5D844365465C5579
:1006B000802424049451D45154465C50194C5C500D
:1006C000D724A4461C5D844365465C5580242406DB
:1006D0009451D45152465A50134A5A5037315A5CA9
:1006E00082435A54114B98471CBC90469946A246E7
:1006F000F0BDC046E1080000004400410001004098
:100700000004004000200040400000C0000800C07D
:1007100002000040080000400008004000100040B7
:1007200000400040800000C0008000C0E9010000DF
:1007300010B5044B1C68044B984701002000034B84
:10074000984710BD1C000020BD080000D90800001B
:1007500070B50C25002407E00D4AB358002B00D0DB
:10076000984770BD013AD5B2AC42FAD82B195B104C
:10077000DAB20B2AF5D8FF210B40DE0004498919B3
:1007800049688142E8D0EDD20132D4B2ECE7C046EC
:100790002000002010B5002309E0084AD9005018B5
:1007A0000124644244600020885001339BB20B2B2B
:1007B000F3D90348034B984710BDC04620000020E2
:1007C0005107000015090000F0B5D6464F464646D1
:1007D000C0B584B000230B2B0DD8DC00334A1219AE
:1007E0005268824202D00133DBB2F4E72F4BE15072
:1007F00001239A4601E000239A4600290ED0534671
:10080000002B13D05346002B4CD00121284B984786
:1008100004B01CBC90469946A246F0BD5346002B3E
:100820003DD0234B9847F3E70133DBB20B2B0AD8BB
:10083000DA001E4D5259002AF6D1DC0061512C1904
:10084000606001229246002201E00132D2B20B2AFE
:10085000D8D80B2BD6D801931449DC000C19676843
:10086000D400091949688F42EFD24C1CEDD002A97F
:100870008C460E4FD400A0463C19664622CC22C6B8
:100880000199C9008946414679184C463C1960CC0B
:1008900060C13D004D44614650C950C5D5E70D20AB
:1008A0004042B5E70D204042B2E7C046200000209C
:1008B000B1090000002800D100BE704710B5030048
:1008C000642058432C30FF3096214900014B984753
:1008D00010BDC046B50D00000139FDD870470000BD
:1008E00010B5074A536802210B435360054B9847E4
:1008F000054B9847054B9847FF20054B984710BD7F
:1009000000400041E10A0000010B00004D0B000017
:10091000C10A0000214B5B78DB09FBD11F4B5B78E0
:10092000DB09FBD11D4B1B789B070AD500221B4B13
:100930001A701A4B5B78DB09FBD1184B5B78DB092B
:10094000FBD10122154B1A70144B5B78DB09FBD1EC
:10095000124B5B78DB09FBD1104B00229A705A6076
:100960005A610F4A9A610F4ADA611A7802210A43E2
:10097000D2B21A70094B5B78DB09FBD10A4B10220B
:1009800080215A50BFF34F8FBFF36F8F0131FF317A
:100990005A501A60054B186000207047001800403C
:1009A000020200222222222200E100E08000002038
:1009B00030B500230B2B0BD8DC00104A12195268FB
:1009C000824202D00133DBB2F4E70C4BE25C00E080
:1009D000FF22FF2A0ED0002906D101239340084AA6
:1009E00093601361002030BD01239340044AD3601B
:1009F0000020F8E70D204042F5E7C046680F0000F0
:100A000000180040F0B583B0274B1A69D9680A4036
:100A10000192019A1A61254B1868431E9841C0B291
:100A2000D2222349234B984701256D4231E0DB0058
:100A3000214AD3185D686B1C03D01C4B1B6828002F
:100A400098470122A240019B9343019301981B4BBD
:100A50009847013844B2631C14D00C26002001E0F2
:100A60000139CEB2B042E6D833185B10D9B2FF22BA
:100A70001340DF00104ABA5CA242D8D0F0DA01314C
:100A8000C8B2EFE7084B1A69D9680A400192019A87
:100A90001A61019B002B05D00198084B984701383B
:100AA00044B2D8E703B0F0BD001800408000002039
:100AB000C80F0000B5080000680F0000CD0E000050
:100AC000C3070AD5054B802252009A608322520246
:100AD0005A60024B5B78DB09FBD17047000C004089
:100AE000064B1A7AD2B21A725A7AD2B25A729A7AD9
:100AF000D2B29A72DA7AD2B2DA7270470004004047
:100B00000F4B196A090C1A6A920F920709040D48D3
:100B100001400A430C490A431A629A6902210A43B6
:100B20009A611A7F1D310A401A77054BDB681B0753
:100B3000FBD5034A136A80210B4313627047C046FA
:100B4000000800400000FF0F02030000024A936902
:100B500002218B43936170470008004070B5002468
:100B600009E0C025ED058026F603AE610120034BA8
:100B700098476E610134182CF3DD70BD3107000019
:100B800070B500240BE0C025ED05802636049823BF
:100B9000EE500120034B98479423EE500134182C5B
:100BA000F1DD70BD3107000070B5002409E0C025FB
:100BB000ED0580263605AE610120034B98476E6136
:100BC0000134182CF3DD70BD3107000070B500242E
:100BD0000BE0C025ED05802636069823EE50012057
:100BE000034B98479423EE500134182CF1DD70BD6F
:100BF0003107000070B500240AE0C025ED0502268B
:100C00009823EE500120044B98479423EE50013472
:100C1000182CF2DD70BDC0463107000070B500240D
:100C20000AE0C025ED0508269823EE500120044B6C
:100C300098479423EE500134182CF2DD70BDC04665
:100C40003107000070B5002409E0C025ED058026BD
:100C5000B601AE610120034B98476E610134182C38
:100C6000F3DD70BD3107000070B500240BE0C02536
:100C7000ED058026F6019823EE500120034B98479E
:100C80009423EE500134182CF1DD70BD31070000C3
:100C900070B500240BE0C025ED0580267601982371
:100CA000EE500120034B98479423EE500134182C4A
:100CB000F1DD70BD3107000070B500240BE0C025E8
:100CC000ED05802636019823EE500120034B98470E
:100CD0009423EE500134182CF1DD70BD3107000073
:100CE00070B5002409E0C025ED058026F600AE6150
:100CF0000120034B98476E610134182CF3DD70BD61
:100D00003107000070B5002409E0C025ED058026FC
:100D10007600AE610120034B98476E610134182CB8
:100D2000F3DD70BD3107000010B5144B984714492E
:100D30001720144CA04714493620A04713491C2003
:100D4000A04713493E20A04712492020A04712493E
:100D50002220A04711490C20A04711492F20A0476D
:100D600010492D20A04710492A20A0470F490B20E9
:100D7000A0470F490920A047FEE7C0461501000023
:100D80005D0B0000C9070000810B0000A90B0000EB
:100D9000CD0B0000F50B00001D0C0000450C000001
:100DA000690C0000910C0000B90C0000E10C00007F
:100DB000050D0000002243088B4274D303098B42C7
:100DC0005FD3030A8B4244D3030B8B4228D3030C1B
:100DD0008B420DD3FF22090212BA030C8B4202D3BD
:100DE0001212090265D0030B8B4219D300E0090AE5
:100DF000C30B8B4201D3CB03C01A5241830B8B42EE
:100E000001D38B03C01A5241430B8B4201D34B03D6
:100E1000C01A5241030B8B4201D30B03C01A52413B
:100E2000C30A8B4201D3CB02C01A5241830A8B42C0
:100E300001D38B02C01A5241430A8B4201D34B02A9
:100E4000C01A5241030A8B4201D30B02C01A52410D
:100E5000CDD2C3098B4201D3CB01C01A52418309C1
:100E60008B4201D38B01C01A524143098B4201D3FB
:100E70004B01C01A524103098B4201D30B01C01A26
:100E80005241C3088B4201D3CB00C01A52418308A0
:100E90008B4201D38B00C01A524143088B4201D3CD
:100EA0004B00C01A5241411A00D20146524110462D
:100EB0007047FFE701B5002000F006F802BDC0460C
:100EC0000029F7D076E770477047C04610B5002379
:100ED000002802D000F004F8431C180010BDC046E2
:100EE000414208401C2101231B04984201D3000CFD
:100EF00010391B0A984201D3000A08391B0998428D
:100F000001D30009043902A2105C401A7047C046A0
:100F10001B1C1D1D1E1E1E1E1F1F1F1F1F1F1F1FF0
:100F200070B500260C4D0D4C641BA410A64209D1CF
:100F3000002600F055F80A4D0A4C641BA410A64286
:100F400005D170BDB300EB5898470136EEE7B3000A
:100F5000EB5898470136F2E7EC0F0000EC0F000069
:100F6000EC0F0000F00F0000000000002000000067
:100F70000200000022000000060000003600000011
:100F80000700000017000000080000001C0000001F
:100F900009000000090000000A0000002A0000000B
:100FA0000B0000000B0000000C0000000C00000013
:100FB0000D0000002D0000000E0000003E000000AB
:100FC0000F0000002F0000002E2E2F68706C2F6580
:100FD00069632F68706C5F6569632E6300000000B1
:100FE000F8B5C046F8BC08BC9E467047DD0000005E
:100FF000F8B5C046F8BC08BC9E467047B500000076
:00000001FF
