S01F0000617473746172745F626F6172645F696E746572727570742E737265634F
S1130000282000202501000021010000210100001A
S113001000000000000000000000000000000000DC
S113002000000000000000000000000021010000AA
S11300300000000000000000210100002101000078
S11300402101000021010000210100002101000024
S1130050F104000021010000210100002101000041
S11300602101000021010000210100002101000004
S113007021010000210100002101000021010000F4
S113008021010000210100002101000021010000E4
S113009021010000210100002101000021010000D4
S11300A021010000210100002101000021010000C4
S11300B00000000010B5064C2378002B07D1054B37
S11300C0002B02D0044800E000BF0123237010BDC0
S11300D000000020000000004C070000084B10B591
S11300E0002B03D00749084800E000BF0748036815
S11300F0002B00D110BD064B002BFBD09847F9E72D
S113010000000000040000204C0700004C07000021
S11301100000000010B5014B984710BD49020000D3
S1130120FEE70000F8B5234A234B9A4209D0224B3C
S1130130204A03E011681960043304321F498B42DA
S1130140F8D31F4B02E000221A6004331D4A934285
S1130150F9D31D4AFF211D4B8B439360FD39902336
S11301605B001B4AD1501B4AD3780325AB430224BE
S11301702343D370D3780C27BB4308263343D3706F
S1130180154B987B30229043202210439873997B1F
S1130190B943314399739A7BAA4322439A730F4A12
S11301A0516880230B4353600D4B98470D4B984780
S11301B0FEE7C0464C0700000000002000000020BD
S11301C0000000202800002000ED00E000000000F6
S11301D000700041005000410048004100400041CF
S11301E0C50600005506000070B5114A114B5A802F
S11301F0C020C0058024240244600F4B0F4A9A6239
S11302000F4A9A6244604F215A5C04252A43D2B2B1
S11302105A5484615A5C012082430243D2B25A5434
S113022018395A5C0F2002405A54064B984770BD47
S113023005400000000C00400044004100800240E2
S1130240000002C0CD02000010B50B4B9847C0233C
S1130250DB058022D20598215A5010395A50074B99
S113026020315A50064A5A5036315A5C0120824392
S11302705A54044B984710BDE10300000044004168
S1130280004000C0E901000070B50125002407E02A
S11302900D4AB358002B00D0984770BD013AD5B22F
S11302A0AC42FAD82B195B10DAB2002AF5D1FF213F
S11302B00B40DE000449891949688142E8D0EDD237
S11302C00132D4B2ECE7C0461C00002010B5002374
S11302D0002B03D00748084B984710BD074AD900A4
S11302E050180124644244600020885001339BB2BA
S11302F0EEE7C04689020000110400001C00002043
S1130300F0B5C64600B584B001900023002B10D090
S11303100023984600291BD04346002B46D1002BCE
S113032024D1DA002A4C1259002A18D00133DBB246
S1130330F5E7DC00264A121952680198824202D07D
S11303400133DBB2E2E7224BE15001239846E1E7B7
S11303504346002B35D001981E4B98472DE0DD0015
S113036029516519019A6A6001229046002201E030
S11303700132D2B21900114318D11549DC000C190D
S11303806768D400091949688F42F1D24C1CEFD038
S113039002A98C460E4FD1007918644641C941C464
S11303A0DD007D19614611C911C5E1E74346002B03
S11303B00AD001210198074B984704B004BC904629
S11303C0F0BD0D204042F8E70D204042F5E7C0465D
S11303D01C000020A5040000002800D100BE7047C6
S11303E010B5064B5A685A60054B9847054B984719
S11303F0054B9847FF20054B984710BD004000412E
S1130400C9050000E905000035060000A905000043
S1130410214B5B78DB09FBD11F4B5B78DB09FBD1FC
S11304201D4B1B789B070AD500221B4B1A701A4BD5
S11304305B78DB09FBD1184B5B78DB09FBD101222C
S1130440154B1A70144B5B78DB09FBD1124B5B78AC
S1130450DB09FBD1104B00229A705A605A619A61F1
S113046080225205DA611A7802210A43D2B21A7044
S1130470094B5B78DB09FBD1084B102280215A50D1
S1130480BFF34F8FBFF36F8F0131FF315A501A60A2
S1130490034B1860002070470018004000E100E0A2
S11304A0240000200023002B0BD0FF22FF2A17D0AA
S11304B000290FD1012393400B4A9360136100205C
S11304C070470F2802D00133DBB2ECE7DA00074BA8
S11304D0D25CEBE701239340034AD3600020EFE7AB
S11304E00D204042ECE7C046001800400C07000015
S11304F070B582B0264B1A69D9680A400192019AF4
S11305001A61244B1868431E9841C0B2D222224972
S1130510224B984701256D422EE00139CEB2B042FC
S11305200ED832185210D1B2FF231340DB001C4AFC
S11305309B5CA34203D0F0DA0131C8B2EFE70F2588
S11305406B1C03D0134B1B68280098470122A24060
S1130550019B934301930198124B9847013844B28D
S1130560631C02D001260020D9E7094B1A69D96817
S11305700A400192019A1A61019B002B05D001984F
S1130580084B9847013844B2EAE702B070BDC04650
S1130590001800402400002014070000D9030000C4
S11305A00C07000071060000C3070AD5054B802222
S11305B052009A60832252025A60024B5B78DB0934
S11305C0FBD17047000C0040064B1A7AD2B21A7263
S11305D05A7AD2B25A729A7AD2B29A72DA7AD2B277
S11305E0DA727047000400400F4B196A090C1A6A4A
S11305F0920F920709040D4801400A430C490A432B
S11306001A629A6902210A439A611A7F1D310A40CB
S11306101A77054BDB681B07FBD5034A136A802155
S11306200B4313627047C046000800400000FF0FF0
S113063002030000024A936902218B4393617047CD
S1130640000800408021C9059C23C022D205D15056
S11306507047000010B5034B984703490F20034B24
S11306609847FEE71501000045060000010300005D
S113067010B50023002802D000F004F8431C180031
S113068010BDC046414208401C2101231B0498426E
S113069001D3000C10391B0A984201D3000A08390F
S11306A01B09984201D30009043902A2105C401AC4
S11306B07047C0461B1C1D1D1E1E1E1E1F1F1F1F14
S11306C01F1F1F1F70B500260C4D0D4C641BA4107A
S11306D0A64209D1002600F029F80A4D0A4C641BF1
S11306E0A410A64205D170BDB300EB58984701365B
S11306F0EEE7B300EB5898470136F2E738070000FD
S113070038070000380700003C0700000F00000015
S11307100F0000002E2E2F68706C2F6569632F6800
S1130720706C5F6569632E6300000000F8B5C04615
S1130730F8BC08BC9E467047DD000000F8B5C04612
S10F0740F8BC08BC9E467047B5000000E1
S9030000FC
