S0220000617473746172745F74696D6572735F345F4644504C4C5F39364D2E737265638D
S113000080200020250100002101000021010000C2
S113001000000000000000000000000000000000DC
S113002000000000000000000000000021010000AA
S11300300000000000000000210100002101000078
S11300402101000021010000210100002101000024
S11300502101000021010000210100002101000014
S11300602101000021010000210100002101000004
S1130070210100000000000000000000E106000073
S113008021010000210100002101000021010000E4
S11300902101000000000000000000002101000018
S11300A021010000210100002101000021010000C4
S11300B00000000010B5064C2378002B07D1054B37
S11300C0002B02D0044800E000BF0123237010BDC0
S11300D02800002000000000DC080000084B10B5D8
S11300E0002B03D00749084800E000BF0748036815
S11300F0002B00D110BD064B002BFBD09847F9E72D
S1130100000000002C000020DC080000DC080000D7
S11301100000000010B5014B984710BD2D020000EF
S1130120FEE700002148224970B5884204D000232C
S1130130204CCA18A24232D300211F4B1F4A9342BB
S113014031D3FF211E4B1F4A8B43936002220C259F
S1130150082430261C4B1D485A62C378FC398B4353
S11301601343C370C378AB432343C370184B987BCA
S1130170B0430600202030439873987BA84304437F
S11301809C73987B884302439A738023114A516875
S11301900B435360104B9847104B9847FEE7C558E4
S11301A004331560C5E702C3C9E7C046DC08000094
S11301B00000002028000020280000207C000020EF
S11301C00000000000ED00E0FC7000410050004120
S11301D00048004100400041750800000907000084
S11301E08023044A5B00116A0B431362024A034BE7
S11301F05A807047000400401A410000000C00407F
S113020010B5054B9847054B984705490200054B27
S11302100548984710BDC046E1010000C106000032
S113022000200042610300004C00002010B50B4B7D
S11302309847C0238022DB0512039A619A608022CA
S11302400121074BD2059A62064A9A6253331A78FF
S11302508A431A70044B984710BDC04681040000BD
S113026000440041080000C001020000EFF31083C5
S1130270036072B6BFF35F8F7047BFF35F8F03688D
S113028083F3108870470000044B10B51C68044BBE
S11302909847044B01002000984710BD44000020FB
S11302A06104000079040000F7B50568002D02D14F
S11302B0114B9847F7BD01262C0000278B6800934B
S11302C0B31A0193A6686368B44693420DD8634495
S11302D09B1A009EB3420CD223682700002B02D144
S11302E03800064BE5E71C00ECE7019EF318634475
S11302F0EFE7A542F4D1DBE7290400003104000054
S1130300F8B5036905005E1C037E44690661DB07DA
S113031002D4037E9B0717D502232A7E13432B7630
S1130320F8BD2F0014370C4B38009847237C012B61
S113033005D16660320021003800084B98476F6988
S1130340E368200098473C00002CE9D06368A26869
S1130350F31A9342E5D2E3E739040000A90200004E
S113036010B5044B040098470020034B2061236020
S113037010BDC046BD0500000103000070B5064B6A
S113038005009847041E04D12800044B9847200018
S113039070BD11204042FBE7A90600009106000051
S11303A0F0B507000125037E14372B43037685B08F
S11303B00400144B38000E0098470190002806D022
S11303C0237EAB432376133D280005B0F0BD22699C
S11303D03100726002260C4B38009847237EAB43F1
S11303E02376237E019D3342EED003A8074B984722
S11303F0237E2000B3432376054B984703A8054B7F
S11304009847E1E719040000A90200006D0200000A
S1130410C50600007B0200000068002800D1704778
S11304208842F9D10120FAE703680B600160704744
S113043003680B60016070470368002B01D01A68E1
S1130440026018007047000043B2002B05DB1F2335
S113045018401E3B8340014A53607047FCE100E0B2
S11304600300F020400010B558431E211D30014BFD
S1130470984710BD5D0700000139FDD870470000A2
S1130480022310B5074A51680B435360064B984743
S1130490064B98470820064CA047064B9847F72080
S11304A0A04710BD004000411105000031050000C7
S11304B0B904000061050000C30716D4830708D5FA
S11304C002220F4BFF329A600E4A5A605A78D209C0
S11304D0FCD1030708D50422094BFF329A600A4A6B
S11304E05A605A78D209FCD170478022044B92009A
S11304F09A60064A5A605A78D209FCD1DEE7C046AF
S1130500000C004001080100030409000008090070
S1130510064B1A7AD2B21A725A7AD2B25A729A7AAA
S1130520D2B29A72DA7AD2B2DA7270470004004018
S1130530FE210A4BC9039A69114006220A431F216E
S11305409A611A7F0A401A770422D9681142FCD0B2
S1130550802299690A439A617047C04600080040A6
S11305600E4A0F4B30B55A8002220E490E480F4BEB
S113057004241A70886420200125C8640C49087872
S1130580204205D10878284202D108781042F6D0DA
S113059080211A780A431A7030BDC0460143000016
S11305A0000C004000080040700B0B0044080040A1
S11305B05008004083681942FCD17047F7B52E4DAE
S11305C001902B680C00994202D00A204042FEBDE3
S11305D0019B2A4ED9608B68DB0714D402270321C0
S11305E02000B04723683B4208D023680321BB4363
S11305F020002360B04739002000B04701230321C5
S113060023602000B04701212000B047AB680321DC
S113061023602000B0472B7B802163716B7B20001B
S1130620A3772B6923626B6A2364B0470123A36217
S1130630134B9C4202D1134B019A1A600423EB56CC
S1130640002B0ADB1F2213401E3A9A4013000E4A65
S1130650D367BFF34F8FBFF36F8F04230020EB5694
S11306608342B4DB1F221A400123C0219340074A6E
S1130670490053501360AAE700000020B5050000AC
S1130680002000424800002004E100E000E100E016
S1130690022310B5C0680321026813430360014BB1
S11306A0984710BDB505000010B5C46803212000AB
S11306B0024B984720688007C00F10BDB5050000A5
S11306C000207047044BC268196810B58A4202D1F1
S11306D01879024B984710BD00000020490400001F
S11306E00122054B10B51868C368D96A114202D0BB
S11306F0DA620368984710BD480000208022C023B6
S11307001203DB05DA61704770B50D4BC0248025F8
S11307109847FA20E4052D03E5618000094B9847CA
S11307200123E5610849094C094A8B600B742000D8
S1130730084BCA6098472000074B9847FEE7C0461D
S11307401501000089020000680000204C00002010
S1130750FD060000A10300007D0300000022430801
S11307608B4274D303098B425FD3030A8B4244D375
S1130770030B8B4228D3030C8B420DD3FF220902B7
S113078012BA030C8B4202D31212090265D0030B76
S11307908B4219D300E0090AC30B8B4201D3CB036C
S11307A0C01A5241830B8B4201D38B03C01A5241AE
S11307B0430B8B4201D34B03C01A5241030B8B42B0
S11307C001D30B03C01A5241C30A8B4201D3CB029B
S11307D0C01A5241830A8B4201D38B02C01A524180
S11307E0430A8B4201D34B02C01A5241030A8B4283
S11307F001D30B02C01A5241CDD2C3098B4201D39B
S1130800CB01C01A524183098B4201D38B01C01A18
S1130810524143098B4201D34B01C01A524103098F
S11308208B4201D30B01C01A5241C3088B4201D33E
S1130830CB00C01A524183088B4201D38B00C01AEB
S1130840524143088B4201D34B00C01A5241411A12
S113085000D20146524110467047FFE701B500201F
S113086000F006F802BDC0460029F7D076E77047CD
S11308707047C04670B500260C4D0D4C641BA41087
S1130880A64209D1002600F019F80A4D0A4C641B4F
S1130890A410A64205D170BDB300EB5898470136A9
S11308A0EEE7B300EB5898470136F2E7C8080000BA
S11308B0C8080000C8080000CC080000F8B5C0460D
S11308C0F8BC08BC9E467047DD000000F8B5C04681
S10F08D0F8BC08BC9E467047B500000050
S11308DC002000420F000000000000000000000097
S11308EC00000000000000000000000000000000F8
S10B08FC000000006000000090
S9030000FC
